:020000040800F2
:1000000008070020B501000871140008BD1200089F
:100010006D1400087102000885140008000000003B
:10002000000000000000000000000000791400083B
:100030007502000800000000751400087D14000817
:10004000CF010008CF010008CF010008CF01000850
:10005000CF010008CF010008CF010008CF01000840
:10006000CF010008CF010008CF010008CF01000830
:10007000CF010008CF010008CF010008CF01000820
:10008000CF010008CF010008CF010008CF01000810
:10009000CF010008CF010008CF010008CF01000800
:1000A000CF010008CF010008CF010008CF010008F0
:1000B000CF010008CF010008CF010008CF010008E0
:1000C000CF010008CF010008CF010008CF010008D0
:1000D000CF010008CF010008CF010008CF010008C0
:1000E000CF010008CF010008CF01000800F002F89E
:1000F00000F050F814A696E8000CB244B344DA4578
:1001000001D100F047F8BAE80F000FA696E83000DA
:10011000A5EB040504EB0607AAEB0704A7F101070A
:100120004FEA15154FEA3414A4F10104AC4201D38F
:1001300000F030F813F0010F18BFFB1A43F0010371
:1001400000F001F8DBE718475014000070140000BD
:10015000103A24BF78C878C1FAD8520724BF30C8F3
:1001600030C144BF04680C60704700007047000055
:100170000023002400250026103A28BF78C1FBD8B0
:10018000520728BF30C148BF0B6070471FB51FBD65
:1001900010B510BD00F031F81146FFF7F7FF01F080
:1001A00073F900F04FF803B4FFF7F2FF03BC00F05F
:1001B00057F800000948804709480047FEE7FEE776
:1001C000FEE7FEE7FEE7FEE7FEE7FEE7FEE7FEE707
:1001D00004480549054A064B704700008114000891
:1001E000ED00000808010020080700200803002097
:1001F00008030020704770477047754600F02CF8E0
:10020000AE4605006946534620F00700854618B003
:1002100020B5FFF7DDFFBDE820404FF000064FF0AE
:1002200000074FF000084FF0000BAC46ACE8C009E7
:10023000ACE8C009ACE8C009ACE8C00921F007018E
:100240008D46704710B50446AFF300802046BDE8E8
:100250001040FFF7A8BF00000048704710000020C2
:1002600001491820ABBEFEE72600020070470000DF
:10027000FEE7000070470000EFF3108072B600BF89
:10028000FEE700002DE9F04F82B00E68002E00F06E
:10029000FD8041F20042C4F20102042340F2004E0C
:1002A000904208BF03234FF6FF7CC4F2010E009377
:1002B00000240123C1F2100C4FF0000A4FF0000996
:1002C0004BE000BF41F20002C4F20102009F9042E5
:1002D00008BF022704F00C030F229A402BEA020207
:1002E00007FA03F34FEA9A051A4346F825204E68A9
:1002F00040F20C45F202DEF8082054BF22EA080260
:1003000042EA0802C4F20105CEF808202A68B302C6
:1003100054BF22EA080242EA08022A60B303DEF868
:10032000042054BF22EA080242EA0802F303CEF88E
:100330000420DEF800204FF0010354BF22EA080237
:1003400042EA0802CEF800200E680AF1010A36FAE5
:100350000AF204F1040400F0998003FA0AFB16EA99
:100360000B08F1D04E68664512DC122E56D8DFE835
:1003700006F0350B4D49555555555555555555555F
:1003800055555545510000BFD1F80C9046E000BFCF
:100390004FF6FF72C1F2210296420FDC0022C1F239
:1003A000110296421AD00022C1F21202964215D0D2
:1003B0000022C1F22102964210D02FE00022C1F2A9
:1003C000220296420AD00022C1F23102964205D0A2
:1003D0000022C1F23202964220D100BF8A684AB19F
:1003E000012A14BFC0F814B0C0F810B04FF00809CB
:1003F00014E000BF4FF0040910E000BFCA6802F12A
:1004000004090BE04FF0000908E000BFCA6802F1E0
:10041000080903E0CA6802F10C0900BF024626463B
:10042000B8F5807F24BF0432203E17680F25B54001
:1004300027EA050509FA06F635431560CA79D2069A
:100440007FF582AF41F21803C4F202031A68AEF5D9
:100450007E7642F001021A601A6802F001020192EF
:10046000019A2AF0030256F802B040F60002C4F2E4
:100470000102904208D040F60042C4F201029042CC
:100480007FF420AF012725E7002723E702B0BDE86E
:10049000F08F0000002A08BF0904016170470000C6
:1004A00040F20010C2F200000068704740F2000005
:1004B00040F20011C2F20000C2F2000100780A68A6
:1004C000104408607047000080B542F20000C4F29A
:1004D0000200016841F010010160032000F07AF889
:1004E0000F2000F005F800F027F8002080BD000084
:1004F00070B540F20006C2F2000640F20801327800
:10050000C2F200014FF47A730968B3FBF2F20446B9
:10051000B1FBF2F1084600F04BFB0F2C4FF0010548
:1005200008D838B94FF0FF3021460022002500F0EE
:1005300025F87460284670BD82B041F21800C4F2FC
:1005400002000168022241F001010160016801F02E
:10055000010101910199416841F080514160406879
:1005600000F08050009000980420C4F2010001685F
:1005700062F31A61016002B07047000010B54EF6D8
:100580000C5CCEF2000CDCF80030C3F3022E8EF0CF
:100590000704042C28BF0424BEF103034FF0FF3EE0
:1005A0000EFA04F438BF0023A14399400EFA03F376
:1005B0009A43114300F00F0200F160430901043A2D
:1005C00003F564436244002848BF02F10C0319702C
:1005D00010BD00004EF60C51CEF200010A684FF635
:1005E000FF031A4060F30A2242F0806040F0FD7081
:1005F00008607047002804BF012070472DE9F043D0
:1006000081B042F20008C4F202080446D8F80000A3
:100610000D4600F0070081420CD9D8F8000020F008
:1006200007002843C8F80000D8F8000000F00700D1
:10063000A8426CD1206841F204098107C4F2020982
:1006400017D5410705D5D9F8001041F4E061C9F884
:100650000010010705D5D9F8001041F46051C9F820
:100660000010D9F80010A26821F0F0011143C9F878
:100670000010C00742D1D8F8000000F00700854202
:100680000CD2D8F8000020F007002843C8F800007A
:10069000D8F8000000F00700A84238D120684107D0
:1006A00007D5D9F80010E26821F4E0611143C9F8D8
:1006B0000010000708D5D9F80000216920F4605027
:1006C00040EAC100C9F80000D9F8002002F00C008F
:1006D000082841F20020C0F27A004DD141F288533F
:1006E000C2F38341C0F60003595CD20338D440F60C
:1006F0000010C0F23D0048433EE000BF606859F87A
:10070000041C022808D0012826D1890306D4012020
:1007100001B0BDE8F08300BF8901F8D5D9F8001019
:1007200021F003010843C9F80000FFF7B9FE0646AF
:1007300041F28837D9F80000616800F00C00B0EB96
:10074000810F98D0FFF7ACFE801BB842F2D903208E
:1007500001B0BDE8F08300BF8907D8D5DEE700BF50
:10076000D9F8002041F28653C2F34042C0F600039C
:100770009A5C4843B0FBF2F0D9F8001041F276528F
:10078000C1F30311C0F60002515C40F2080220FAE6
:1007900001F140F20400C2F200000068C2F200025F
:1007A0001160FFF7A5FE002001B0BDE8F083000056
:1007B000002804BF012070472DE9F04182B00446B3
:1007C000007841F20006C007C4F202060CD070683F
:1007D00000F00C00042840F081803068800303D5CD
:1007E0006068002800F04681207880071BD570687B
:1007F00010F00C0F09D0706800F00C00082840F0D1
:1008000087807068C00300F183803068800703D55B
:100810002069012840F02E813068616920F0F800DD
:1008200040EAC10030602078000713D420784007E8
:100830002CD4E569002D00F01881706800F00C00E0
:10084000082840F0A780012D40F00481012002B06B
:10085000BDE8F081A069002800F084800020C4F287
:1008600042200121C0F88014FFF71AFE054600BFA0
:10087000706A800700F1B280FFF712FE401B022869
:10088000F6D9032002B0BDE8F08100BFF0695FEA4D
:10089000C00808D4F06940F08050F061F06900F0C1
:1008A00080500090009847F20007C4F200073868B3
:1008B000C00549D4386840F480703860FFF7F0FD17
:1008C000054600BF3868C0053ED4FFF7E9FD401B70
:1008D0006428F7D9032002B0BDE8F081706800F009
:1008E0000C00082803D17068C0033FF576AF61683B
:1008F0003068002900F00C81B1F5A02F00F00081D4
:10090000B1F5803F40F01A8140F480301CE100BF17
:100910002069002840F20000C4F2422000F08880E4
:1009200001210160FFF7BCFD054600BF306880076C
:100930003FF572AFFFF7B4FD401B0228F6D9032044
:1009400002B0BDE8F08100BFE168306A002900F024
:100950009D80052900F09280012940F0AF8040F091
:100960000100B1E00020C4F242200021C0F8801450
:10097000FFF796FD054600BF706A80077FF556AF0A
:10098000FFF78EFD401B0228F6D9032002B0BDE818
:10099000F08100BF0027C4F2422700203866FFF72D
:1009A0007FFD022D05460DD13068800140F1DE80CB
:1009B000FFF776FD401B02284FF00300F4D902B088
:1009C000BDE8F081306880014FD5FFF769FD401B1D
:1009D00002284FF00300F5D9F1E700BF40F208000C
:1009E000C2F20000006844F6D351C1F26201A0FBDC
:1009F0000101480A019000BF00BF0198411E002874
:100A000001913FF413AF00BF0198411E00280191EE
:100A10003FF40CAF00BF0198411E002801913FF444
:100A200005AF00BF0198411E00280191E4D1FDE609
:100A300000210160FFF734FD054600BF30688007E4
:100A40007FF5F1AEFFF72CFD401B02284FF00300AD
:100A5000F4D9B4E77068216A00F480328A4209D17F
:100A6000616A00F47010884204D1002002B0BDE831
:100A7000F08100BF012002B0BDE8F08140F0040029
:100A80003062306A40F001001EE000BF20F001003B
:100A90003062306A20F004003062FFF701FD054645
:100AA00041F28837306A800720D5FFF7F9FC401BF8
:100AB000B8424FF00300F5D981E700BF20F00100F4
:100AC0003062306A20F004003062FFF7E9FC05462E
:100AD00041F28837306A800708D4FFF7E1FC401BF9
:100AE000B842F7D9032002B0BDE8F081B8F1000F99
:100AF0003FF59FAEF06920F08050F06199E600BFAD
:100B000040F480203060306840F480301CE000BF4A
:100B100020F480303060306820F480203060FFF7AF
:100B2000BFFC0546306880037FF55EAEFFF7B8FC7A
:100B3000401B64284FF00300F4D940E720F48030D4
:100B40003060306820F480203060FFF7A9FC054653
:100B5000306880033FF548AEFFF7A2FC401B6428D5
:100B6000F6D9032002B0BDE8F08100BF206AB0F5DD
:100B7000803F05D17168A26821F400311143716092
:100B80007168626A21F47411114308437060012096
:100B90003866FFF785FC0446306880013FF565AF95
:100BA000FFF77EFC001B02284FF00300F4D906E794
:100BB000411E0020B0EB116F1CBF012070474EF2A8
:100BC0001002CEF2000251604EF62351CEF2000127
:100BD000F0230B70072190601160704790F83C2063
:100BE000012A4FF0020236D010B580F83D2002688D
:100BF000D2F804E0D2F808C00C682EF0700323434A
:100C000040F2FF74C4F20004A24253600ADCB2F165
:100C1000804F13D040F20043C4F200039A420DD03B
:100C200011E000BF42F60043C4F201039A4205D02E
:100C300040F60003C4F200039A4204D149682CF044
:100C40008003194391600121002280F83D1080F853
:100C50003C20BDE81040104670470000002804BF4B
:100C60000120704710B590F83D1031B9002180F88F
:100C70003C10044600F070F82046022180F83D1038
:100C8000016840F2FF740B68C4F2000442F6004CA5
:100C9000A142C4F2010C15DCB1F1804F1AD040F230
:100CA0000042C4F20002914214D0A14218DCB1F11A
:100CB000804F1DD040F20042C4F20002914217D092
:100CC0001AE000BF614505D040F60002C4F2000200
:100CD0009142EAD1826823F070031343A142E6DD1A
:100CE000614505D040F60002C4F20002914203D1F2
:100CF000026923F440731343846923F08002D0F81F
:100D000004E0C368224361450A60CB62C1F828E071
:100D100002D14269CCF8302001224A610B69DB071D
:100D200003D00B6923F001030B6180F8462080F8A3
:100D30003E2080F83F2080F8402080F8412080F855
:100D4000422080F8432080F8442080F8452080F835
:100D50003D20002010BD00000068B0F1804F18BF9A
:100D6000704781B041F21C00C4F20200016841F0FA
:100D700001010160006800F001000090009801B0DE
:100D80007047000090F83D1001291CBF01207047FA
:100D9000022180F83D10006840F2FF71C4F20001AA
:100DA000884209DCB0F1804F12D040F20041C4F219
:100DB000000188420CD012E042F60041C4F2010169
:100DC000884205D040F60001C4F20001884206D1F5
:100DD000816801F00701062904BF002070470168FF
:100DE00041F00101016000207047000090F83C20B4
:100DF000012A4FF002026CD080B580F83D20D0F877
:100E000000C04FF67772DCF8083023EA0202CCF813
:100E100008200B684F2B29DC1F2B45DD202B46D0EB
:100E2000302B44D0402B40F0AF80D1F804E0C968AB
:100E3000DCF82030DCF8202022F00102CCF8202061
:100E4000DCF8182022F0F00242EA011123F00A0235
:100E500042EA0E02CCF81810CCF82020DCF808107A
:100E600041F0470121F0300128E000BF6F2B33DD56
:100E7000B3F5005F74D0B3F5805F21D0702B40F0E4
:100E80008380D1E901E3C968DCF8082043EA0E0356
:100E900022F47F4243EA01211143CCF80810DCF828
:100EA000081041F0770109E00BB1102B6CD1DCF890
:100EB000081021F07001194341F00701CCF8081027
:100EC0000022012180F83D10002180F83C10BDE88F
:100ED00080401046704700BF502B21D0602B53D16B
:100EE000D1F804E0C968DCF82030DCF8202022F0DA
:100EF0001002CCF82020DCF8182022F4704242EADC
:100F0000013123F0A00242EA0E12CCF81810CCF8FE
:100F10002020DCF8081041F0670121F01001CDE736
:100F2000D1F804E0C968DCF82030DCF8202022F099
:100F30000102CCF82020DCF8182022F0F00242EA6E
:100F4000011123F00A0242EA0E02CCF81810CCF884
:100F50002020DCF8081041F0570121F02001ADE716
:100F6000D1E901E3C968DCF8082043EA0E0322F462
:100F70007F4243EA01211143CCF80810DCF8081045
:100F800041F480419AE700BF01229AE790F83C3093
:100F9000012B04BF022070474FEAB202032A00F27D
:100FA000F1802DE9F043DFE802F003A53B7500BFB7
:100FB000036842F600461D6A1A6AC4F2010622F06E
:100FC00001021A621A465C6852F818CFB3428E6862
:100FD000D1F800E025F0020545EA06050CD1CE68FF
:100FE000D1E9057824F4407425F00C0526F00406B8
:100FF0003C43354344EA08042CF0730747EA0E07E4
:101000005C609F614F6809695F631D629F6947F07B
:1010100008079F619F6927F004079F61A6E000BF52
:10102000036842F600461D6A1A6AC4F2010622F4F9
:1010300080721A621A46D3F804C052F81CEFB34209
:101040008E680C6825F4007545EA06250FD1CE6838
:10105000D1E90598360240F2FF4725F44065BE43CA
:1010600035432CF4405748EA090647EA061C2EF09F
:1010700073072743C3F804C0DF614F680969DF6362
:101080001D62DF6947F00807DF61DF6927F00407A9
:10109000DF616BE0036842F60047D3F820C01A6AAC
:1010A000C4F2010722F480521A621A465C6852F8B0
:1010B0001C5FD1F800E08E68BB4204D14F6924F474
:1010C000804444EA87142CF4005747EA063725F495
:1010D000E64646EA0E265C60DE614E6809691E64DB
:1010E0001F62DF6947F40067DF61DF6927F480670B
:1010F000DF613AE0036842F600461D6A1A6AC4F2EC
:10110000010622F010021A621A46D3F804C052F8FF
:10111000184FB3428E68D1F800E025F0200545EA6B
:1011200006150FD1CE68D1E905986FF0400725F07C
:10113000C00507EA061635432CF4406748EA09065D
:1011400047EA860C24F4E64444EA0E27C3F804C0B8
:101150009F614F6809699F631D629F6947F400673B
:101160009F619F6927F480679F6109021368194393
:1011700011600021BDE8F043002280F83C200846C1
:10118000704700BF0121002280F83C2008467047CC
:10119000002804BF0120704710B590F83D1031B908
:1011A000002180F83C10044600F070F8204602212F
:1011B00080F83D10016840F2FF740B68C4F200042F
:1011C00042F6004CA142C4F2010C15DCB1F1804F93
:1011D0001AD040F20042C4F20002914214D0A1425F
:1011E00018DCB1F1804F1DD040F20042C4F2000281
:1011F000914217D01AE000BF614505D040F60002C9
:10120000C4F200029142EAD1826823F070031343D2
:10121000A142E6DD614505D040F60002C4F20002BD
:10122000914203D1026923F440731343846923F08C
:101230008002D0F804E0C368224361450A60CB62B3
:10124000C1F828E002D14269CCF8302001224A617D
:101250000B69DB0703D00B6923F001030B6180F8F6
:10126000462080F83E2080F83F2080F8402080F81B
:10127000412080F8422080F8432080F8442080F804
:10128000452080F83D20002010BD0000006840F29D
:101290000041C4F20001884218BF704781B041F29A
:1012A0001C00C4F20200016841F002010160006804
:1012B00000F002000090009801B07047FEE70000C7
:1012C00070B586B00020CDE90400CDE9020041F2FE
:1012D0001800C4F20200016841F2000441F010015C
:1012E00001600168C4F2010401F01001019101994B
:1012F0000168012241F02001016001684FF40055AE
:1013000001F02001019101990168012641F00401D9
:10131000016000684FF4005100F004000190019852
:101320002046FFF7B7F80220059002A92046CDE934
:1013300002560496FEF7A6FF06B070BD80B586B0D3
:1013400040F270000021C2F200004FF080424723BB
:101350004FF6FF7C0591CDE90311CDE90011C0E9FD
:101360000023C0E9021C01618161FFF777FC0028BE
:1013700018BFFEF781FF4FF48050029040F27000DA
:10138000C2F2000002A9FFF731FD002818BFFEF7E6
:1013900073FF40F27000C2F200006946FFF71EFCC6
:1013A000002818BFFEF768FF06B080BD70B590B08A
:1013B00040F2004540F2B800C4F200050021C2F23C
:1013C00000004FF6FF72CDE90811CDE90611CDE915
:1013D0000411C0E90051C0E9021201618161FFF707
:1013E000D7FE002818BFFEF747FF40F2B800C2F250
:1013F000000008A9FFF7F2FB002818BFFEF73CFF2A
:1014000040F2B8046020C2F200040190002601A955
:1014100020460022CDE902660596FFF7B7FD0028B9
:1014200018BFFEF729FF2068CDE90E66A8420D9689
:101430000C9601D010B070BD41F21800C4F2020049
:10144000016841F00401016000680CA900F004008B
:101450000B900B9840200C9002200D900F9005F5FA
:101460008230FEF70FFF10B070BD0000FEE70000F5
:10147000FEE700007047000070470000FFF716B855
:1014800070470000FEE7000090B0FFF71DF8002451
:101490000120CDE90B44CDE9094406900A904FF4B0
:1014A000E0104FF4803102250F9006A8CDE9071413
:1014B000CDE90D51FFF77CF920B1EFF3108072B642
:1014C000FEE700BF0F20CDE901054FF48060CDE9B4
:1014D000040401A802210394FFF78CF820B1EFF374
:1014E000108072B6FEE700BF41F200044AF22016F7
:1014F000C4F20104C0F20706FFF7E2FEFFF71EFF89
:10150000FFF754FF40F27005C2F200052846FFF7CE
:1015100039FC00BF20464FF400510022FEF7BAFF0D
:101520002868416A426A521AB2420BD2426A521A7F
:10153000B24207D2426A521AB24203D2426A521AE5
:10154000B242EFD320464FF400510122FEF7A2FF32
:101550002868416A426A521AB242DBD2426A521A7F
:10156000B242D7D2426A521AB242D3D2426A521A15
:10157000B242EFD3CEE700000000000000000102FD
:101580000304060708090102020304050607080907
:101590000A0B0C0D0E0F1010B815000800000020EB
:1015A0001000000050010008C815000810000020BD
:1015B000F8060000700100080100000010000000A3
:0815C00000127A000000000097
:04000005080000ED02
:00000001FF
