:020000040800F2
:10000000B846002055020008A51B0008F119000899
:10001000A11B000839060008211F0008000000008D
:10002000000000000000000000000000211C00088B
:100030004108000800000000B11B00084D1C00082A
:100040006F0200086F0200086F0200086F020008CC
:100050006F0200086F0200086F0200086F020008BC
:100060006F0200086F0200086F0200086F020008AC
:100070006F0200086F0200086F0200086F0200089C
:100080006F0200086F0200086F0200086F0200088C
:100090006F0200086F0200086F0200086F0200087C
:1000A0006F0200086F0200086F0200086F0200086C
:1000B0006F0200086F0200086F0200086F0200085C
:1000C0006F0200086F0200086F0200086F0200084C
:1000D0006F0200086F0200086F020008151F000879
:1000E0006F0200086F0200086F0200086F0200082C
:1000F0006F0200086F0200086F0200086F0200081C
:100100006F0200086F0200086F0200086F0200080B
:100110006F0200086F0200086F0200086F020008FB
:100120006F0200086F0200086F0200086F020008EB
:100130006F0200086F0200086F0200086F020008DB
:100140006F0200086F0200086F0200086F020008CB
:100150006F0200086F0200086F0200086F020008BB
:100160006F0200086F0200086F0200086F020008AB
:100170006F0200086F0200086F0200080000000014
:100180006F0200086F02000800F002F800F052F859
:1001900014A696E8000CB244B344DA4501D100F04D
:1001A00049F8BAE80F000FA696E83000A5EB040561
:1001B00004EB0607AAEB0704A7F101074FEA1515A0
:1001C0004FEA3414A4F10104AC4201D300F032F838
:1001D00013F0010F18BFFB1A43F0010300F001F800
:1001E000DBE718474436000064360000103A24BFAD
:1001F00078C878C1FAD8520724BF30C830C144BF8C
:1002000004680C6070470000704700000023002461
:1002100000250026103A28BF78C1FBD8520728BF16
:1002200030C148BF0B6070471FB503F0DEFA1FBD39
:1002300010B510BD00F0C6F91146FFF7F5FF01F04B
:1002400071FE00F0E4F903B4FFF7F2FF03BC00F025
:10025000EBF900000948804709480047FEE7FEE740
:10026000FEE7FEE7FEE7FEE7FEE7FEE7FEE7FEE766
:1002700004480549054A064B704700000D1D00085B
:1002800089010008B8400020B8460020B84200208C
:10029000B842002053EA020C00F069802DE9F04BCF
:1002A0004FF00006002B1FBFB3FA83F503FA05F4E5
:1002B00024FA05F65E4012BF1643B2FA82F502FA3E
:1002C00005F4C5F120051EBF22FA05FC44EA0C0422
:1002D000203556EA044C4FEA144418BF641C4FF012
:1002E00000084FF00009904271EB030C39D300294C
:1002F00019BFB1FA81F701FA07F6B0FA80F700FAF0
:1003000007F6C7F120071EBF20FA07FC46EA0C06D5
:100310002037B6FBF4FCA7EB0507103F07F01F0BD7
:10032000CBF120062CFA06F60CFA0BFB44BFB346C1
:100330000026202FA4BF5E464FF0000B5BEA060CA0
:1003400008BF4FF0010B19EB0B0948EB0608ABFB9C
:10035000027C06FB02CC0BFB03CCC01B71EB0C0137
:10036000C1E70B46024641464846BDE8F08B13B54F
:10037000084318BF4FF0FF300146AFF30080BDE8DF
:100380001C407047032A40F2308010F0030C00F04C
:10039000158011F8013BBCF1020F624498BF11F8BF
:1003A00001CB00F8013B38BF11F8013BA2F1040278
:1003B00098BF00F801CB38BF00F8013B11F00303F0
:1003C00000F06780083AC0F0088051F8043B083A12
:1003D00051F804CBA0E80810F5E7121D5CBF51F8F6
:1003E000043B40F8043BAFF30080D20724BF11F870
:1003F000013B11F801CB48BF11F8012B24BF00F8D5
:10040000013B00F801CB48BF00F8012B7047431AAD
:1004100028BF9A427FF6B6AF10441144032A40F237
:10042000268010F0030F1EBF11F8013D521E00F888
:10043000013D10F0030F7FF4F6AF11F0030300F05D
:100440009780083AC0F00B8051F8043D083A51F803
:1004500004CD40F8043D40F804CDFFF7F3BF121D72
:100460005CBF51F8043D40F8043DAFF30080D20773
:1004700024BF11F8013D11F801CD48BF11F8012C3E
:1004800024BF00F8013D00F801CD48BF00F8012C61
:10049000704710B5203AC0F00B80B1E81850A0E8C2
:1004A0001850B1E81850A0E81850203ABFF4F5AF42
:1004B0005FEA027C24BFB1E81850A0E8185044BF9E
:1004C00018C918C0BDE810405FEA827C24BF51F80B
:1004D000043B40F8043B08BF7047D20728BF31F8FF
:1004E000023B48BF11F8012B28BF20F8023B48BF50
:1004F00000F8012B70474FF0000200B513469446F8
:100500009646203922BFA0E80C50A0E80C50B1F16B
:100510002001BFF4F7AF090728BFA0E80C5048BF7F
:100520000CC05DF804EB890028BF40F8042B08BF1D
:10053000704748BF20F8022B11F0804F18BF00F819
:10054000012B7047704770477047431A28BF9A4283
:100550007FF69FAF1044114410F0030F1EBF11F837
:10056000013D521E00F8013D10F0030F7FF4F6AF7D
:10057000103AC0F00A8010B531E9185020E918503F
:10058000103ABFF4F9AFBDE81040530724BF31E97A
:10059000081020E9081044BF51F8043D40F8043D1C
:1005A00012F0030F08BF7047D20728BF31F8023D91
:1005B00048BF11F8012C28BF20F8023D48BF00F8C1
:1005C000012C7047754600F02BF8AE4605006946D1
:1005D000534620F00700854618B020B5FFF748FEC7
:1005E000BDE820404FF000064FF000074FF0000834
:1005F0004FF0000BAC46ACE8C009ACE8C009ACE871
:10060000C009ACE8C00921F007018D46704710B55C
:100610000446AFF300802046BDE81040FFF713BE4C
:10062000004870471000002001491820ABBEFEE7CB
:100630002600020070470000FEE7000070B582B09F
:1006400040F21014C2F20004206004204221002273
:1006500002F012FB606001200A21002202F00CFB74
:100660006168A060B1B300283ED040F2357000262A
:100670000325C0F600002CA14FF480720023CDE9C1
:10068000005602F0ABFE012838D141F6F5100225E4
:10069000C0F6000026A14FF480720023CDE9005679
:1006A00002F09CFE012833D1002001F0C1F954F87A
:1006B0000C0B4022214600F0BBFD002832D04FF049
:1006C000500080F31188BFF36F8FBFF34F8F00BFCF
:1006D000FEE700BF4FF0500080F31188BFF36F8F2B
:1006E000BFF34F8FFEE700BF4FF0500080F311883B
:1006F000BFF36F8FBFF34F8FFEE700BF4FF0500087
:1007000080F31188BFF36F8FBFF34F8FFEE700BFF9
:100710004FF0500080F31188BFF36F8FBFF34F8FFE
:10072000FEE700BF02B070BD647231365F727800C0
:100730006C65640098B00DF10C0A40F210170AF1D4
:1007400001090024C2F200070DF11E060DF1020896
:10075000786831464FF0FF3202F0D2FC0128F7D121
:10076000BDF85EB0BBF1000FF2D000250BE000BF7A
:100770005046494611221124FFF749FE01351FFA60
:100780008BF08542E4D2E1B20134705DE2B2122A0C
:100790000AF80100F2D39DF80C009DF80D1061F3EA
:1007A0000A20A0F1C802B2F5C86FE1D89DF80E206A
:1007B000C90862F34A11A1F1C803B3F5C86FD7D8CD
:1007C0009DF80F309C009DF8103044EA921263F3BC
:1007D0008A22A2F1C804B4F5C86FC9D89DF811E007
:1007E0005B086EF3CA13A3F1C804B4F5C86FBFD891
:1007F000CEF3011CBCF1000FBAD0BEF1400FB7D34D
:10080000A0F58060ADF80200A1F58060ADF80400AD
:10081000A2F58060ADF80600A3F58060ADF8080091
:10082000B8684FEA9E144146002202238DF80AC0A0
:100830008DF80B40002402F05FFABDF85EB09DE732
:100840007047000072B600BFFEE7000070B5866D0D
:10085000044600F02BF994F83510022928D10546FA
:100860002068216C026822F016020260426922F0C0
:100870008002426109B9A16C19B1016821F0080137
:100880000160016821F00101016000BF206800687B
:10089000C00715D000F00AF9401B0628F6D3202027
:1008A0006065032084F83500002184F8341070BDA1
:1008B000802060650120002184F8341070BD00BFE5
:1008C000E06D3F2101FA00F0B060012084F83500AE
:1008D0000020002184F8341070BD000090F835101D
:1008E000022909D1052180F835100068016821F03E
:1008F000010101600020704780214165012070479F
:100900002DE9F04F83B000F1200200F13E4741F69F
:100910000045009207F1FF77C4F2020508224FEA72
:10092000B726A84208BF072200254FF000084FF065
:100930000009072E38BF4FEAB72201920AE000BF34
:1009400009F1010908F10208B9F1100F05F10405D8
:1009500000F0A2800F68012202FA09FE17EA0E0ACF
:10096000EED0D1F804C003220CF003077E1E02FA79
:1009700008F4012E6FEA040B12D88468CE6804EAEA
:100980000B0406FA08F634438460446824EA0E0631
:10099000CCF3001404FA09F42643466004E000BFD7
:1009A000032F01D103271EE0C6688C6806EA0B06F8
:1009B00004FA08F42643022FC66014D16FF0030234
:1009C000009E02EA590756F807C005F01C040F22E2
:1009D0000B69A2402CEA0202A3401A43F251D1F85B
:1009E00004C00CF00307026807FA08F302EA0B02DE
:1009F0001A431CF4403F0260A2D0002243F6440395
:100A00000292C4F202031A6843F6004442F48042A0
:100A10001A601A68C4F2010402F480420292029A37
:100A200029F003024FF6084C2244CFF6FF7C52F81F
:100A30000C3005F00C070F26BE40B343019E06FAAA
:100A400007F73B4342F80C30A2684B6842EA0A07BA
:100A500043F60C4CDE0258BF22EA0A07A760C4F234
:100A6000010CDCF800209E0242EA0A0758BF22EA85
:100A70000A07CCF8007062689E0342EA0A0758BF72
:100A800022EA0A0767602268DB0342EA0A0758BFC6
:100A900022EA0A07276053E703B0BDE8F08F0000A1
:100AA000002A08BF090481617047000043F65C60BA
:100AB000C2F200000068704740F2000043F65C613B
:100AC000C2F20000C2F2000100780A681044086017
:100AD0007047000080B543F60040C4F20200016890
:100AE00041F400710160016841F4806101600168B6
:100AF00041F480710160032000F08CF80F2000F0B9
:100B000005F800F027F8002080BD000070B540F225
:100B10000006C2F2000640F208013278C2F200017B
:100B20004FF47A730968B3FBF2F20446B1FBF2F1B9
:100B3000084600F067FB0F2C4FF0010508D838B9C4
:100B40004FF0FF3021460022002500F037F8746096
:100B5000284670BD82B0002043F640010190C4F2E7
:100B600002014A6842F480424A604A6802F48042C4
:100B70000192019A00900868002240F080500860BD
:100B800008680F2100F08050009000986FF001007D
:100B900002B000F013B80000002848BF704700F012
:100BA0001F01012202FA01F11C2202EAD0004EF2DA
:100BB0000012CEF2000281507047000010B54EF6D0
:100BC0000C5CCEF2000CDCF80030C3F3022E8EF089
:100BD0000704042C28BF0424BEF103034FF0FF3E9A
:100BE0000EFA04F438BF0023A14399400EFA03F330
:100BF0009A43114300F00F0200F160430901043AE7
:100C000003F564436244002848BF02F10C031970E5
:100C100010BD00004EF60C51CEF200010A684FF6EE
:100C2000FF031A4060F30A2242F0806040F0FD703A
:100C300008607047002804BF012070472DE9F0418B
:100C400043F60808C4F202080446D8F8F8030D4633
:100C500000F00700814207D988F8F853D8F8F80364
:100C600000F00700A84277D12068810717D5410717
:100C700005D5D8F8001041F4E051C8F8001001077C
:100C800005D5D8F8001041F46041C8F80010D8F834
:100C90000010A26821F0F0011143C8F80010C0074D
:100CA00040D1D8F8F80300F00700854207D288F851
:100CB000F853D8F8F80300F00700A8424CD1206898
:100CC000410707D5D8F80010E26821F4E05111433C
:100CD000C8F80010000708D5D8F80000216920F4F2
:100CE000604040EAC100C8F8000000F07DF8D8F884
:100CF000001043F60402C1F30311C0F60002515C78
:100D000040F2080220FA01F140F20400C2F20000B1
:100D10000068C2F200021160FFF7F8FE0020BDE893
:100D2000F08100BF6068811E022907D258F8081CB4
:100D300089015CBF0120BDE8F08111E0012807D1E5
:100D400058F8081C89035CBF0120BDE8F08107E06A
:100D500058F8081C890703D40120BDE8F08100BFC2
:100D6000D8F8001021F003010843C8F80000FFF78D
:100D70009DFE064641F28837D8F80000616800F011
:100D80000C00B0EB810F8CD0FFF790FE801BB842B7
:100D9000F2D90320BDE8F08140F2080043F60801D3
:100DA000C2F20000C4F202010068096843F61402AE
:100DB000C1F38221C0F60002515CC84070470000B8
:100DC00040F2080043F60801C2F20000C4F202013A
:100DD0000068096843F61402C1F34231C0F600020C
:100DE000515CC8407047000010B543F60404C4F2DB
:100DF00002046168C1F3810142F20040C0F2F400D4
:100E0000DFE801F002040A0210BD00BF47F640000F
:100E1000C0F27D1010BD00BF206821682368490220
:100E200047F64001C0F27D1100F03F02C3F3881085
:100E30005CBF42F20041C0F2F401A1FB00010023BB
:100E4000FFF728FA21680222C1F3014102EB4101B8
:100E5000B0FBF1F010BD0000002804BF0120704776
:100E60002DE9F04182B00446007843F60006C00741
:100E7000C4F202060CD0B06800F00C00042840F068
:100E800081803068800303D56068002800F06881A5
:100E9000207880071BD5B06810F00C0F09D0B0681F
:100EA00000F00C00082840F087807068400200F1D4
:100EB00083803068800703D5E068012840F05081C6
:100EC0003068216920F0F80040EAC10030602078E5
:100ED000000713D4207840072AD4A569002D00F01C
:100EE0003A81B06800F00C00082840F0A580012D80
:100EF00040F00E81012002B0BDE8F0816069002859
:100F000000F082800020C4F247200121C0F8801E3A
:100F1000FFF7CCFD054600BF706F8007DAD4FFF7FE
:100F2000C5FD401B0228F7D9032002B0BDE8F081BF
:100F3000306C5FEAC0080AD400200190306C40F0A9
:100F400080503064306C00F080500190019847F27E
:100F50000007C4F200073868C00547D4386840F479
:100F600080703860FFF7A2FD054600BF3868C005F5
:100F70003CD4FFF79BFD401B0228F7D9032002B0A9
:100F8000BDE8F081B06800F00C00082803D170685B
:100F900040023FF576AF61683068B1F5803F07D019
:100FA000B1F5A02F40F09A8040F480203060306886
:100FB00040F4803030609AE0E068002840F20000A1
:100FC000C4F247205CD001210160FFF76FFD0546A8
:100FD000306880073FF574AFFFF768FD401B0228BB
:100FE000F6D9032002B0BDE8F08100BFA168306FE0
:100FF000012905D0052955D140F004003067306F34
:1010000040F00100306756E00020C4F24720002184
:10101000C0F8801EFFF74AFD054600BF706F8007CD
:101020007FF558AFFFF742FD401B0228F6D9032099
:1010300002B0BDE8F08100BF0027C4F247270020BE
:101040003866FFF733FD022D05460DD1306880016B
:1010500040F18A80FFF72AFD401B02284FF0030071
:10106000F4D902B0BDE8F0813068800173D5FFF794
:101070001DFD401B02284FF00300F5D9F1E700BF2A
:1010800000210160FFF712FD054600BF30688007B0
:101090007FF51DAFFFF70AFD401B02284FF003004C
:1010A000F4D9DEE720F001003067306F002920F02E
:1010B000040030677AD0FFF7F9FC054641F2883723
:1010C000306F800700F18480FFF7F0FC401BB842CE
:1010D000F6D9032002B0BDE8F08100BF20F48030D3
:1010E00030603068002920F4802030607AD0FFF72B
:1010F000DDFC0546306880033FF5CAAEFFF7D6FC3D
:10110000401B6428F6D9032002B0BDE8F08100BF7F
:101110007068E16900F480028A4221D1216A00F0FE
:101120003F028A421CD147F6C071626A0140B1EBAE
:10113000821F15D1A16A4FF6FF73C903994300F4CA
:101140004032A1F580318A420AD1E16A00F0706034
:10115000B0EB016F04D1002002B0BDE8F08100BF08
:10116000012002B0BDE8F08104F11C052FCD084339
:1011700040EA8210D9034FF6FF729143A1F5803106
:1011800040EA05600843706001203866FFF78EFC76
:10119000044600BF30688001DDD4FFF787FC001BE8
:1011A00002284FF00300F5D95BE700BFFFF77EFC94
:1011B000054641F2883700BF306F800708D5FFF73A
:1011C00075FC401BB8424FF00300F5D949E700BF5A
:1011D000B8F1000F3FF581AE306C20F080503064E4
:1011E0007BE600BFFFF762FC054600BF3068800366
:1011F0007FF54EAEFFF75AFC401B64284FF003000A
:10120000F4D92EE7411E0020B0EB116F1CBF012066
:1012100070474EF21002CEF2000251604EF623519A
:10122000CEF20001F0230B7007219060116070472F
:1012300090F84230202B07D100294FF0010318BF4E
:10124000002A05D11846704702231846704700BF90
:1012500081B00123036300234363816222218285DD
:10126000C285436480F84210026901681AB1CA68F5
:1012700042F48072CA604A6942F001024A61CA6857
:1012800042F02002CA60026B012A31D10022009292
:101290000A68009249680091009900BF016851E80E
:1012A000031F026841F0100142E80313DBB101683B
:1012B00051E8031F026841F0100142E8031393B1A3
:1012C000016851E8031F026841F0100142E803136E
:1012D0004BB1016851E8031F026841F0100142E878
:1012E0000313002BDAD1002301B01846704700BF6A
:1012F000012301B0184670472DE9F04192B040F249
:101300001016C2F20006326800239042119328D1D1
:10131000746834B34020402928BF014606F10C050B
:10132000E8460F46404629463A46FFF7B2F811AA6A
:10133000204641460023ADF8407001F03DFE306884
:1013400029464022FFF774FF119850B14EF6045021
:10135000CEF200004FF080510160BFF34F8FBFF31A
:101360006F8F12B0BDE8F08170470000B0B582B059
:1013700001680A68CC684B6902F02F05202D04F043
:10138000200505D125B102B0BDE8B04000F0CEBCCB
:101390005FEA027C1EBF03F0010E04F4907313EBAE
:1013A0000E0341D1036BD50618D5012B16D114F0CD
:1013B000100313D0002201920A6801924A68019238
:1013C000019A496949064BD4818DC28DC38D002B8A
:1013D00018BF914240F0068202B0B0BD13062DD571
:1013E00014F080032AD090F84120212AF4D1826899
:1013F000B2F5805F03D10269002A00F07982026AA7
:10140000531C036212784A60C28C013A1304C284EE
:10141000E2D1C86820F08000C860C86840F0400091
:10142000C86002B0B0BD00BFD30718BF14F480730A
:1014300040F0E280530700F1E580EAE05206CBD5A8
:1014400014F04002C8D0CA6822F04002CA602021CD
:1014500080F8411002B0BDE8B04000F0C7BA00BF4C
:10146000C26B11684B68858D99B2002900F0B48079
:10147000A94280F0B180C385D169B1F5807F00F0C9
:10148000A080016851E8031F026821F4807142E8DE
:101490000313DBB1016851E8031F026821F4807176
:1014A00042E8031393B1016851E8031F026821F475
:1014B000807142E803134BB1016851E8031F0268D1
:1014C00021F4807142E80313002BDAD1016851E85E
:1014D000051F026821F0010142E80513BBB3016852
:1014E00051E8051F026821F0010142E8051373B3BA
:1014F000016851E8051F026821F0010142E8051367
:101500002BB3016851E8051F026821F0010142E890
:101510000513002BDAD11AE0016851E8051F0268B3
:1015200021F0400142E80513DBB1016851E8051FD5
:10153000026821F0400142E8051393B1016851E8C7
:10154000051F026821F0400142E805134BB1016814
:1015500051E8051F026821F0400142E80513002B05
:10156000DAD1202180F8421000210163016851E89E
:10157000031F026821F0100142E80313DBB1016888
:1015800051E8031F026821F0100142E8031393B1F0
:10159000016851E8031F026821F0100142E80313BB
:1015A0004BB1016851E8031F026821F0100142E8C5
:1015B0000313002BDAD1C16B04460846FFF746F946
:1015C000204602214163818DC28D891A89B202B001
:1015D000BDE8B040FFF790BE8D427FF4FDAED2690A
:1015E000B2F5807F7FF4F8AE0222426302B0BDE81C
:1015F000B040FFF781BE00BF436C43F0010343647A
:10160000530706D5BEF1000F03D0436C43F002032D
:101610004364930706D5BEF1000F03D0436C43F03B
:1016200004034364BCF1000F06D55EEA050303D052
:10163000436C43F008034364436C002B3FF4CCAE8F
:10164000920605D525B1044600F070FB21682046BE
:101650004969426C01F0400102F00802891800F06B
:10166000B98000BF016851E8031F026821F490713E
:1016700042E80313BBB3016851E8031F026821F479
:10168000907142E8031373B3016851E8031F0268C5
:1016900021F4907142E803132BB3016851E8031F52
:1016A000026821F4907142E80313002BDAD11AE0AA
:1016B000016851E8051F026821F0010142E80513A5
:1016C000DBB1016851E8051F026821F0010142E821
:1016D000051393B1016851E8051F026821F001016B
:1016E00042E805134BB1016851E8051F026821F07B
:1016F000010142E80513002BDAD1016B012924D145
:10170000016851E8031F026821F0100142E8031349
:10171000DBB1016851E8031F026821F0100142E8C3
:10172000031393B1016851E8031F026821F010010F
:1017300042E803134BB1016851E8031F026821F02E
:10174000100142E80313002BDAD1202180F8421067
:101750000021016301684969490640F1C3800168BD
:1017600051E8051F026821F0400142E80513DBB192
:10177000016851E8051F026821F0400142E80513A5
:1017800093B1016851E8051F026821F0400142E869
:1017900005134BB1016851E8051F026821F04001B3
:1017A00042E80513002BDAD1C16B002900F09A80C2
:1017B00041F62152C0F60002044608460A65FFF7CA
:1017C0008DF800283FF408AEE06B016D02B0BDE873
:1017D000B04008470446FFF7C7FD0020606402B030
:1017E000B0BD00BF891A00BF026852E8032F03682A
:1017F00022F4907243E80325BDB3026852E8032F38
:10180000036822F4907243E8032575B3026852E836
:10181000032F036822F4907243E803252DB3026876
:1018200052E8032F036822F4907243E80325002D49
:10183000DAD11AE0026852E8052F036822F00102AB
:1018400043E80525DDB1026852E8052F036822F060
:10185000010243E8052595B1026852E8052F0368A7
:1018600022F0010243E805254DB1026852E8052F38
:10187000036822F0010243E80525002DDAD1202279
:1018800080F8422000220263026852E8032F0368B6
:1018900022F0100243E80325DDB1026852E8032F6D
:1018A000036822F0100243E8032595B1026852E86C
:1018B000032F036822F0100243E803254DB10268AC
:1018C00052E8032F036822F0100243E80325002D9D
:1018D000DAD1022289B2426302B0BDE8B040FFF71C
:1018E0000BBD00BF02B0BDE8B040FFF73DBD00BF7B
:1018F000026A32F8023B6FF35F234B60026283E5BA
:10190000002804BF0120704710B5044690F841003C
:1019100028B9002084F84000204600F021F8242057
:1019200084F841002068C16821F40051C16020465C
:1019300000F07CFA2068016921F49041016141695D
:1019400021F02A014161C16841F40051C1600020C9
:101950002021606484F8411084F84210606310BD57
:1019600080B586B044F600010068C4F20001002290
:1019700088420592CDE903220292019202D006B07C
:1019800080BD00BF43F630000092C4F2020003693C
:1019900043F480230361036903F480230093009BD5
:1019A0000092036843F004030360006800F0040041
:1019B000009000984FF4406001900220CDE90202AF
:1019C000032004900720059001F5E03001A9FEF7FF
:1019D00097FF272005210022FFF7F0F82720FFF7C7
:1019E000DBF806B080BD00007047000070470000C3
:1019F000FEE7000084B00020002500F019F840F256
:101A00001016C2F200060DF1060400BFB0682146B0
:101A1000C82201F075FB9DF80E10CAB2042A28BF37
:101A20002946012818BF2946C8B200F001F8EDE7A1
:101A3000B0B50446013841F60045B0FA80F0C4F272
:101A40000205420928464FF48061FFF729F8A01EDD
:101A5000B0FA80F0420928464FF40061FFF720F801
:101A6000E01EB0FA80F0420928464FF48051BDE8EC
:101A7000B040FFF715B8000080B588B00E4802AF3F
:101A800001900DA000F1040E9EE80E50806987E8D9
:101A90000E50079001A8002100F060FA40F2841176
:101AA000C2F20001086040F28810C2F20000FEF7A6
:101AB000C5FD08B080BD00BF1C380008451C0008EB
:101AC0000000000000000000800000000000000096
:101AD0000000000070B586B0002543F63000059583
:101AE000CDE90355CDE901550095C4F20200016826
:101AF00041F6004441F0010101600168C4F20204B2
:101B000001F001010091009900950168002241F067
:101B10000401016001684FF4E05601F004010091F6
:101B200000990095016841F08001016000684FF460
:101B3000E05100F08000009000982046FEF7B0FFD2
:101B40000120CDE9020501A9204601960495FEF782
:101B5000D7FE06B070BD000010B540F2881044F604
:101B6000000C48F2A062C2F20000C4F2000CC0F205
:101B700001024FF4805300214FF4806E0C24C0E921
:101B800000C2C0E90231C0E904E4C0E90611FFF770
:101B9000B7FE002808BF10BDBDE81040FEF752BEDA
:101BA000FEE70000FEE7000000000000000000006B
:101BB000EFF30980BFF36F8F154B1A681EF0100FFB
:101BC00008BF20ED108A20E9F04F10602DE90900D0
:101BD0004FF0500080F31188BFF34F8FBFF36F8F2A
:101BE00000F036FF4FF0000080F31188BDE80900D7
:101BF00019680868B0E8F04F1EF0100F08BFB0EC8D
:101C0000108A80F30988BFF36F8F704700BF00BF51
:101C10007000002000000000000000000000000034
:101C2000074B19680868B0E8F04F80F30988BFF3E4
:101C30006F8F4FF0000080F31188704700BF00BF26
:101C400070000020012000F07BF9FBE780B5FEF773
:101C500033FF01F02FFC012808BF80BDBDE88040A4
:101C600000F0F2BF70B592B006AC20463021FEF70E
:101C700042FC002543F640000595CDE90355CDE92A
:101C800001550095C4F202000168022641F080511E
:101C90000160006800F080500090009847F200005A
:101CA0000095C4F20000016841F4804101600068C1
:101CB00000F48040009000980120099010200A90C4
:101CC00008200E90A820CDE90F0604201190204690
:101CD0000696CDE90C65FFF7BFF818B172B600BFE4
:101CE000FEE700BF0F20CDE901064FF4A05004909D
:101CF0004FF48050059001A805210395FEF79AFF47
:101D000010B172B6FEE700BF12B070BD4EF688503B
:101D1000CEF20000016841F47001016070470000DC
:101D2000806B0021C185FFF71FBB000081B090F8D8
:101D30004210222921D183680246B3F5805F09D180
:101D400052F8281F52F8183C002B63D003685B68D8
:101D50000AE000BF52F8281F13B90369002BF5D021
:101D600003685B6803F07F030B7011680131116039
:101D7000C18D01390A04C18502D001B0704700BF8E
:101D80000168CA6822F02002CA60CA6822F4807220
:101D9000CA604A6922F001024A61202180F842109B
:101DA00000214163026B012A3CD10163016851E8C3
:101DB000031F026821F0100142E80313DBB1016840
:101DC00051E8031F026821F0100142E8031393B1A8
:101DD000016851E8031F026821F0100142E8031373
:101DE0004BB1016851E8031F026821F0100142E87D
:101DF0000313002BDAD101680A68D20606D5002247
:101E000000920A680092496800910099818D01B0A2
:101E1000FFF772BA026852686FF35F2221F8022B53
:101E20008162A5E701B0FFF7DFBD0000B0B5044651
:101E3000006804F108030ECB0569194325F44055E9
:101E40002A4302616269E3691143C268194349F296
:101E50000C639A431143C1604169A26921F4407146
:101E600041F20043114340F48062C4F201039A42FC
:101E7000416103D1FEF7A4FF02E000BFFEF78CFF33
:101E8000E1694FF69C7563681922C0F6FF75B1F5DC
:101E9000004FA0FB02011FD15A00DB0FFEF7FAF939
:101EA00048F21F51C5F2EB11A0FB01235A0905F1BD
:101EB000805302FB0300322303EBC000A0FB0101AF
:101EC0004FF4F87000EA111000EB0210C1F3421158
:101ED000084421688860B0BD9A009B0FFEF7DAF9CC
:101EE00048F21F51C5F2EB11A0FB01235A0902FB76
:101EF0000500322303EB0010A0FB0101F02000EAF3
:101F0000511000EB0210C1F34311084421688860AE
:101F1000B0BD000040F28810C2F20000FFF726BA00
:101F2000FEE70000FEF7D6FDFFF79CFEFFF7D2FDAF
:101F3000FFF712FEFFF7A0FD00F00AF8FEE7000031
:101F400080B5012898BF012000F096FC002080BDDC
:101F500080B500F00FFD002080BD0000B0B584B05A
:101F600043698E4693B1846984B10589D0E9001C28
:101F7000026928B2843D18BFC51CCDE900536046F4
:101F80007346029401F05AFA04B0B0BD0589D0E955
:101F90000013028A28B2843D18BFC51C03AC184642
:101FA0007346CDE9005401F019FA0399012818BFCE
:101FB0000021084604B0B0BDF0B581B040F2700415
:101FC000C2F200040E46676A21680546081D00F04B
:101FD000E3FA18B1681C0CD016E000BF206801219C
:101FE000C06A626801FA00F022EA00006060681CC2
:101FF0000AD14EB154F8500B011D204601B0BDE886
:10200000F04000F02BBB00BF2068ED19456007D3FE
:10201000606B2168043101B0BDE8F04000F0ECBA1B
:10202000206B2168043100F0E7FA206A854238BF4E
:10203000256201B0F0BD00002DE9F041044600F03A
:1020400025FB40F27006C2F20006306940F2D0155E
:10205000013030613068C2F2000548B17069002873
:1020600040D13068E16AC06A884298BF346039E084
:1020700034603069012835D1284600F0ADFA05F109
:10208000140000F0A9FA05F1280000F0A5FA05F106
:102090003C0000F0A1FA05F1500000F09DFA05F1B6
:1020A000640000F099FA05F1780000F095FA40F22A
:1020B0005C18C2F20008404600F08EFA08F11407DE
:1020C000384600F089FA06F1640000F085FA06F15E
:1020D0003C0000F081FA06F1500000F07DFAC6F8ED
:1020E000308077637068B16801220131B160E16AC4
:1020F0008A401043706001EB810005EB8000211DD8
:1021000000F0ACFA00F0E6FA706988B13068E16A74
:10211000C06A884228BFBDE8F0814EF60450CEF276
:1021200000004FF080510160BFF34F8FBFF36F8FFE
:10213000BDE8F08140F2700540F2D0164EF604582A
:10214000C2F20005C2F20006CEF200084FF080573E
:1021500003E000BF204600F0D5FAE868D0B100F0F7
:1021600095FAA86CC468201D00F016FA2869013899
:102170002861E8680138E86000F0ACFA94F8510092
:102180000228EAD00128E5D070B9206B00F0BAFA35
:10219000E0E700BF30680228DFD3C8F80070BFF363
:1021A0004F8FBFF36F8FD8E74FF0500080F3118847
:1021B000BFF36F8FBFF34F8FFEE700002DE9F047AD
:1021C000DDE909878246386B089C00EB8200043801
:1021D0009946002920F0070644D0087887F8340093
:1021E000D8B3487887F83500B8B3887887F83600D0
:1021F00098B3C87887F8370078B3087987F838003B
:1022000058B3487987F8390038B3887987F83A00A5
:1022100018B3C87987F83B00F8B1087A87F83C0012
:10222000D8B1487A87F83D00B8B1887A87F83E007F
:1022300098B1C87A87F83F0078B1087B87F84000EA
:1022400058B1487B87F8410038B1887B87F8420055
:1022500000281CBFC87B87F84300002087F8430094
:1022600003E000BF002087F834000025381D062C4D
:1022700028BF0624FC62C7E9114500F0B9F907F14F
:10228000180000F0B5F984F00700B86130465146F7
:102290004A463F617F62FD6487F8505000F06AF95A
:1022A000B8F1000F386018BFC8F80070BDE8F087BB
:1022B00008480068006880F308884FF0000080F349
:1022C000148862B661B6BFF34F8FBFF36F8F00DF24
:1022D00000BF000008ED00E081B00020009040F257
:1022E0000C00C2F2000000684FF0500181F3118829
:1022F000BFF36F8FBFF34F8F013007D0FEE700BFF2
:10230000009830B9009820B9009810B900980028BA
:10231000F6D001B070470000F0B581B0044600F07F
:10232000B5F994F94560012E0FDB04F1240500BFD7
:10233000286850B1284601F0A9F9002818BF00F01C
:10234000F5FAF0B2013E0128F2D8FF2684F8456084
:1023500000F0C0F900F09AF994F94470012F0EDBF7
:1023600004F11005286850B1284601F08FF90028C3
:1023700018BF00F0DBFAF8B2013F0128F2D884F868
:10238000446001B0BDE8F04000F0A4B970B5044667
:1023900000F056FB40F2E80CC2F2000CDCF804201E
:1023A00012B19CF8000020E040F25C20C2F2000074
:1023B000420700F5705200F1070122F0070218BF32
:1023C00021F007000021A2F10803CCE90601CCF8B6
:1023D000043042E90211DCF80420191AC0E9002196
:1023E0000120CCE902118CF800000025002C4FF0F0
:1023F000000148BF01215AD0084058D124F00700FD
:1024000000F11003600708BF04F10803DCF80800BE
:10241000591E81424BD2604650F818EFDEF8045046
:102420009D422CD2DEF80010C1B174464D689D4229
:1024300018D20E68B6B175689D4217D23068A8B13F
:1024400045689D4216D20468A4B165689D4215D2C4
:102450002168A6460029E9D111E000BF0CF118005F
:102460000DE000BF8E46204609E000BFB646084694
:1024700005E000BF8646304601E000BFA64696450F
:1024800014D00268DEF80040E91A112904604FD325
:102490000EEB0305680719D04FF0500080F3118848
:1024A000BFF36F8FBFF34F8FFEE700BF002501F032
:1024B00027F968075CD04FF0500080F31188BFF314
:1024C0006F8FBFF34F8F00BFFEE700BF0CF1180006
:1024D0006960CEF8043000BF0168A9420AD20868DA
:1024E000A8420BD20168A94204D208680B46A84250
:1024F000F2D304E00346084601E000BF0B465C68E7
:1025000069681E19AE4202D121441D4659606C18FB
:10251000844201D0044607E0DCF80440A04203D026
:10252000D0E9004008446860AB422C6018BF1D60D1
:10253000DEF80400DCE9021302F10805091A9942E9
:10254000CCF8081038BFCCF80C109CF8001000290B
:102550004FF0000118BF40F00040CEE90010DCF859
:1025600010000130CCF8100001F0CAF86807A2D1C1
:10257000284670BD034642F2D92021F00101C0F681
:1025800000004FF0807C03E903106FF00201A3F11B
:10259000440043E9091270470169D0E90132D1F8DA
:1025A00004C09A608445536008BF4A6000220261FB
:1025B00008680138086008687047000044F260034A
:1025C000C2F20003036043F66060C2F200000860DC
:1025D00080201060704700004FF0FF31024642F843
:1025E000081F00214260C0E903220160704700001B
:1025F000002101617047000010B5D1F800C01CF146
:10260000010213D000F1080462681368634511D811
:1026100053681C68644511D85A68146864450FD81B
:1026200054682368A6466345EED90BE00269D2F8E8
:1026300004E007E09646224604E000BF9E4601E023
:1026400096461A46C1F804E0CEF808108A60516038
:10265000086101680131016010BD0000D0F800C0C0
:10266000436808619A68C1E90132516099600CF1D0
:102670000101016070470000DFF80C00016841F4BF
:10268000700101607047000088ED00E04FF05000DD
:1026900080F31188BFF36F8FBFF34F8F40F20C00B0
:1026A000C2F2000001684A1C026009B1704700BF15
:1026B0004EF60450CEF200000068000608BF7047D6
:1026C0004FF0500080F31188BFF36F8FBFF34F8F2F
:1026D000FEE7000040F20C00C2F20000016839B1D0
:1026E0000139016018BF7047002080F311887047DE
:1026F0004FF0500080F31188BFF36F8FBFF34F8FFF
:10270000FEE7000070B5002808BF70BD40F2E80485
:10271000C2F20004217850F8042C002918BF4FF0B1
:10272000004111420ED0A0F108052B68A3B14FF073
:10273000500080F31188BFF36F8FBFF34F8F00BF3E
:10274000FEE700BF4FF0500080F31188BFF36F8F9A
:10275000BFF34F8FFEE700BF22EA010140F8041CDF
:10276000064600F06DF956F8040CA1680144A1601A
:1027700004F118010B68AB420AD21968A94213D2BE
:102780000B68AB4204D219681A46A942F2D301E0A1
:102790000A4619465368D618AE420AD02B188B4207
:1027A0000DD00B4612E000BF1A465368D618AE4251
:1027B000F4D11844154650602B188B42F1D1636850
:1027C000994203D0D1E9003108446860AA422B60E5
:1027D00018BF1560606901306061BDE8704000F0AD
:1027E0008FBF00004EF21000CEF200000021016009
:1027F000816040F20801C2F20001096844F6D35238
:10280000C1F26202A1FB02124FF0FF3101EB921103
:10281000416007210160704740F20810EFF3058125
:102820001029C2F2000011D34EF2F032CEF20002B3
:10283000895C0278914209D24FF0500080F31188F0
:10284000BFF36F8FBFF34F8FFEE700BF4EF60C5103
:10285000CEF200010968406801F4E061814298BF4E
:1028600070474FF0500080F31188BFF36F8FBFF3B4
:102870004F8F00BFFEE7000070B500283FD040F248
:102880007004C2F20004A16951B14FF0500080F30E
:102890001188BFF36F8FBFF34F8F00BFFEE700BFFC
:1028A0000546A0690130A061666A20680430FFF720
:1028B00073FE48B12068AD19456012D3606B216882
:1028C0000431FFF799FE15E020680121C06A6268B3
:1028D00001FA00F022EA000060602068AD1945604E
:1028E000ECD2206B21680431FFF786FE206A854216
:1028F00038BF256200F004FF002818BF70BD4EF6F7
:102900000450CEF200004FF080510160BFF34F8FB2
:10291000BFF36F8F70BD000040F27001C2F2000182
:102920008A6B0260496A41607047000040F27000A3
:10293000C2F20000012181627047000080B110B531
:102940000C4640F27001C2F2000109681831FFF72D
:1029500053FE20460121BDE81040FFF72DBB00BF0C
:102960004FF0500080F31188BFF36F8FBFF34F8F8C
:10297000FEE70000B0B588B00020CDE9050006A84C
:1029800005A904AAFFF71AFE0598B8B3069C002C07
:102990003ED05421049A07910799542942D10799AE
:1029A0002063022084F8510007A80025CDE90050DB
:1029B00042F23510C0F600001FA100230294FFF779
:1029C000FDFB2046FFF738FB079940F27000C2F28A
:1029D0000000C16179B14FF0500181F31188BFF35C
:1029E0006F8FBFF34F8F4FF0FF31016201214161C3
:1029F000456200F065F808B0B0BD00BF4FF0500070
:102A000080F31188BFF36F8FBFF34F8FFEE700BFD6
:102A10004FF0500080F31188BFF36F8FBFF34F8FDB
:102A2000FEE700BF4FF0500080F31188BFF36F8FB7
:102A3000BFF34F8FFEE700BF49444C450000000044
:102A400040F27000C2F2000081690131816170477B
:102A500040F27000C2F20000816900291EBF01210E
:102A600081627047002181624168B1FA81F1C9B287
:102A7000C1F11F0140F2D01201EB8101C2F200024C
:102A800052F8213063B102EB8102516802F1080370
:102A90004968994251600DD0C9680160704700BF14
:102AA0004FF0500080F31188BFF36F8FBFF34F8F4B
:102AB000FEE700BF49685160C968016070470000C7
:102AC000B0B584B04EF2004CCEF2000C4CF2702146
:102AD000C4F20F11DCF800294B1C9A420AD14FF0C6
:102AE000500080F31188BFF36F8FBFF34F8F00BF8B
:102AF000FEE700BFDCF800298A4209D14FF0500000
:102B000080F31188BFF36F8FBFF34F8FFEE700BFD5
:102B10009CF800100291FF218CF800109CF8001026
:102B20008DF807109DF8071001F0500240F20811CF
:102B3000C2F200010A7007224A609DF90720B2F133
:102B4000FF3F6BDC032200BFD31C4B609DF80700E6
:102B500040008DF807009DF90700B0F1FF3F24DC2D
:102B6000931C4B609DF8070040008DF807009DF90D
:102B70000700B0F1FF3F18DC531C4B609DF80700C5
:102B800040008DF807009DF90700B0F1FF3F0CDC15
:102B90004A609DF80700043A40008DF807009DF94F
:102BA0000700B0F1FF3FCFDD131D032B36D14FF4EB
:102BB0004070486002988CF80000DCF8200940F46E
:102BC0007000CCF82009DCF8200940F07040CCF807
:102BD0002009FFF707FE40F20C04C2F200040025B2
:102BE0002560FFF749FD4EF63470CEF20000016813
:102BF00041F040410160FFF75BFBFFF729FF0395C0
:102C000020684FF0500181F31188BFF36F8FBFF33D
:102C10004F8F013012D000BFFEE700BF4FF05000D1
:102C200080F31188BFF36F8FBFF34F8FFEE700BFB4
:102C3000039830B9039820B9039810B90398002875
:102C4000F6D0002004B0B0BD80B54FF0500080F346
:102C50001188BFF36F8FBFF34F8F00F03BFC30B193
:102C60004EF60450CEF200004FF08051016000207B
:102C700080F3118880BD0000A0B3F0B581B0054697
:102C8000484348300E46FFF781FB044630B3002727
:102C9000204684F84670002E18BF48302060C4E9F2
:102CA0000F56FFF7F3FC2068D4E90F12A76302FB6D
:102CB0000103013901FB0201C4E90103FF20E160C6
:102CC00084F8440084F8450004F11000FFF784FC08
:102CD00004F12400FFF780FCFFF7FCFC204601B064
:102CE000F0BD00BF4FF0500080F31188BFF36F8F2D
:102CF000BFF34F8FFEE700002DE9F04F83B0029243
:102D0000C0B11D460446F9B1022D02D1E06B012885
:102D10005CD116460F4600F0CDFB18BB16B34FF042
:102D2000500080F31188BFF36F8FBFF34F8F00BF48
:102D3000FEE700BF4FF0500080F31188BFF36F8FA4
:102D4000BFF34F8FFEE700BF206C0028DCD04FF0B0
:102D5000500080F31188BFF36F8FBFF34F8F00BF18
:102D6000FEE700BFFFF792FCA06B022D65D0E16B80
:102D7000884262D30298002800F018816846FFF765
:102D8000CBFDFFF7A7FCFFF75BFEFFF77FFC94F896
:102D90004400FF2804BF002084F8440094F8450054
:102DA000FF2804BF002084F84500FFF793FC684625
:102DB00002A900F0C5FA98B12046FFF7ADFA00F07D
:102DC0009FFC002003B0BDE8F08F00BF4FF0500023
:102DD00080F31188BFF36F8FBFF34F8FFEE700BF03
:102DE00004F11008FFF752FCD4F83890E66BFFF7B7
:102DF00071FCB14516D102994046FFF79FFD204670
:102E0000FFF78AFA00F07CFC88B94EF60450CEF247
:102E100000004FF080510160BFF34F8FBFF36F8F01
:102E200005E000BF2046FFF777FA00F069FCFFF7E6
:102E30002DFCA06BE16B884266D2A66B226CDAB1E6
:102E400039462DB3E068FDF79DFAE168206C2268F1
:102E5000091A9142E16003D2A16840420844E0604F
:102E6000A81EB0FA80F040093146002E18BF01219B
:102E70000840361A18E000BF2068A8B9A06800F022
:102E8000ADFB0021B0FA80F0A16040090DE000BF69
:102E90006068FDF777FAD4E90101226C104488429A
:102EA000606001D3206860600120711CA16354F848
:102EB000241FA9B1204600F0E9FB50B14EF60450A2
:102EC000CEF200004FF080510160BFF34F8FBFF38F
:102ED0006F8FFFF7FFFB012003B0BDE8F08F00BF4D
:102EE0000028F6D14EF60450CEF200004FF080518B
:102EF0000160BFF34F8FBFF36F8FFFF7EBFB012034
:102F000003B0BDE8F08F00BFE94602AE0CE000BFA1
:102F10002046FFF701FA00F0F3FBFFF7B7FBA06BC9
:102F2000E16B8842FFF489AF029800283ED0FFF79A
:102F3000D1FBFFF785FDFFF7A9FB94F84400FF28BC
:102F400004BF002084F8440094F84500FF2804BF23
:102F5000002084F84500FFF7BDFB4846314600F0ED
:102F6000EFF900287FF428AFFFF790FBD4F838A0E2
:102F7000D4F83CB0FFF7AEFBDA45C9D10299404620
:102F8000FFF7DCFC2046FFF7C7F900F0B9FB00288B
:102F9000C3D14EF60450CEF200004FF080510160D4
:102FA000BFF34F8FBFF36F8FB7E700BFFFF792FB01
:102FB000002003B0BDE8F08F2DE9F04700B31D46B7
:102FC000044639B3022D02D1E06B012852D10E46DE
:102FD0009046FFF721FCEFF3118A4FF0500080F389
:102FE0001188BFF36F8FBFF34F8FA06B022D1FD0DF
:102FF000E16B88421CD300208AF31188BDE8F0877A
:103000004FF0500080F31188BFF36F8FBFF34F8FE5
:10301000FEE700BF206C0028D4D04FF0500080F3B2
:103020001188BFF36F8FBFF34F8F00BFFEE700BF64
:1030300094F84590A06BA76B226C2AB331465DB320
:10304000E068FDF79FF9E168206C2268091A914257
:10305000E16003D2A16840420844E060A81EB0FAD3
:1030600080F040093946002F18BF012108403F1A5F
:103070001EE000BF4FF0500080F31188BFF36F8F48
:10308000BFF34F8FFEE700BF206888B9A06800F04B
:10309000A5FA0020A0600BE06068FDF773F9D4E9A1
:1030A0000101226C10448842606001D32068606096
:1030B000781CB9F1FF0FA06312D154F8240F98B116
:1030C000204600F0E3FA0146B8F1000F4FF001008E
:1030D00018BF00290ED18AF31188BDE8F08700BF20
:1030E00009F1010084F8450001208AF31188BDE848
:1030F000F08700BFC8F800008AF31188BDE8F087A8
:103100002DE9F04F83B0029290B115460446002994
:1031100048D00E4600F0CEF9A0B99DB14FF0500056
:1031200080F31188BFF36F8FBFF34F8FFEE700BFAF
:103130004FF0500080F31188BFF36F8FBFF34F8FB4
:10314000FEE700BFFFF7A2FAD4F838A0BAF1000FEB
:1031500036D0226C52B1D4E9023130461144E160DC
:10316000994224BF2168E160FDF70CF9AAF1010042
:10317000A06354F8100F70B1204600F087FA50B1E8
:103180004EF60450CEF200004FF080510160BFF3C4
:103190004F8FBFF36F8F0124FFF79CFA204603B0D7
:1031A000BDE8F08F206C0028B3D04FF0500080F3C2
:1031B0001188BFF36F8FBFF34F8F00BFFEE700BFD3
:1031C0000298002800F0B4806846FFF7A5FBFFF7DF
:1031D00081FAFFF735FCFFF759FA94F8440004F13F
:1031E0002408FF2804BF002084F8440094F8450018
:1031F000FF2804BF002084F84500FFF76BFA6846FB
:1032000002A900F09DF878B12046FFF785F800F09C
:1032100077FAFFF73BFAA56BFFF75CFA2DBB0024AA
:10322000204603B0BDE8F08FFFF730FAA56BFFF73B
:1032300051FA2DB12046FFF76FF800F061FA14E063
:1032400002994046FFF77AFB2046FFF765F800F049
:1032500057FA50B94EF60450CEF200004FF08051AC
:103260000160BFF34F8FBFF36F8FFFF70FFAD4F8F2
:1032700038A0BAF1000F7FF46CAF4FF00009EB46B5
:1032800002AF13E02046FFF747F800F039FAFFF7E6
:10329000FDF9A56BFFF71EFA002DC0D0FFF7F6F978
:1032A000D4F838A0BAF1000F7FF453AF0298002889
:1032B0003ED0FFF70FFAFFF7C3FBFFF7E7F994F8EB
:1032C0004400FF2808BF84F8449094F84500FF2884
:1032D00008BF84F84590FFF7FDF95846394600F0DD
:1032E0002FF80028CED1FFF7D1F9A56BFFF7F2F93F
:1032F00035B12046FFF710F800F002FACEE700BF24
:1033000002994046FFF71AFB2046FFF705F800F048
:10331000F7F90028C2D14EF60450CEF200004FF06B
:1033200080510160BFF34F8FBFF36F8FB6E700BFCF
:103330000024FFF7CFF9204603B0BDE8F08F00006E
:10334000B0B548B30C4689B30546FFF79FF940F284
:10335000700CC2F2000CDCF824302268501C2FD014
:10336000AE46D5E90050DCF83810A94201D08342BE
:103370002ED2181A824229D9101A2060DCF838009F
:103380000024CEF80000DCF82400CEF80400FFF79B
:10339000A1F92046B0BD00BF4FF0500080F3118866
:1033A000BFF36F8FBFF34F8FFEE700BF4FF05000AA
:1033B00080F31188BFF36F8FBFF34F8FFEE700BF1D
:1033C0000024FFF787F92046B0BD00BF0020206031
:1033D0000124FFF77FF92046B0BD00002DE9F04140
:1033E00084B007469000984615460E46FEF7CEFF7D
:1033F000F8B104465420FEF7C9FFB8B1DDE90A214F
:103400000023046380F85130CDE90021044638469A
:1034100031462A4643460294FEF7D0FE2046FEF788
:103420000BFE012004B0BDE8F08100BF2046FFF78D
:1034300069F94FF0FF3004B0BDE8F08170B586B097
:103440000B9CCCB10C9E0EB354250495049D542DB9
:1034500026D1049DDDF828C0022586F8515005AD1F
:103460003463CDE900C50296FEF7A8FE3046FEF7AC
:10347000E3FD059806B070BD4FF0500080F3118851
:10348000BFF36F8FBFF34F8FFEE700BF4FF05000C9
:1034900080F31188BFF36F8FBFF34F8FFEE700BF3C
:1034A0004FF0500080F31188BFF36F8FBFF34F8F41
:1034B000FEE7000040F27000C2F2000041690029FE
:1034C0000FBF01208069B0FA80F0400918BF4000AA
:1034D000704700002DE9F04740F27006C2F2000686
:1034E000B06928B1F06A0130F0620020BDE8F087D1
:1034F000706A10F1010AC6F824A020D3306B00686E
:1035000050B14FF0500080F31188BFF36F8FBFF3BD
:103510004F8F00BFFEE700BF306B716B316370638C
:10352000B06B0130B063306B006828B1306BC0689D
:10353000C068406802E000BF4FF0FF303062306A80
:1035400040F2D0188245C2F2000801D2002434E0D3
:10355000306B0024006868B34FF0010916E000BF2B
:10356000F86A716809FA00F2114300EB800071609B
:1035700008EB80002946FFF771F8F86A3168C96ADC
:10358000326B8842106828BF4C4698B1306BC068D7
:10359000C7683D4655F8040F82450DD32846FEF70F
:1035A000FBFFB86A0028DBD007F11800FEF7F4FF34
:1035B000D6E700BF4FF0FF3030623068C06A00EBE2
:1035C000800058F82000012888BF0124B06A002834
:1035D00018BF01242046BDE8F087000070B588B10F
:1035E00040F27005C2F20005296888420CD04FF005
:1035F000500080F31188BFF36F8FBFF34F8F00BF70
:10360000FEE700BF002070BD816CA9B30139816461
:103610004FF000012ED1C26A436C9A422AD0041D99
:1036200006462046FEF7B8FF002840F2D01031468B
:10363000C2F200000CD1CA6A02EB820350F82330B8
:1036400033B901236E6803FA02F226EA02026A60C5
:103650004A6CC2F10703CA628B6101216B68914019
:103660001943696002EB820100EB81002146FEF7FD
:10367000F5FF0121084670BD4FF0500080F311881E
:10368000BFF36F8FBFF34F8FFEE7000070B5C068C8
:10369000C5686DB105F118042046FEF77DFF40F2C4
:1036A0007006C2F20006B06960B106F164001BE06A
:1036B0004FF0500080F31188BFF36F8FBFF34F8F2F
:1036C000FEE700BF2C1D2046FEF766FFE86A0121D9
:1036D000726881401143716040F2D01100EB8000AC
:1036E000C2F2000101EB80002146FEF7B7FFE86A55
:1036F0003168C96A884292BF00200120B06270BD63
:103700002DE9F04140F27005C2F20005A86968B1E8
:10371000FEF7BCFFA8690138A861A86980B1002440
:10372000FEF7D8FF2046BDE8F08100BF4FF0500003
:1037300080F31188BFF36F8FBFF34F8FFEE700BF99
:1037400028690028EBD0686E78B340F2D0180126C3
:10375000C2F20008286FC76807F11800FEF71CFFC7
:103760003C1D2046FEF718FFF86A696806FA00F269
:10377000114300EB8000696008EB80002146FEF7F2
:103780006DFFF86A2968C96A884228BFAE62686E10
:103790000028DFD1286B006820B1286BC068C068A2
:1037A000406801E04FF0FF302862EC6A4CB101261E
:1037B000FFF790FE002818BFAE62013CF8D1002050
:1037C000E862A86A0028AAD04EF60450CEF20000A3
:1037D0004FF080510160BFF34F8F0124BFF36F8F13
:1037E000FEF778FF2046BDE8F081F1EE100A4FF6B3
:1037F000FF71C0F2C03120EA010040F04070E1EEFC
:10380000100A7047000000000000000001020304DD
:1038100006070809000000000102030464656661F0
:10382000756C745461736B00483800080000002008
:1038300010000000EC0100085838000810000020BB
:10384000A84600000C020008010000001000000063
:083850000024F400AAAAAAAAB0
:040000050800018965
:00000001FF
