:020000040800F2
:1000000078670020AD020008916100081D4A0008D1
:100010008D610008851000080D9B0008000000009D
:10002000000000000000000000000000D170000887
:10003000D515000800000000716200080171000879
:10004000C7020008C7020008C7020008C70200086C
:10005000C7020008C7020008D9150008E11500080A
:10006000C7020008E9150008F1150008C7020008DA
:10007000C7020008C7020008C7020008C70200083C
:10008000C7020008C7020008C7020008C70200082C
:1000900089100008C7020008C7020008F915000807
:1000A000C7020008C7020008C7020008C70200080C
:1000B000C7020008C7020008C7020008C7020008FC
:1000C000C7020008C7020008C7020008C7020008EC
:1000D000C7020008C7020008C7020008C7020008DC
:1000E000C7020008C7020008C7020008C7020008CC
:1000F000F1710008C7020008C7020008C702000823
:10010000C7020008C7020008C7020008C7020008AB
:10011000C7020008C7020008C7020008C70200089B
:10012000C7020008C70200082D110008C915000801
:10013000C7020008C7020008C7020008C70200087B
:10014000C702000895100008C70200089561000862
:10015000C7020008C7020008C7020008C70200085B
:10016000C7020008C7020008C7020008C70200084B
:10017000C7020008C7020008C7020008000000000C
:10018000C7020008C702000800F002F800F07FF87C
:1001900014A696E8000CB244B344DA4501D100F04D
:1001A00076F8BAE80F000FA696E83000A5EB040534
:1001B00004EB0607AAEB0704A7F101074FEA1515A0
:1001C0004FEA3414A4F10104AC4201D300F05FF80B
:1001D00013F0010F18BFFB1A43F0010300F001F800
:1001E000DBE7184784D80000A4D800000A444FF089
:1001F000000C10F8013B13F0070408BF10F8014B86
:100200001D1108BF10F8015B641E05D010F8016BCA
:10021000641E01F8016BF9D113F0080F1EBF10F82E
:10022000014BAD1C0C1B09D16D1E58BF01F801CB51
:10023000FAD505E014F8016B01F8016B6D1EF9D5D4
:100240009142D6D37047000070470000002300247D
:1002500000250026103A28BF78C1FBD8520728BFD6
:1002600030C148BF0B60704766290DF077830020CE
:1002700070471FB50DF065FB00F0E2FB04000020A5
:1002800000210DF0D1FAE0601FBD10B510BD00F0E7
:10029000DBFC1146FFF7EDFF0AF032FC00F0F9FC41
:1002A00003B4FFF7F2FF03BC00F03CFD09488047B0
:1002B00009480047FEE7FEE7FEE7FEE7FEE7FEE748
:1002C000FEE7FEE7FEE7FEE704480549054A064B60
:1002D00070470000DD710008890100087861002086
:1002E00078670020786300207863002053EA020CCE
:1002F00000F069802DE9F04B4FF00006002B1FBF86
:10030000B3FA83F503FA05F424FA05F65E4012BF4A
:100310001643B2FA82F502FA05F4C5F120051EBFB4
:1003200022FA05FC44EA0C04203556EA044C4FEA54
:10033000144418BF641C4FF000084FF000099042AD
:1003400071EB030C39D3002919BFB1FA81F701FA17
:1003500007F6B0FA80F700FA07F6C7F120071EBFCC
:1003600020FA07FC46EA0C062037B6FBF4FCA7EBA4
:100370000507103F07F01F0BCBF120062CFA06F6FD
:100380000CFA0BFB44BFB3460026202FA4BF5E46E9
:100390004FF0000B5BEA060C08BF4FF0010B19EBA6
:1003A0000B0948EB0608ABFB027C06FB02CC0BFBFF
:1003B00003CCC01B71EB0C01C1E70B460246414662
:1003C0004846BDE8F08B13B5084318BF4FF0FF3027
:1003D0000146AFF30080BDE81C4070470FB41CB568
:1003E0000C0007AA009007D04142A14202D320444A
:1003F000401E01E04FF0FF30074B7B4469460190FF
:10040000069800F002FB0021002C01D0009A117028
:100410001CBC5DF814FB0000330600002DE9F0471A
:100420004FF0000A89460446C0F820A02046E16843
:100430008847002876D0252806D0D4E901219047A6
:10044000206A401C2062F1E7E168204600258847C9
:10045000C4F81CA006460027C4F818A02A2E09D00C
:1004600030460DF0BBF938B304EB8708303EC8F8CE
:10047000186019E059F8041B204604EB87029161CB
:10048000E1688847012F064618D1E069002820DA84
:1004900025F020051DE0D8F8180000EB800006EBE1
:1004A00040003038C8F818002046E1688847064602
:1004B0000DF094F90028EED1012F0AD02E2E08D18C
:1004C0002046E16888477F1C0646022F45F020053C
:1004D000C4DBA069002803DA404245F00105A061B1
:1004E000E80701D025F01005B6B1A6F141001928A2
:1004F00002D8203645F400654A463146204625603C
:100500004D46FFF7B1FE58B1012806D0ED1D25F08C
:10051000070000F1080989E704E005F1040985E70F
:1005200030468AE7206ABDE8F08710B5431C02E038
:1005300010F8011B71B18107FAD14FF0013202C8E6
:100540008C1A8C4314EAC211F9D0C01A0A0603D0DF
:10055000C01E10BDC01A10BD0A0401D0801E10BDFF
:100560000902FCD0401E10BD02F0FF0343EA032243
:1005700042EA024200F002B84FF0000200B5134612
:1005800094469646203922BFA0E80C50A0E80C50B3
:10059000B1F12001BFF4F7AF090728BFA0E80C5064
:1005A00048BF0CC05DF804EB890028BF40F8042B5D
:1005B00008BF704748BF20F8022B11F0804F18BFCA
:1005C00000F8012B704770477047704710B500F076
:1005D0003BFA006810BD10B5044600F035FA04601F
:1005E00010BD2DE9FF4F0C461E464FF0FF378BB074
:1005F000D2E90001DDF860800A908A46C1F30A550D
:1006000005B93D46002108464FF00000BAF1000F41
:1006100000F4400005DA00EB80004FF4400101EAED
:1006200050004FEA9059B9F1010F00DDB9460A9820
:1006300050EA4A000ED044F61050A5F2FF3545436B
:100640002F14B8F1000F1ED07542291E1EDDC9F10E
:1006500000021CE0B8F1010F4FF0000001D0302182
:1006600003E0F24305E02154401CB042FBDB30467E
:100670000022002121540B99C1F80880C1E9002013
:100680000FB0BDE8F08FBD1B6D1CDEE74A4600DAF7
:10069000694206A800F062FA06AB93E8070003ABD4
:1006A00083E8070050460A990CF0A1FA8DE807008C
:1006B000A0F500501F3800900398002D0ADD42F28B
:1006C0001F014A460844002303A9039068460CF022
:1006D0000BFD09E0A0F500504A461F38002303A98E
:1006E000039068460CF015FD8DE807000004000C2F
:1006F00003D04FF0FF30410800E01046B8F1000F82
:1007000003D00022009215461EE0751E05D400F0AD
:100710009FF9303262556D1EF9D5B3460122084368
:1007200002D000227F1C04E02078302801D1002272
:100730007F1E002A099784D01DE0112D07DA00F0F2
:1007400087F9303262556D1C50EA0102F5D1084339
:1007500002D00098C8B10EE00021681E05E0235CBD
:10076000625C63542254401E491C8142F7DBAB4655
:10077000A81B401E0990002004F80B000B98099A52
:10078000C0F80880C0E9002B7AE711264FF0000876
:1007900057E72DE9F04F88460446D21D22F00701A5
:1007A00091B0D1E90001CDE90A010CF0E9FD024662
:1007B0000B98C00F01D02D2007E02068810701D5DC
:1007C0002B2002E0202101EAC000032A099001D079
:1007D000072A05DB03464146204600F07FF90BE17E
:1007E0002078800601D5E06900E00620B8F1650FA9
:1007F000814606D0B8F1660F18D0B8F1670F70D1F6
:1008000031E00020B9F1110F009001DB112301E06C
:1008100009F101030AAA01A90CA8FFF7E2FEDDE92C
:100820000C70002609F10105834647E001204B4684
:1008300000904FF000470AAA01A90CA8FFF7D1FECB
:10084000DDE90DB00C995D46002610B909F10100F3
:100850000D18B9EB050003D4C0F1FF3609F101050D
:10086000A5EB09002BE0B9F1010F01DA4FF0010906
:100870000020B9F1110F0090484601DD112300E07E
:1008800003460AAA01A90CA8FFF7ABFEDDE90C702C
:100890004D4600268346207800070AD4AB4500DA8F
:1008A0005D4601A8012D04DD411911F8011C302914
:1008B00007D04F4502DA17F1040F04DA012082460F
:1008C0000FE06D1EEEE7002F02DCED1B3E4403E05F
:1008D000781CA84200DD7D1CB81B00F1010A4FF016
:1008E00000472078000703D4AA4501DB4FF0FF3A08
:1008F0000021B7F1004F0DF143088DF8431024D0CB
:1009000002202B23002F01DA7F422D230A21021E11
:10091000A0F1010000DC5FB197FBF1FC97FBF1F265
:1009200001FB1C7C17460CF1300C08F801CDEEE7FA
:10093000A8F1010003702188090501D5452100E0D7
:100940006521A0F1010800F8011C09980FA9A1EB8D
:100950000807FF1D00B10120411901EBEA70A169F0
:100960003844081A401EA0612078C00602D42046F0
:10097000AFF30080099828B1D4E901219047206A9B
:10098000401C20622078C00622D52046AFF30080AC
:100990001EE0002E04DBB34502DD01A8805D00E00F
:1009A0003020D4E901219047206A401C2062761C47
:1009B000AAF101005FEA000A0AD100F041F8C0681C
:1009C0000168405CD4E901219047206A401C206204
:1009D000281EA5F10105DCDC07E0D4E9012118F8A7
:1009E000010B9047206A401C2062381EA7F10107C6
:1009F000F3DC2046AFF30080032011B041E6000095
:100A000001694A1C02610878704700B58FB0CDE9D2
:100A100001310021059105497944CDE903101146C2
:100A20006846FFF7FBFC0FB000BD0000E5FFFFFFCD
:100A3000D1E900239A4202D2531C0B601070704718
:100A400000487047B0010020004870479001002026
:100A500030B5B0F10A0271F100034FEA900E4EEA90
:100A6000817EB0EB0E0061EB91014FEA101E4EEA61
:100A7000017E10EB0E0041EB11114FEA102E4EEAF1
:100A8000016E10EB0E0041EB11214FEA104E4EEAC1
:100A9000014E10EB0E0041EB1141401841F10001F5
:100AA0004FEAD00040EA41704FEAD1014FEA810499
:100AB00044EA907410EB800544EB01046D1944EB9B
:100AC0000404521BA3414FF0000348BF0A3200D573
:100AD00030BD401C41F1000130BD00002DE9F04166
:100AE0001F46044603260168072A01F4006004DB60
:100AF00008B116A505E016A503E008B115A500E0AC
:100B000015A521F010002060A069C01EA0610FB1E2
:100B1000401EA0612046AFF300804FB1D4E901210F
:100B200038469047206A401C2062C01C206206E0C4
:100B3000206AFAE7D4E9012115F8010B9047761EE7
:100B4000F8D22046AFF30080BDE8F0814E414E0060
:100B50006E616E00494E4600696E66002DE9F047F1
:100B6000814616468AB0354878440DC88DE80D0098
:100B700032487844801C03AC0DC884E80D0041F66F
:100B80009B300844372190FBF1F290FBF1F5A5F181
:100B9000800501FB12041B3C02D56442012000E0E9
:100BA0000020DFF898A080460027FA44AAF1BE0A88
:100BB0000EE0E0070AD03246684607EB4701012302
:100BC0000AEB81010CF0A5FA8DE8070064107F1C88
:100BD000002CEED1194F7F44AE3F19E0E80715D045
:100BE00007EB04100DF1180A90E80E008AE80E00D9
:100BF000C068F04201D1981908903246012306A935
:100C000003A80CF086FA03AB83E807006D10641CA0
:100C1000002DE3D14FF0010332466946B8F1000FD1
:100C200003A802D00CF060FA01E00CF072FAC9E9F6
:100C30000001C9F808200AB0BDE8F08770CE0000B6
:100C400000487047900100207546FFF7F9FFAE4657
:100C500005006946534620F00700854618B020B5C8
:100C6000FFF732FBBDE820404FF000064FF00007D1
:100C70004FF000084FF0000BAC46ACE8C009ACE800
:100C8000C009ACE8C009ACE8C00921F007018D46F5
:100C9000704710B50446AFF300802046BDE8104011
:100CA000FFF7FEBA0000000030B44FF0013C50F8EE
:100CB000042B51F8043BCCFA52F4D51A20D1FCB9DC
:100CC00050F8042B51F8043BCCFA52F4D51A17D142
:100CD000B4B950F8042B51F8043BCCFA52F4D51AAD
:100CE0000ED16CB950F8042B51F8043BCCFA52F4F5
:100CF000D51A05D1002CDAD030BC4FF00000704777
:100D000029BAB1FA81F111F01801D1F12000844023
:100D1000F2D1CA40CB4012F0FF0213F0FF0330BC07
:100D2000D01A704701491820ABBEFEE7260002002A
:100D3000704700000020C4F202001021012201F0DF
:100D4000B5B900000020C4F202001021002201F019
:100D5000ADB900007047000040F20040C4F202004C
:100D60000121012201F0A2B940F20040C4F20200C8
:100D70000121002201F09AB9B0F9003040F2680C6C
:100D8000C2F2000C00EE103A9CED001AB8EEC00A58
:100D900021EE000A81ED000AB0F902309CED001A44
:100DA00000EE103AB8EEC00A21EE000A81ED010A09
:100DB000B0F9043000EE103AB8EEC00A21EE000A95
:100DC00081ED020AC3798179007A1B0243EA00406F
:100DD000084400EE100A9FED041AB8EE400A20EE17
:100DE000010A82ED000A704700401C427047000073
:100DF00009F0A6BE012009F0A3BE0000B0F9002052
:100E000000EE102A40F26802C2F2000292ED011ACE
:100E1000B8EEC00A21EE000A81ED000AB0F90230F6
:100E200092ED011A00EE103AB8EEC00A21EE000A67
:100E300081ED010AB0F9040000EE100AB8EEC00A14
:100E400021EE000A81ED020A7047000010B5FFF79D
:100E500081FFFFF7CBFF08F0A7FF08B1802402E075
:100E600008F056FE044609F0CFFA00281CBF44F0F3
:100E7000400010BD09F0C0F9204310BD2DE9F04F2E
:100E800083B002920E460190FFF75CFF922000F0C3
:100E9000C3F8922000F0C0F8552000F0BDF880465D
:100EA000552000F0B9F80546552000F0B5F8824607
:100EB000552000F0B1F80446552000F0ADF8834607
:100EC000552000F0A9F80746FFF734FF48EA05204F
:100ED00040F2680900B2C2F2000900EE100A99ED72
:100EE000001AB8EEC00A4AEA042021EE000A00B255
:100EF00086ED000A00EE100A4BEA072000B299EDD9
:100F0000001A02EE100AB8EEC00AB8EEC22A21EEAC
:100F1000000A21EE021A86ED010A86ED021AFFF799
:100F200023FF802000F078F8552000F075F8064681
:100F3000552000F071F8552000F06EF882465520DB
:100F400000F06AF80546552000F066F88346552003
:100F500000F062F80446552000F05EF80746552080
:100F600000F05AF88046FFF7F7FE0F2E25D14AEA27
:100F7000052000B200EE100A99ED011AB8EEC00A81
:100F800001994BEA042021EE000A00B281ED000A2B
:100F900000EE100A47EA082000B299ED011A02EEAD
:100FA000100AB8EEC00AB8EEC22A21EE000A21EEFD
:100FB000021A81ED010A81ED021AFFF7C3FEA22099
:100FC00000F02AF8A22000F027F8552000F024F8BD
:100FD000044646B2552000F01FF80546FFF7AAFE6A
:100FE000E00040EA55104FF60001CFF6FF71002EE9
:100FF00048BF084300EE100AB8EEC00AB4EE001A6B
:1010000020EE010AB3EE071A029830EE010A80EDD5
:10101000000A03B0BDE8F08F80B582B08DF80700FC
:1010200042F2AC104FF47A7CC2F200000DF10701DD
:101030000DF106020123CDF800C003F02BF89DF856
:10104000060002B080BD000090F900204078D3B2C5
:10105000DB0043EA50104FF60003CFF6FF73002A7F
:1010600048BF184300EE100AB8EEC00AB4EE001AEA
:1010700020EE010AB3EE071A30EE010A81ED000AF4
:1010800070470000FEE7000041F66430C2F2000045
:1010900000F0BCBA41F68C30C2F2000000F0B6BAE3
:1010A000002070470020704710B541F68804C2F256
:1010B000000441F28801C2F200012046002206F03D
:1010C00001FB40F68801C2F20001204606F0ECFA6E
:1010D000002010BD10B541F68804C2F2000401469C
:1010E000204606F0E1FA204606F0B8FA002010BDCE
:1010F0000020704741F68802C2F20002D2F8BC22FA
:10110000D2F81432002B1CBF0120704710B541F6F5
:101110008804C2F200040A460146204606F0D2FACC
:101120002046BDE8104006F051BB0000B0B542F2C9
:10113000AC10C2F20000C16C46F2A040C4F2020042
:101140000968A0F1480246F29F059142C4F20205E7
:1011500022D950F89C2CA9424FF0200364DD46F2BE
:101160003F45C4F20205A94278DC46F2A005C4F26C
:101170000205A94200F08A8046F21045C4F2020539
:10118000A94200F0CC8046F22843C4F202039942FF
:1011900000F0C38080E100BF46F25802C4F20202B0
:1011A00002F1600399421FD9D2F8A823A9424FF057
:1011B000200340F38F8046F23F45C4F20205A94266
:1011C00000F3D08046F2A005C4F20205A94200F067
:1011D000F18046F21045C4F20205A94200F00481F4
:1011E00046F22843FAE000BF914255D952F854CC58
:1011F000A9424FF0200455DC46F23F05C4F2020537
:10120000A94240F3F58046F24005C4F20205A94226
:1012100000F0D68046F27005C4F20205A94200F043
:10122000F58046F28805EBE046F23F05C4F2020580
:10123000A94265DD46F24005C4F20205A94225D067
:1012400046F27005C4F20205A94268D046F288034E
:10125000C4F20203994214D01EE100BF46F2404599
:10126000C4F20205A94211D046F27045C4F202054B
:10127000A94254D046F28843C4F20203994240F096
:101280000B814FF4006313424CD13CE14FF4001347
:10129000134247D137E100BF52F858CCA9424FF072
:1012A0002004A9DD46F23F45C4F20205A94271DCE3
:1012B00046F2A005C4F20205A94200F0818046F280
:1012C0001045C4F20205A94200F0A08046F228456C
:1012D00096E000BF46F23F05C4F20205A94275DD63
:1012E00046F24005C4F20205A94263D046F27005F9
:1012F000C4F20205A94277D046F2880340E000BF5D
:1013000046F21005C4F20205A94208D046F22803AD
:10131000C4F20203994240F0BF804FF400631342CD
:1013200000F0F18046F27042C4F2020291420BD00A
:1013300046F28842C4F20202914209D14FF400629F
:1013400040F8942CF1E000BF202240F8942CECE00F
:101350004FF00062814208BF4FF4001240F8942C15
:10136000E3E000BF46F24045C4F20205A94221D0A5
:1013700046F27045C4F20205A94235D046F28843D0
:10138000C4F20203994240F0A9804FF40063134273
:1013900042D1B8E046F24045C4F20205A9420FD05E
:1013A00046F27045C4F20205A9422FD046F28845A4
:1013B00026E000BF4FF4001313422DD1A3E000BF7D
:1013C0004FF4001404EA0C0525BB9CE046F210051E
:1013D000C4F20205A94207D046F22803C4F2020370
:1013E00099427BD14FF40063134215D18BE000BFCB
:1013F00046F21005C4F20205A94207D046F22805BC
:10140000C4F20205A94273D14FF4006404EA0C054A
:10141000002D78D0994219D946F21042C4F2020246
:10142000914235D046F22842C4F20202914229D0BC
:1014300046F24042C4F2020291420CBF4FF4001146
:101440004FF0006140F8981C6FE000BF91422DD929
:1014500046F27000C4F2020081425FD046F288007A
:10146000C4F2020081424FD046F2A000C4F2020052
:1014700081420CBF4FF400104FF0006042F84C0C5A
:1014800053E000BF4FF4006140F8981C4DE000BFEE
:10149000202140F8981C48E04FF00063814208BFCB
:1014A0004FF4001313427FF43DAF2CE046F21000DE
:1014B000C4F20200814235D046F22800C4F2020094
:1014C000814227D046F24000C4F2020081420CBFA4
:1014D0004FF400104FF0006025E000BF4FF00063B4
:1014E000814208BF4FF40013134295D10BE000BFB7
:1014F0004FF00064814208BF4FF4001404EA0C0569
:10150000002D7FF487AFB0BD4FF4006042F84C0C63
:101510000BE000BF4FF4006005E000BF202042F860
:101520004C0C02E0202042F8500C40F2D025C2F2D0
:101530000005287800248007C4F2020422D46878C9
:10154000800730D4A87880070CD5A878102100F047
:10155000FD00A870A878012240F00400A870204681
:1015600000F0A4FD09F02EF92878400758BFB0BD5F
:1015700043F61040C4F20100016841F0010101602E
:10158000B0BD00BF2878012100F0FD002870287848
:10159000012240F00400287004F5806000F086FD10
:1015A00068788007CED56878102100F0FD0068705B
:1015B0006878012240F004006870204600F076FD53
:1015C000A8788007C1D4CDE741F61440C2F20000EC
:1015D00000F06EBA70470000012000F08BBC0000E4
:1015E000022000F087BC0000082000F083BC00004F
:1015F000102000F07FBC0000202000F07BBC000029
:1016000072B600BFFEE70000704700002DE9F04F02
:1016100081B0044600684669D0F804908768D0F825
:101620000CB0D0F810A0D0F81880F10704D1002534
:1016300030071DD424E000BFF90710D00121BA07FC
:10164000816009D4780700F1AF80380700F1B680D7
:10165000204600F01FFA02E0204600F01DFA0025A7
:10166000F80500F18780F80300F1B180300707D555
:101670001BF0100004D0206845F400751021C160F3
:10168000700708D51BF0080005D020680821C1604C
:10169000204600F0F5F9B00706D52068C06880073D
:1016A00002D0204600F0EEF9700607D51AF01000BF
:1016B00004D0206845F4806510210161B00608D58A
:1016C0001AF0080005D0206808210161204600F0CA
:1016D000DBF9F00606D520680069800702D02046B5
:1016E00000F0D4F9B00308D519F0100005D0206837
:1016F00010214160204600F0CBF9F00308D519F025
:10170000080005D0206808214160204600F0CEF98D
:10171000300440F19B805FEA497040F1948006F408
:10172000807008EA102028435FEA8871014648BFAC
:1017300041F00201B20558BF01465FEA48700D460C
:1017400048BF45F00405700558BF0D46300540F10F
:101750007A8018F0700000F07680103800090528B3
:101760006CD8DFE800F003655D61596945F0080554
:1017700064E000BF20684FF48071BA0581600BD42B
:10178000780515D438051DD4204600F087F9F803F4
:101790007FF56CAF1BE000BF204600F081F9F80335
:1017A0007FF564AF13E000BF4FF4006558E700BF5A
:1017B00005F50055F8037FF559AF08E04FF4805563
:1017C0004EE700BF05F58045F8037FF54FAF206871
:1017D0004FF48031BA0381600AD4780310D43803FF
:1017E00014D4204600F05EF930073FF541AF47E7DB
:1017F000204600F059F930073FF53AAF40E700BF07
:1018000005F5004530073FF533AF39E705F580357D
:1018100030073FF52DAF33E745F080050EE000BF00
:1018200045F020050AE000BF45F0400506E000BF96
:1018300045F0100502E000BF45F48075206881691D
:1018400021F07001816120680421416055B1606A16
:1018500040EA05012046616201B0BDE8F04FFFF7A4
:10186000D3BE00BF01B0BDE8F08F0000002804BF68
:1018700001207047B0B5044690F8200010B920460A
:1018800000F06EF82068016841F00101016000F08D
:1018900013FC054620684168C90705D100F00CFC1F
:1018A000401B0B28F6D310E0016821F00201016013
:1018B00000F002FC054600BF2068416889070DD58D
:1018C00000F0FAFB401B0B28F6D3606A052140F4B8
:1018D00000306062012084F82010B0BD217E0268D3
:1018E000012922F0800208BF80320260617E026816
:1018F000012922F0400208BF40320260A17E026846
:10190000012922F0200208BF20320260E17E026835
:10191000012922F0100218BF10320260217F0268F4
:10192000012922F0080208BF08320260617F0268C4
:10193000012922F0040208BF04320260D4E901C286
:10194000D4E9033561691A432A431143ACF101021A
:101950001143C16100200121606284F82010B0BDF4
:1019600010B586B0006846F60002C4F200020021FD
:101970009042CDE90411CDE90211019134D046F233
:101980000041C4F20001884277D140F22041C2F206
:1019900000010A6843F64000C4F20200531C0B60C9
:1019A00052B900210091016841F0007101600168A5
:1019B00001F00071009100990021009150F8101C75
:1019C000142441F0080140F8101C50F8100C0321B9
:1019D00000F008000090009840F20040C4F20200BD
:1019E00000F5006035E000BF43F64000C4F202009D
:1019F0000091016841F080610160016801F080613F
:101A00000091009940F22041C2F200010A68531C83
:101A10000B6052B900210091016841F00071016032
:101A2000016801F00071009100990021009150F8C7
:101A3000101C412441F0020140F8101C50F8100C19
:101A4000602100F002000090009840F20040C4F2D3
:101A500002000191022102910021039103210491CE
:101A60000921059101A900F051FA20460521002223
:101A700000F0C2FE204600F0ADFE06B010BD000032
:101A8000704700007047000070470000704700007A
:101A9000704700007047000070470000704700006A
:101AA000704700007047000070470000704700005A
:101AB000F0B581B00021009140F28C01C2F200012A
:101AC0000B68D0E9166148F2B51537680822C1F6EF
:101AD0004E358A403A42A3FB05350CD003681C689A
:101AE000640708D51C6824F004041C60B260426DD1
:101AF00042F00102426501228A403A4208D003685E
:101B00005B691B0604D5B260426D42F00202426579
:101B100004228A403A4208D003681B689B0704D518
:101B2000B260426D42F00402426510228A403A429D
:101B300019D001680B681B0715D5B2600B680A68DD
:101B40005B0309D4D20509D40A6822F008020A60AE
:101B5000016C29B907E000BF110341D4016C11B138
:101B6000044688472046C26D202101FA02F33B4219
:101B700043D001680F68FF063FD5B36090F8357019
:101B80000B68052F1CD123F016030B604B6923F063
:101B900080034B61036C0BB9836C1BB10B6823F0A2
:101BA00008030B603F219140B160012180F835109E
:101BB000016D0022002980F8342054D158E000BF84
:101BC0000A685B0310D4D20512D40A6822F010020E
:101BD0000A60012180F83510002180F8341007E0F8
:101BE000816C0029BCD1BEE7110301D4416C00E037
:101BF000C16B11B1044688472046416DC1B3416DA8
:101C0000C9072ED0052180F835100168AA0A0B6893
:101C100023F001030B60009B0133934200931AD819
:101C20000B68DB0717D0009B01339342009312D857
:101C30000B68DB070FD0009B0133934200930AD857
:101C40000B68DB0707D0009B01339342009302D857
:101C50000B68DB07DFD1012180F83510002180F807
:101C60003410C16C21B101B0BDE8F040084700BF9D
:101C700001B0F0BD2DE9F041044600F01DFAECB1D1
:101C80000546022084F835000020216884F83400DD
:101C9000086820F00100086021680868C00711D0BA
:101CA00000F00AFA401B0528F6D90325202303205B
:101CB000636584F83550BDE8F08100BF0120BDE8C0
:101CC000F08100BF086848F23F02CFF21002D4E969
:101CD000013500EA020C04F10C0898E8C10143EA5E
:101CE0000C032B431843D4E9072E304338431043E9
:101CF000626A40EA0E00042A40EA08031CD1206B05
:101D0000D4E90A2E40EA0E00184308604869BEF183
:101D1000000F20F0030040EA020040F0040C11D054
:101D2000B8F5005F36D0B8F1000F45D1022A46D091
:101D3000012A3BD032B942E00B60486920F007002D
:101D400040EA020C01F0F8004AF6AB221038CAF65D
:101D5000AA22A0FB02231A094DF61E23C1F814C0C3
:101D6000C0F600039A5C40F2FF335F284FF03F005B
:101D700021EA030100FA02F088BF0431C4E9161217
:101D80008860002301250020636584F83550BDE894
:101D9000F08100BF032AD5D8012540230120DFE8C8
:101DA00002F0030E030500BF82E700BFAEF1C07072
:101DB000B0FA80F0400904E0032A04D3C2D1CEF384
:101DC00000600028BED0012540230120636584F80F
:101DD0003550BDE8F0810000B0B5044600F06CF964
:101DE000054640F20000C2F200000078611C18BFF6
:101DF000044400BF00F060F9401BA042FAD3B0BD1C
:101E000010B501381F2800F27380DFE800F0114997
:101E100071717171712F7171717171717151717114
:101E2000717171717171717171717171716300BFD3
:101E30000AF0CEFD01285BD040F2D024C2F20004AB
:101E4000206904F1300109F0FBFB206B002808BF7A
:101E500010BD4EF60450CEF200004FF080510160EC
:101E6000BFF34F8FBFF36F8F10BD00BF40F2D02183
:101E7000C2F20001C87840F00100C870C87810F0C4
:101E80000100C87034D0C87800F0FE0240F248303B
:101E9000C2F200005030CA70BDE8104008F002BE27
:101EA00040F2D020C2F200000121C17120E000BF49
:101EB00040F2D020C2F20000417841F001014170AF
:101EC000817841F001018170007988B1BDE810404E
:101ED00008F078BC40F2D020C2F20000017841F056
:101EE00001010170007918B1BDE8104008F06ABC2A
:101EF00010BD000043F61441C4F201010A68024219
:101F000014BF08607047FFF77BBF00002DE9F04F5A
:101F100083B000F1200200F13E4741F600450092F7
:101F200007F1FF77C4F2020508224FEAB726A8425C
:101F300008BF072200254FF000084FF00009072EC8
:101F400038BF4FEAB72201920AE000BF09F1010948
:101F500008F10208B9F1100F05F1040500F0A280A4
:101F60000F68012202FA09FE17EA0E0AEED0D1F834
:101F700004C003220CF003077E1E02FA08F4012EAF
:101F80006FEA040B12D88468CE6804EA0B0406FAE0
:101F900008F634438460446824EA0E06CCF3001447
:101FA00004FA09F42643466004E000BF032F01D180
:101FB00003271EE0C6688C6806EA0B0604FA08F4DC
:101FC0002643022FC66014D16FF00302009E02EA7E
:101FD000590756F807C005F01C040F220B69A240F0
:101FE0002CEA0202A3401A43F251D1F804C00CF0CB
:101FF0000307026807FA08F302EA0B021A431CF40B
:10200000403F0260A2D0002243F644030292C4F291
:1020100002031A6843F6004442F480421A601A68C8
:10202000C4F2010402F480420292029A29F00302EF
:102030004FF6084C2244CFF6FF7C52F80C3005F0E6
:102040000C070F26BE40B343019E06FA07F73B4339
:1020500042F80C30A2684B6842EA0A0743F60C4C7F
:10206000DE0258BF22EA0A07A760C4F2010CDCF8BE
:1020700000209E0242EA0A0758BF22EA0A07CCF86B
:10208000007062689E0342EA0A0758BF22EA0A0704
:1020900067602268DB0342EA0A0758BF22EA0A07A0
:1020A000276053E703B0BDE8F08F0000002A08BFA7
:1020B000090481617047000045F62070C2F20000FB
:1020C00000687047002804BF01207047F0B581B058
:1020D000044690F83D0028B9002084F83C002046D2
:1020E00000F07CFA242084F83D002068016821F08B
:1020F00001010160016841F400410160016821F4BF
:102100000041016001F0A4FC636848F2A16CC0F2D8
:10211000010C40F60011C0F23D0163453CBF48F29E
:102120008041C0F21E01884202D2012001B0F0BD00
:102130004DF68361C4F21B31A0FB01122168970C9C
:10214000D1F804E04FF496762EF03F0545EA92452B
:102150004D60774348F638160D6AC0F24106A7FB7A
:10216000067625F03F07634538BF960C721C3A434C
:102170000A62CA6948F2A0664CF6FF77C0F201060F
:10218000B34222EA07020BD801385B00B0FBF3F040
:1021900001306FF31F30042898BF04201BE000BFFC
:1021A000A768013857B119277B43B0FBF3F0013022
:1021B0006FF31F3070B100F5804007E003EB43037D
:1021C000B0FBF3F001306FF31F3018B100F50040A1
:1021D00001E000BF01201043C8610868D4E907236B
:1021E00020F0C000104318430860886848F2FF32AE
:1021F00004F10C0790438CCF18431043A669886004
:10220000C86820F0FF0038433043C860086840F0D9
:102210000100086000202021206484F83D10206324
:1022200084F83E0001B0F0BD2DE9F04784B0994636
:1022300016460F460446FFF73FFF94F83D1020294D
:1022400027D10546206800BF816989071CD5FFF7A3
:1022500033FF411B20681A29F6D381698907F3D51A
:1022600000202021206384F83D1084F83E00206C7B
:1022700004F13C0A40F020002064022000218AF88A
:10228000001004B0BDE8F087A2461AF83C1F0129EF
:1022900004D1022004B0BDE8F08700BF01228AF813
:1022A00000200368DDE90D180C9ADB0703D10368F1
:1022B00043F001030360036823F4006303602220FA
:1022C00084F83D00402084F83E00002020646262D3
:1022D0006185608D394620850020CFF6FF70E06271
:1022E000204632464B46CDE9008502F099FB18B1F5
:1022F000012004B0BDE8F087208D08B3022813D078
:10230000012835D121680A6822F480620A6000221F
:1023100003924A6903928A690392039A0A6842F413
:1023200000720A602CE000BF21680A6822F4806213
:102330000A600A6842F400620A60002203921AE00E
:1023400000200390206841690391816903910399FA
:10235000016841F400710160202084F83D000020F4
:1023600084F83E0000218AF8001004B0BDE8F08730
:102370000021039121684A690392896903910399B5
:102380000427C0F201070CE010690870606A218D13
:1023900001306062481E2085618D0139618501042C
:1023A000DAD080B203280FD802284AD001282DD1D4
:1023B000204641462A4602F0D1FD002898D12068E7
:1023C000616A0069E1E700BF204641462A4602F003
:1023D000C5FD00287FF48CAF2068616A0069087031
:1023E000606A2268411C208D616201382085638DFE
:1023F000013B638553695B07D1D580B20328C3D104
:10240000106820F480601060BEE700BF20463946A7
:1024100000224346009502F04FFC00287FF468AF8D
:102420002068616A026822F48062026000690870B4
:10243000606A218D01306062481E2085608D013800
:1024400060852046394600224346009502F034FC60
:1024500000287FF44DAF2068616A026842F4007280
:10246000026000690870606A2268411C6162218D07
:1024700001392185618D013961851169417085E7D7
:102480002DE9F04383B0994616460F460446FFF700
:1024900013FE94F83D10202924D10546206800BF82
:1024A000816989071AD5FFF707FE411B20681A29A1
:1024B000F6D381698907F3D500202021206384F8B1
:1024C0003D1084F83E00216C41F02001216484F825
:1024D0003C00022003B0BDE8F08300BF94F83C103C
:1024E000012903D1022003B0BDE8F083012284F862
:1024F0003C200368DDE90B180A9ADB0703D1036867
:1025000043F001030360036823F4006303602120A8
:1025100084F83D00402084F83E0000202064626280
:102520006185608D394620850020CFF6FF70E0621E
:10253000204632464B46CDE9008502F0FBFA18B141
:10254000012003B0BDE8F083208D98B920464146B4
:102550002A4602F053FB88B3206C0428F0D120688F
:10256000016841F400710160012003B0BDE8F0830F
:102570000004EBD0204641462A4602F037FD0028F1
:10258000EAD1616A2268084610F8013B1361238D85
:102590006062581E2085678D013F678557697F07F8
:1025A000E6D50704E4D048781061881C6062981E64
:1025B0002085618D01396185DAE700BF20680168F7
:1025C00041F400710160202084F83D00002084F86F
:1025D0003E0084F83C0003B0BDE8F0832DE9F047ED
:1025E00086B045F600460068C4F200060025B042F9
:1025F0000595CDE903550295019503D006B0BDE8D8
:10260000F08700BF43F630070095C4F20207386830
:1026100001AC40F00400386038684FF0120800F058
:10262000040000900098009538684FF0030940F0CE
:102630000100386038684FF0040A00F00100009093
:1026400000984FF40070019006F5D6302146CDE990
:102650000285CDF81090CDF814A0FFF757FC4FF489
:102660008070CDE9010803A880E8200606F5D23085
:102670002146FFF74BFC0095386940F400003861B3
:10268000386900F400000090009806B0BDE8F087BB
:1026900040F2000045F62071C2F20000C2F20001D3
:1026A00000780A68104408607047000080B543F65F
:1026B0000040C4F20200016841F400710160016849
:1026C00041F480610160016841F480710160032080
:1026D00000F0BEF80F2000F005F800F059F80020D7
:1026E00080BD0000B0B586B0002543F644010195D9
:1026F000C4F202010A68044642F002020A60096854
:1027000001A801F0020101910199694601F07AF9ED
:1027100001F0B2F94DF683614000C4F21B31A0FB19
:1027200001014FF0FF3000EB914142F24C2040F2AA
:102730000042C2F20000C4F2010240F2E733C0E9F5
:102740000021C0E902530561856101F047FE08B12F
:1027500006B0B0BD42F24C20C2F2000001F086FE8D
:102760000028F5D12C2000F035F80F2C0CD82C20A7
:102770002146002200F040F840F204010020C2F29D
:1027800000010C6006B0B0BD012006B0B0BD000075
:1027900082B0002043F640010190C4F202014A6871
:1027A00042F480424A604A6802F480420192019AEF
:1027B00000900868002240F08050086008680F21EF
:1027C00000F08050009000986FF0010002B000F01F
:1027D00013B80000002848BF704700F01F01012215
:1027E00002FA01F11C2202EAD0004EF20012CEF2EF
:1027F000000281507047000010B54EF60C5CCEF21E
:10280000000CDCF80030C3F3022E8EF00704042C19
:1028100028BF0424BEF103034FF0FF3E0EFA04F478
:1028200038BF0023A14399400EFA03F39A431143A2
:1028300000F00F0200F160430901043A03F564431C
:102840006244002848BF02F10C03197010BD00005B
:102850004EF60C51CEF200010A684FF6FF031A4003
:1028600060F30A2242F0806040F0FD70086070471B
:102870007047000002680020516270472DE9F04166
:10288000D0F80080D8F8243091B1D8F82870B1F190
:10289000010C03EB17414FD05FFA8CF708F58273F8
:1028A000042F0CF0030E0BD2002700242BE000BFF6
:1028B00043EA02410020C8F82810BDE8F08100BFBB
:1028C0000CF0FC0508F1F406002400BF56F8107F58
:1028D00044F0020001EB174144F00107FFB253F846
:1028E0002770C0B253F8200001EB174101EB1040F4
:1028F00044F00301C9B253F821100434E7B2AF42E7
:1029000000EB1141E2D1BEF1000F15D053F82700C2
:10291000BEF1010F01EB10410ED0601CC0B253F8A4
:102920002000BEF1020F01EB104105D0A01CC0B287
:1029300053F8200001EB104141EA024008EB8C0102
:10294000C1F804010020BDE8F0810000D0F8E004E7
:1029500005F072BA01EBC102D0F8E03400EB82005E
:10296000026A184605F0CCB901EBC102D0F8E03498
:1029700000EB8200D0F86022184605F01FBA000074
:10298000D0F8E00405F05ABA10B54FFA81FC4FF4C4
:10299000157201F00F0EBCF1000F48BF142290F821
:1029A000944402440EEBCE034FEAD11C02EB8301A8
:1029B000012C81F801C002F823E004BF022010BD01
:1029C0000268012380F894340446104606F034F877
:1029D000002084F8940410BDB0B5037901F00F0213
:1029E0009A4284BF0120B0BD4BB24FF41574002B46
:1029F00048BF142400EB040E90F8944402EBC20389
:102A00004FEAD11C0EEB8301012C4FF0000481F83A
:102A100001C08C700EF8232004BF0220B0BD0268F4
:102A2000012380F894340546104606F0F9FA204652
:102A300085F89444B0BD000001F00F0101EBC10125
:102A400000EB8100D0F868027047000010B54FFA23
:102A500081FE01F00F0CBEF1000F6FF3DF220CEBD3
:102A6000CC010DD400EB810E00240EF515718EF80B
:102A700055428EF854C2CEF85C228EF8583209E0E6
:102A800000EB810101F814CF01244C708A600B71B6
:102A9000A1F81AC0022B04BF00224A7190F89424B6
:102AA000012A04BF022010BD0268012380F894347B
:102AB0000446104605F032FE002084F8940410BD50
:102AC00010B501F00F0E0EEBCE0100EB81044FF0BC
:102AD000000CC4F868C284F855C290F806C004F52A
:102AE0001571C4F86022C4F86432BCF1010F84F897
:102AF00054E208BFCA610068624606F0DBFA0020B3
:102B000010BD0000B0B5027901F00F0494424FF0FF
:102B100001022CD84BB24FF41575002B48BF142579
:102B20004FEAD11C48BF2146054401EBC10305EB28
:102B3000830181F801C090F894C48A70BCF1010F40
:102B400005F8234004BF0220B0BD026801230546FA
:102B500080F89434104606F08DFA2CB92868A979CB
:102B600005F29C4206F02EFA002285F894241046C5
:102B7000B0BD000001F00F0C0CEBCC0100EB8101AB
:102B800001F814CF4FF0000C0B618379C1F814C029
:102B90004FF0010CCA60012B81F801C008BFCA6167
:102BA00080B500681A4606F085FA002080BD000056
:102BB0002DE9F04F87B005688246284606F096FC5E
:102BC00010B107B0BDE8F08FDAF8000006F0BCFCE9
:102BD0000028F6D0D5F80808C0F30D21DAF8000077
:102BE000CAF8D41406F0B0FC0146DAF800008907F0
:102BF00003D5416901F00201416105F500610491CD
:102C000006F0A2FC0146DAF80000C906059535D5A4
:102C1000816921F0100181612C6A04F00F0000EB42
:102C2000C0000AEB8001C4F34340062801F5157586
:102C300012D002281BD147F6F07014EA000616D015
:102C4000E96834090598224606F082FCE86800EB42
:102C50001610E86008E000BF05980AF29C410822BF
:102C600006F076FCC4F30A14686920446861DAF857
:102C70000000816941F010018161059D06F064FC4E
:102C8000000340F1F180DAF8000006F03BFC002878
:102C900000F0EA8006460AF29C404FF430680024B7
:102CA0004FF0000B069019E005EB0800022181604F
:102CB000B80642BF05EB080020218160B80442BF7E
:102CC00005EB08004FF4005181600BF1010B760811
:102CD00008F1200804F1240400F0C680F007F4D0C5
:102CE000DAF800005FFA8BF9494606F025FC074642
:102CF000C00760D005EB080001218160DAF8000010
:102D000008EB0001036C8A689AF80650012D25D162
:102D1000150733D4950600F19F8043F20B05C4F6E6
:102D20005475AB42059D02D312F4004230D10AEB38
:102D30000402D2F8743209696FF3DF41A3EB010199
:102D4000C2F868129CBBD2F86432002B00F08A8073
:102D5000D2F860020844C2F8600228E043F20B0592
:102D6000C4F65475FF35AB4218D1059D10040FD43D
:102D7000900644BF2020886019E000BF43F20B009A
:102D8000C4F65470059D834215D312F4004012D04E
:102D90004FF40040886038070FD43DE0059D34B9FA
:102DA000DAF8641219B90021069A06F00BF95046B8
:102DB0004946FFF7D9FD38072ED505EB0800082155
:102DC0008160DAF8000043F20B02056C4044816830
:102DD000C4F6547295420BD311F4004108D04FF45D
:102DE00000418160504600F019FD059D0AE000BFDA
:102DF000504600F013FD43F20B00C4F654708542B8
:102E0000059D09D39AF80600012805D1DAF80000DB
:102E1000069A012106F0D6F8F80642BF05EB080035
:102E200010218160B8077FF543AF6869000604D5BB
:102E30000499486840F4806048600AEB040090F808
:102E4000571201297FF430AF002180F85712504605
:102E5000494600F031FB27E720208860059D3807B0
:102E6000ABD4D9E701219FE7DAF80000CDF818A02C
:102E700006F06AFB400340F1D3800698006806F034
:102E800039FB002800F0CC800646069805F510694D
:102E900000F1140100F29C40002703910190CDF84D
:102EA000089004E0760807F1010700F0B980F00708
:102EB000F8D006985FFA87FA0068514606F02AFBB8
:102EC0000446C00726D0049A07F00F00516B012377
:102ED00003FA00F021EA0000506309EB4710836019
:102EE00006988079012811D1039907EBC70001EBFF
:102EF0008000D0E902121144C1603FB9006928B9CD
:102F00000698019A0068012106F05CF8069851467F
:102F1000FFF720FD200742BF09EB47100821816021
:102F2000E00642BF09EB471010218160600642BFF6
:102F300009EB471040218160A00716D52846394685
:102F400006F066FA039907EBC70001EB800010F862
:102F5000031F012905D1002101700698514600F098
:102F6000A7FA09EB47100221816020069AD5039940
:102F700007EBC70001EB8008D8E90420824291D317
:102F80000699D8F808300C68111A994238BF0B46D8
:102F900004EB4711D1F818C903F1030E1FFA8CF3A3
:102FA000B3EB9E0F2DD301F5106900BFD8F81020A8
:102FB000824224D9101A069AD8E902B19579584567
:102FC00038BF83461FFA8BF3204652460095059D75
:102FD00006F066FDD8F80C00D8F814105844C8F86C
:102FE0000C0001EB0B00C8F81400D9F818100BF115
:102FF000030289B2B1EB920FD8D2D8F81020DDF8D5
:10300000089082423FF64EAF07F00F00D4F8341814
:10301000012202FA00F021EA0000C4F8340841E776
:10302000DDF81890D9F8000006F08EFA002821D4B7
:10303000D9F8000006F088FA00053AD4D9F8000063
:1030400006F082FAC00445D50499486820F00100D2
:103050004860D9F80000102106F0DAF999F8040068
:10306000010600F0EC80C1B2042900F0030035D263
:1030700000219AE00499486820F00100486099F81E
:10308000CC04012808D1002089F8CC04484600214E
:10309000FFF7EEFB03E000BF484600F0A3FBD9F8C2
:1030A0000000416901F00041416106F04DFA000560
:1030B000C4D504988068C00702D0484600F0D6FB0B
:1030C000D9F80000416901F40061416106F03CFA61
:1030D000C004B9D4D9F80000DDE000BF6FF0600291
:1030E00002EA411200234FF67F370021EE18C6F89E
:1030F0000879D6F80059803325F40015C6F8005930
:10310000C6F8087BD6F8005B9A4225F40015C6F88D
:10311000005BD6F8005B01F1040145F00065C6F8DC
:10312000005BC6F82879D6F8205925F40015C6F8B2
:103130002059C6F8287BD6F8205B25F40015C6F880
:10314000205BD6F8205B45F00065C6F8205BC6F82A
:103150004879D6F8405925F40015C6F84059C6F804
:10316000487BD6F8405B25F40015C6F8405BD6F8DE
:10317000405B45F00065C6F8405BC6F86879D6F854
:10318000605925F40015C6F86059C6F8687BD6F872
:10319000605B25F40015C6F8605BD6F8605B45F00F
:1031A0000065C6F8605B059DA0D1002847D005F5F5
:1031B000106202EB41134FF67F374E019F60955925
:1031C000059B25F4001503F53063955103EB41157C
:1031D000AF609D59012825F400159D519D5945F07A
:1031E00000659D512BD04E1C02EB46147501A76063
:1031F000545903EB461624F400145451B7605F5938
:10320000022827F400175F515F5947F000675F51AC
:1032100015D0881C02EB40174FF67F364101BE6087
:10322000575803EB401027F4001757508660585842
:1032300020F400105850585840F000605850049F37
:103240008421F869442240F00110F86199F80F00D8
:1032500000284FF00B0008BF142108BF42F22B00DA
:103260007B5808BF102218437850B85840F00B0024
:10327000B850386809F29C4220F4FE603860D9F8F2
:10328000000099F8061005F09DFED9F8000041698C
:1032900001F48051416106F057F90146D9F8000068
:1032A00089041AD505F07CFAD9F8000006F010F967
:1032B000D9F8004089F8070000F0C4FB99F807200E
:1032C0000146204606F060FB484600F075FAD9F842
:1032D0000000416901F40051416106F035F9000731
:1032E00006D4D9F8000006F02FF900060DD437E017
:1032F000484600F07BFAD9F80000416901F0080166
:10330000416106F021F900062AD50599886920F067
:103310008000886199F80400022821D309F515740A
:1033200009F11405012640F27B2704E001368642AC
:1033300007F1240714D219F807100129F6D106F075
:103340000F0000EBC0023006D9F8000005EB820147
:1033500058BF04EB820105F0CBFF99F80400E5E7C4
:10336000D9F8000006F0F0F8C0024BD4D9F80000FC
:1033700006F0EAF8059D80027CD599F80410022930
:1033800026D305F53260013909F51F72012304E0E7
:103390002030013902F124021AD007681678012E74
:1033A000F6D1B7F1FF3FF3DCD9F8D46486EA1747CA
:1033B000FF07EDD102F8013CAF6947F08007AF612C
:1033C0006F693F06E4D40499486840F4007048608F
:1033D000D9F80000416901F40011416106F0B4F828
:1033E00040004DD54846FFF7B1FAD9F800004169D1
:1033F00001F08041416106F0A7F840077FF5E1AB9D
:1034000045E000BF99F80400022827D3059909F187
:10341000140401F5126509F13B064FF0010801277C
:1034200006E000BF01372035874206F1240615D299
:1034300029687278012AF5D1B1F1FF3FF2DC07F07B
:103440000F0000EBC001D9F8000004EB810186F801
:10345000008005F04DFF99F80400E3E7D9F800007B
:10346000416901F48011416106F06EF8059D80020A
:103470003FF583AFD9F8000006F066F84000B1D4FC
:10348000D9F8000006F060F840077FF59AABD9F84C
:1034900000004468610704D54846FFF771FAD9F87F
:1034A000000041682143416007B0BDE8F08F000093
:1034B000D0F8E00404F026BDD0F8E00404F038BDF4
:1034C000002804BF01207047F0B581B004460568AC
:1034D00090F8950428B9002084F89404204600F060
:1034E00027F90320B5F1A04F84F8950404BF00200C
:1034F000A071206805F05EFD94E80F00267C009620
:1035000005F05EF9002840F000812068002106F0F7
:1035100075F8002840F0F98094F804E0BEF1000F3F
:1035200000F0EC800EF0030CBEF1040F4FF000022F
:1035300040D30EF0FC03A4F190000321012500BF4D
:10354000CE1E80F8A460A0F8BE608E1E80F8C86011
:10355000A0F8E2604E1E80F8EC60A0F8066180F8EA
:103560001011A0F82A110E1D013180F8A55080F825
:10357000A820C0E92B22C0F8B42080F8C95080F8F8
:10358000CC20C0E93422C0F8D82080F8ED5080F873
:10359000F020C0E93D22C0F8FC2080F8115180F8ED
:1035A0001421C0E94622C0F82021903099423146CA
:1035B000C6D1F21EBCF1000F31D004F1140002EBB1
:1035C000C20100EB8105012300F821200021BCF19C
:1035D000010F6B706A832971C5E9021129611ED040
:1035E000551C05EBC50600EB8607BCF1020F7B708E
:1035F00000F826507D833971C7E9021139610ED078
:10360000911C01EBC10200EB8203012500F822109E
:1036100000205D7059831871C3E902001861BEF182
:10362000000F6BD0BEF1040F4FF0000236D30EF046
:10363000FC000321234600BFCF1E83F854728F1E67
:1036400083F878724F1E83F8C0120D1D013183F884
:10365000552283F85822C3E99722C3F8642283F8DD
:10366000792283F87C22C3E9A022C3F8882283F858
:103670009D2283F89C7283F8A022C3E9A922C3F893
:10368000AC2283F8C12283F8C422C3E9B222C3F872
:10369000D022903381422946CED1EA1EBCF1000FE0
:1036A0002CD004F5157002EBC20300EB8307002158
:1036B000BCF1010F797000F823203971C7E90211BC
:1036C00039611BD0531C03EBC30700EB8706BCF129
:1036D000020F717000F827303171C6E902113161B3
:1036E0000CD0911C01EBC10200EB820300275F703C
:1036F00000F822101F71C3E902771F6194E80F00E0
:10370000277C009705F0FAF930B1022084F895047F
:10371000012001B0F0BD00BF00206074012084F8DA
:103720009504206805F0DAF9002001B0F0BD000032
:10373000B0B586B000680024B0F1A04F0594CDE983
:1037400003440294019401D006B0B0BD43F63005A5
:103750000094C4F20205286801A940F00100286025
:10376000286800F00100009000984FF4C0500190CC
:103770000220CDE90204032004900A2005900020D5
:10378000C4F20200FEF7C2FB6868052140F0800029
:10379000686000946869002240F48040686168694C
:1037A00000F48040009000984320FFF725F8432064
:1037B000FFF710F806B0B0BD10B50446C07928B1C7
:1037C000022801D0FDF71CFF012100E00021D4F800
:1037D000E00404F035FCD4F8E004BDE8104004F047
:1037E000E3BB0000D0F8E00404F010BCD0F8E00423
:1037F00004F016BC90F89424012A04BF02207047FC
:1038000010B5012280F894244174026804461046E1
:1038100006F0A8F8002084F8940410BDD0F8E02445
:1038200000F29C41104604F021BC000010B5044693
:1038300090F89404012804BF022010BD20680121E3
:1038400084F89414C168490606D5617B012903D127
:10385000816B41F48031816305F0D2FD206805F071
:103860002DF9002084F8940410BD000010B5044622
:10387000D0F8E00404F050FC2068D0F8001E41F0BD
:103880000101C0F8001EE07A002808BF10BD4EF606
:103890001050CEF20000016841F00601016010BD39
:1038A000002804BF012070472DE9F04143F60808C5
:1038B000C4F202080446D8F8F8030D4600F00700E9
:1038C000814207D988F8F853D8F8F80300F00700C8
:1038D000A84277D12068810717D5410705D5D8F8C8
:1038E000001041F4E051C8F80010010705D5D8F8E0
:1038F000001041F46041C8F80010D8F80010A26828
:1039000021F0F0011143C8F80010C00740D1D8F8E9
:10391000F80300F00700854207D288F8F853D8F87A
:10392000F80300F00700A8424CD12068410707D5F2
:10393000D8F80010E26821F4E0511143C8F80010F3
:10394000000708D5D8F80000216920F4604040EA5B
:10395000C100C8F8000000F0A3F8D8F800104DF638
:10396000F412C1F30311C0F60002515C40F28C0264
:1039700020FA01F140F20400C2F200000068C2F235
:1039800000021160FEF7AEFE0020BDE8F08100BF2E
:103990006068811E022907D258F8081C89015CBFA3
:1039A0000120BDE8F08111E0012807D158F8081C7A
:1039B00089035CBF0120BDE8F08107E058F8081CCE
:1039C000890703D40120BDE8F08100BFD8F80010BA
:1039D00021F003010843C8F80000FEF76DFB06461E
:1039E00041F28837D8F80000616800F00C00B0EBB5
:1039F000810F8CD0FEF760FB801BB842F2D9032008
:103A0000BDE8F0810F22026043F60802C4F2020210
:103A1000136803F003034360136803F0F00383604B
:103A2000136803F4E053C360D2F800C04FF4E053CE
:103A300003EADC030361D2F8F80300F00700086032
:103A40007047000040F28C00C2F20000006870472E
:103A500040F28C0043F60801C2F20000C4F20201F9
:103A6000006809684DF60422C1F38221C0F6000205
:103A7000515CC8407047000040F28C0043F60801DA
:103A8000C2F20000C4F20201006809684DF6042287
:103A9000C1F34231C0F60002515CC84070470000DB
:103AA00010B543F60404C4F202046168C1F3810155
:103AB00042F20040C0F2F400DFE801F002040A0222
:103AC00010BD00BF41F60030C0F2B70010BD00BF0E
:103AD000206821682368490241F60031C0F2B7012D
:103AE00000F03F02C3F388105CBF42F20041C0F215
:103AF000F401A1FB00010023FCF7F8FB216802227E
:103B0000C1F3014102EB4101B0FBF1F010BD000037
:103B1000002804BF012070472DE9F04182B004461F
:103B2000007843F60006C007C4F202060CD0B06865
:103B300000F00C00042840F081803068800303D539
:103B40006068002800F06881207880071BD5B06885
:103B500010F00C0F09D0B06800F00C00082840F0FD
:103B600087807068400200F183803068800703D549
:103B7000E068012840F050813068216920F0F800A9
:103B800040EAC10030602078000713D42078400755
:103B90002AD4A569002D00F03A81B06800F00C002D
:103BA000082840F0A580012D40F00E81012002B0D0
:103BB000BDE8F0816069002800F082800020C4F236
:103BC00047200121C0F8801EFEF776FA054600BFA7
:103BD000706F8007DAD4FEF76FFA401B0228F7D91E
:103BE000032002B0BDE8F081306C5FEAC0080AD45F
:103BF00000200190306C40F080503064306C00F058
:103C000080500190019847F20007C4F2000738681D
:103C1000C00547D4386840F480703860FEF74CFA2D
:103C2000054600BF3868C0053CD4FEF745FA401B86
:103C30000228F7D9032002B0BDE8F081B06800F097
:103C40000C00082803D1706840023FF576AF616828
:103C50003068B1F5803F07D0B1F5A02F40F09A80D1
:103C600040F480203060306840F4803030609AE06A
:103C7000E068002840F20000C4F247205CD0012137
:103C80000160FEF719FA0546306880073FF574AF0A
:103C9000FEF712FA401B0228F6D9032002B0BDE855
:103CA000F08100BFA168306F012905D0052955D1E9
:103CB00040F004003067306F40F00100306756E09C
:103CC0000020C4F247200021C0F8801EFEF7F4F95E
:103CD000054600BF706F80077FF558AFFEF7ECF91F
:103CE000401B0228F6D9032002B0BDE8F08100BFD6
:103CF0000027C4F2472700203866FEF7DDF9022DC1
:103D000005460DD13068800140F18A80FEF7D4F974
:103D1000401B02284FF00300F4D902B0BDE8F08147
:103D20003068800173D5FEF7C7F9401B02284FF0B9
:103D30000300F5D9F1E700BF00210160FEF7BCF9EF
:103D4000054600BF306880077FF51DAFFEF7B4F968
:103D5000401B02284FF00300F4D9DEE720F00100F9
:103D60003067306F002920F0040030677AD0FEF70A
:103D7000A3F9054641F28837306F800700F184804F
:103D8000FEF79AF9401BB842F6D9032002B0BDE80D
:103D9000F08100BF20F4803030603068002920F4CA
:103DA000802030607AD0FEF787F9054630688003BE
:103DB0003FF5CAAEFEF780F9401B6428F6D9032010
:103DC00002B0BDE8F08100BF7068E16900F48002D4
:103DD0008A4221D1216A00F03F028A421CD147F673
:103DE000C071626A0140B1EB821F15D1A16A4FF622
:103DF000FF73C903994300F44032A1F580318A4230
:103E00000AD1E16A00F07060B0EB016F04D10020CC
:103E100002B0BDE8F08100BF012002B0BDE8F08132
:103E200004F11C052FCD084340EA8210D9034FF658
:103E3000FF729143A1F5803140EA0560084370604C
:103E400001203866FEF738F9044600BF306880016B
:103E5000DDD4FEF731F9001B02284FF00300F5D93D
:103E60005BE700BFFEF728F9054641F2883700BF3F
:103E7000306F800708D5FEF71FF9401BB8424FF09E
:103E80000300F5D949E700BFB8F1000F3FF581AE57
:103E9000306C20F0805030647BE600BFFEF70CF9F8
:103EA000054600BF306880037FF54EAEFEF704F98B
:103EB000401B64284FF00300F4D92EE770B528B1F9
:103EC000416A29B100210161142106E0012070BD81
:103ED0004168B1F5827F02D01C21002242500026A9
:103EE000866290F8511029B980F85060054600F0BC
:103EF0003DF82846022180F8511090E82E0002F487
:103F000082720C6803F4044324F040040C601A44E9
:103F100005F4006305691A4405F0020345691A4473
:103F200005F001038569C4691A4405F400731A4455
:103F300004F03803046A1A4404F08003846A1A43C4
:103F400004F400531A430A60436A042202EA154249
:103F500003F010031A444A60CA6922F40062CA617D
:103F60000121466580F85110304670BD2DE9F04FB3
:103F700087B0044643F200070068C4F20107002638
:103F8000B8420696CDE904660396029602D007B0C1
:103F9000BDE8F08F43F630000196C4F2020041699B
:103FA00002AD41F480514161416946F2404801F45B
:103FB000805101910199019601684FF0020941F089
:103FC0000201016001684FF0030A01F00201019152
:103FD0000199019601684FF0050B41F00101016064
:103FE0000068294600F00100019001981820029015
:103FF00007F55440C4F20208CDE90396CDF814A0A9
:10400000CDF818B0FDF782FF8020CDE9020904A8A1
:1040100080E8400C07F550402946FDF777FF41F650
:10402000B435C2F200054FF0C0674FF480692846EE
:10403000C5E90087C5E90266C5E90496C5E90666D3
:10404000C5E90866FDF716FE002818BFFDF7D8FA87
:10405000E564AC6341F6144508F11800C2F20005AE
:104060004021C5E9000705F10800002280E80602AA
:104070002846C5E90522C5E907226A62FDF7FAFD6F
:10408000002818BFFDF7BCFAA564AC6307B0BDE813
:10409000F08F00002DE9F04383B01E4615460F4611
:1040A0000446FEF709F894F851108146012909D118
:1040B000002F4FF0010018BF002D0FD103B0BDE855
:1040C000F08300BF6068B0F5827F0DD104294FF006
:1040D0000200F3D1A1680029EAD0EFE7002EEDD06D
:1040E00094F85000012803D1022003B0BDE8F0830A
:1040F000012084F8500094F85100002104281CBFCE
:10410000052084F851006165A563E687A6872763CB
:10411000E6862068A686216461640168490603D4A6
:10412000016841F0400101606168731EE268B1FA04
:1041300081F1B3FA83F3DDF8288049095B09B2F510
:10414000006F41EA030165D131B137F8021BC1604C
:104150002763E08E0138E086012518F1010032D195
:1041600002E000BFFDF7A8FFE08E18B9E08F00283D
:1041700000F0B8802068816889070CD5E18E51B1C4
:10418000012D08D1216B002531F8022BC26021637B
:10419000E18E0139E1868168C907E3D0E18F00290A
:1041A000E0D0C068A16B012521F8020BA163E08F6C
:1041B0000138E087D6E700BFFDF77EFFA0EB0900DE
:1041C000404580F0A580E08E18B9E08F002800F00F
:1041D00089802068816889070CD5E18E51B1012D55
:1041E00008D1216B002531F8022BC2602163E18EDA
:1041F0000139E1868168C907DED0E18F0029DBD073
:10420000C068A16B012521F8020BA163E08F013882
:10421000E087D1E739B139780173206B0130206331
:10422000E08E0138E086012518F1010032D101E06D
:10423000FDF742FFE08E10B9E08F002852D02068D1
:10424000816889070ED5E18E61B1012D0AD1216BFC
:10425000002509780173216B206801312163E18E0B
:104260000139E1868168C907E2D0E18F0029DFD0FA
:10427000C068A16B01250870A06B0130A063E08FBE
:104280000138E087D4E700BFFDF716FFA0EB090077
:1042900040453DD2E08E08B9E08F18B320688168B0
:1042A00089070ED5E18E61B1012D0AD1216B002560
:1042B00009780173216B206801312163E18E013996
:1042C000E1868168C907DFD0E18F0029DCD0C068B2
:1042D000A16B01250870A06B0130A063E08F01384D
:1042E000E087D1E72046022101224346CDF8009025
:1042F00002F056FEB0B1606D40F0200060652020F5
:104300006065002084F85000012003B0BDE8F08310
:10431000012084F85100002084F85000032003B0ED
:10432000BDE8F08340F28C00C2F20000006849F65C
:104330008171C1F25E61A0FB0101480D4FF47A71F9
:10434000484302906068B0F5827F0BD120468021FF
:1043500000224346CDF8009002F022FE0028CAD188
:1043600021E000BF0298F0B1029801380290206865
:104370008168090617D50299A9B1029901390291FC
:10438000816809060FD5029969B102990139029134
:104390008168090607D5029929B10299013902916C
:1043A00080680006DED4A06838B90020019020683B
:1043B000C1680191806801900198012084F8510042
:1043C000002084F85000606D002818BF012003B061
:1043D000BDE8F0837047000070470000002804BF6C
:1043E0000120704710B5044690F83D0028B9002020
:1043F00084F83C00204600F01FF8022084F83D00BD
:104400002068211D02F0FAFE012084F8460084F89D
:104410003E0084F83F0084F8400084F8410084F8AE
:10442000420084F8430084F8440084F8450084F88E
:104430003D00002010BD0000006844F20041C4F2BD
:104440000101884218BF704781B00020009043F6F8
:104450004400C4F20200016841F4003101600068C8
:1044600000F400300090009801B0704790F83D10C3
:1044700001291CBF01207047022180F83D1000680F
:1044800041F2FF72C168C4F20002904241F00101A2
:10449000C1600DDC40F2FF71C4F20001884215DCFE
:1044A000B0F1804F2AD040F20041C4F2000123E075
:1044B00040F2FF31C4F20101884213DC41F60001F1
:1044C000C4F20001884219D0002113E040F6000137
:1044D000C4F20001884211D040F60041C4F200014C
:1044E0000AE000BF44F20001C4F20101884205D095
:1044F00040F20041C4F20101884206D1816801F016
:104500000701062904BF00207047016841F001013E
:1045100001600020704700007047000070B504463D
:104520000068C5680669B10716D515F0020113D0F9
:104530006FF002010161012121778069800703D0BA
:104540002046FFF7E9FF05E0204600F08FF82046FF
:1045500000F0CEF900202077700719D515F004007F
:1045600016D020686FF00401016102212177806973
:1045700010F4407F04D02046FFF7CEFF06E000BFD6
:10458000204600F073F8204600F0B2F900202077B2
:10459000300717D515F0080014D020686FF0080117
:1045A000016104212177C069800703D02046FFF70D
:1045B000B3FF05E0204600F059F8204600F098F9D6
:1045C00000202077F00619D515F0100016D02068CD
:1045D0006FF01001016108212177C06910F4407F5C
:1045E00004D02046FFF798FF06E000BF204600F009
:1045F0003DF8204600F07CF900202077F00718BF36
:1046000015F0010002D1300609D412E020686FF0E5
:1046100001010161204600F0F5F9300609D515F0D9
:10462000800006D020686FF0800101612046FFF70E
:10463000D1FE700609D515F0400006D020686FF055
:1046400040010161204600F0E7F9B00658BF70BD97
:1046500015F0200008D021686FF0200220460A6182
:10466000BDE87040FFF7B8BE70BD000070470000A5
:1046700090F83C30012B04BF022070474FEAB20291
:10468000032A00F2FF802DE9F043DFE802F003B1D6
:104690003F7F00BF036840F200461C6A1A6A24F09C
:1046A000020422F001021A621A46D3F804C052F83A
:1046B00018EF8F6843F48065C4F20106B54244EAFE
:1046C000070405D1CF6824F00C0427F004073C430D
:1046D0000F68B54206D1D1E905582CF440762E4337
:1046E00046EA080C2EF073063743C3F804C09F61F6
:1046F0004F6809695F631C629F6947F008079F6103
:104700009F6927F004079F61B1E000BF036840F292
:1047100000481C6A1A6A24F4007422F480721A6237
:104720001A46D3F804C052F81CEF8F6843F4806532
:10473000C4F20108454544EA072408D1CF6840F295
:10474000FF463F0224F4406427EA06063443D1F8CA
:104750000090454506D1D1E905562CF440572E432B
:1047600047EA061C2EF0730747EA0907C3F804C09E
:10477000DF614F680969DF631C62DF6947F0080782
:10478000DF61DF6927F00407DF6170E0036840F252
:104790000045D3F820C01A6A43F4806722F480529F
:1047A0001A621A465C6852F81C8FD1F800E08E68D5
:1047B000C4F20105AF4204D14D6924F4804444EAB7
:1047C00085142CF4005747EA063728F4E64646EAF3
:1047D0000E265C60DE614E6809691E641F62DF6937
:1047E00047F40067DF61DF6927F48067DF613DE040
:1047F000036840F200481C6A1A6A24F0200422F080
:1048000010021A621A46D3F804C052F818EF8F68E3
:1048100043F48065C4F20108454544EA071407D112
:10482000CF686FF0400624F0C00406EA0716344350
:10483000D1F80090454506D1D1E905562CF44067E2
:104840002E4347EA860C2EF4E64747EA0927C3F8C9
:1048500004C09F614F6809699F631C629F6947F4A8
:1048600000679F619F6927F480679F610902136851
:10487000194311600021BDE8F043002280F83C207C
:10488000084670470121002280F83C200846704706
:10489000002804BF0120704710B5044690F83D0081
:1048A00028B9002084F83C00204600F01FF80220C0
:1048B00084F83D002068211D02F0A0FC012084F84E
:1048C000460084F83E0084F83F0084F8400084F8F5
:1048D000410084F8420084F8430084F8440084F8DE
:1048E000450084F83D00002010BD00007047000026
:1048F00070470000C1B1042908D0082914BF412223
:104900004022825C012A05D016E000BF3F22825C73
:10491000012A11D10222082910D0042914BF80F8DD
:10492000412080F83F200BE090F83E20012A03D17F
:10493000022280F83E2003E00120704780F84020EA
:10494000006801F01F010122036A02FA01F123EA63
:1049500001020262026A114341F2FF72C4F20002D4
:10496000904201620CDC40F2FF71C4F20001884207
:1049700014DCB0F1804F37D040F2004116E000BFA8
:1049800040F2FF31C4F20101884215DC41F600011A
:10499000C4F20001884227D0002115E040F6000152
:1049A000C4F2000188421FD040F60041C4F2000169
:1049B000884219D01FE000BF44F20001C4F2010197
:1049C000884211D040F20041C4F20101884212D164
:1049D000416C40F2004340F48062C4F2010341F4B0
:1049E00000419A42416406D1816801F0070106291D
:1049F00004BF00207047016841F001010160002000
:104A000070470000006840F20041C4F20101884292
:104A100018BF7047FDF73CBE70470000FEE700007E
:104A20002DE9F04782B0044600689A460B9D0A9E25
:104A30000368914643F48062026002680F4642F4C4
:104A40008071016020464FF001110022334600952D
:104A500000F032F950B120680068C00544BF4FF43F
:104A600000702064032002B0BDE8F08740F2020825
:104A70002068C0F2010807F0FE07076120464146A2
:104A800032462B4600F0FEF920B1012002B0BDE80D
:104A9000F08700BF0020019020682A4641690191FB
:104AA0008069314601900198204600F09FFAB0B924
:104AB0002068BAF1010F09D04FEA1921016120469F
:104AC00031462A4600F092FA48B920685FFA89F127
:104AD0000161204631462A4600F088FA60B1206C18
:104AE0000428D2D12068016841F4007101600120DE
:104AF00002B0BDE8F08700BF20680022016833469D
:104B000041F48071016020464FF00111009500F0E2
:104B1000D3F800289FD147F0010C27682046414672
:104B200032462B46C7F810C002B0BDE8F04700F08F
:104B3000A9B900002DE9F04383B0044600680F4690
:104B400001680A9D0B9E41F4807199469046016070
:104B500020464FF0011100222B46009600F0ACF8E1
:104B600050B120680068C00544BF4FF40070206455
:104B7000032003B0BDE8F083206807F0FE01016167
:104B80000221C0F2010120462A46334600F07AF99C
:104B900020B1012003B0BDE8F08300BF00200290E7
:104BA0002068324641690291806929460290029844
:104BB000204600F01BFA58B1206C0428E9D1206887
:104BC000016841F400710160012003B0BDE8F08389
:104BD0002068B9F1010F0AD04FEA1821016120467F
:104BE0002946324600F002FA0028E5D120685FFA33
:104BF00088F10161002003B0BDE8F08370B503685F
:104C0000044653F8140F400711D40E46481C29D00F
:104C100086BB00BF1868400527D4FDF74DFA23680E
:104C200053F8140F400737D518684007F2D5002015
:104C300070BD00BF18684007F9D41868400514D447
:104C400018684007F3D4186840050ED41868400768
:104C5000EDD41868400508D4186840074FF00000EC
:104C600048BF70BD18684005E4D56FF480601860D7
:104C7000042012E0154603E053F8140F4007D6D481
:104C800018684005F1D4FDF717FA401B2368B042BD
:104C9000F2D958694007EFD4202000212022216357
:104CA00084F83D2084F83E10226C104320640120DB
:104CB00084F83C1070BD00002DE9F0410546006805
:104CC0001E46144601F47F0201338FB242D0DDF854
:104CD0001880B2F5803F40F0878040693840C01BA3
:104CE000B0FA80F04009844240F0C8804EB924E018
:104CF00040693840C01BB0FA80F04009844240F05F
:104D0000BD80FDF7D9F9A0EB08012868B142EFD9C1
:104D100041693940C91BB1FA81F149098C42E7D197
:104D20009BE000BF40693840C01BB0FA80F04009EA
:104D300084424FF0000040F0A280FDF7BDF92868E2
:104D400041693940C91BB1FA81F149098C42E9D165
:104D500083E000BFB2F5803F24D100BF41693940F4
:104D6000C91BB1FA81F149098C4240F08780416941
:104D70003940C91BB1FA81F149098C4240F07E806B
:104D800041693940C91BB1FA81F149098C4275D199
:104D900041693940C91BB1FA81F149098C42DDD022
:104DA0006CE000BF81693940C91BB1FA81F1490942
:104DB0008C4263D181693940C91BB1FA81F149093B
:104DC0008C425BD181693940C91BB1FA81F1490933
:104DD0008C4253D181693940C91BB1FA81F149092B
:104DE0008C42DFD04AE000BF80693840C01BB0FA77
:104DF00080F04009844241D146B923E080693840BF
:104E0000C01BB0FA80F04009844237D1FDF754F955
:104E1000A0EB08012868B142F0D981693940C91B6B
:104E2000B1FA81F149098C42E8D116E08069384035
:104E3000C01BB0FA80F0400984424FF0000018BF58
:104E4000BDE8F081FDF738F9286881693940C91B50
:104E5000B1FA81F149098C42E8D100202021286370
:104E600085F83D1085F83E00296C41F02001296449
:104E700085F83C000120BDE8F08100BF0020BDE8BE
:104E8000F0810000F0B581B0044600681D4643691A
:104E90008FB203EA0701B94202D1002001B0F0BD90
:104EA0004169164601323CD0490512D47EB300BF99
:104EB000FDF702F9411B2068B14203D9416939402D
:104EC000B9422BD141693940B942E6D0416949051F
:104ED000EED5016841F4007101606FF480614161B9
:104EE000042000212022216384F83D2084F83E1014
:104EF000226C1043206484F83C10012001B0F0BD06
:104F000041693940B942C8D041694905E1D4FDF74A
:104F1000D3F8206841693940B942F1D02020E0E758
:104F200041694905D5D441693940B942B5D0416993
:104F30004905CED441693940B942AED041694905ED
:104F4000C7D441693940B942A7D041694905C0D4A5
:104F500041693940B942E3D19FE7000070B504468A
:104F60000068154650F8143F5A063DD40E4629B93C
:104F700026E000BF50F8141F490635D40168C90661
:104F800021D4FDF799F8411B2068B142F2D941695B
:104F90004906EFD400202021206384F83D1084F8D6
:104FA0003E00206C40F0200018E000BFFDF784F8C0
:104FB000206850F8141F4906ECD50168490613D43F
:104FC0000168C906F2D56FF01001016000202021B0
:104FD000206384F83D1084F83E00206C206400209B
:104FE00084F83C00012070BD002070BD70B50368DE
:104FF000044653F8140F000611D40E46481C29D05D
:1050000086BB00BF1868400527D4FDF755F8236814
:1050100053F8140F000637D518680006F2D50020A3
:1050200070BD00BF18680006F9D41868400514D494
:1050300018680006F3D4186840050ED418680006F6
:10504000EDD41868400508D4186800064FF0000039
:1050500048BF70BD18684005E4D56FF480601860E3
:10506000042012E0154603E053F8140F0006D6D4CE
:1050700018684005F1D4FDF71FF8401B2368B042C3
:10508000F2D958690006EFD42020002120222163A4
:1050900084F83D2084F83E10226C104320640120E7
:1050A00084F83C1070BD00008CB0072005F048FD6E
:1050B000FBF7CCFE58B100BF642005F041FDFBF7C3
:1050C000C5FE0028F8D102E0642005F039FD05F0A6
:1050D0007FFC0028F8D140F2A439C2F2000909F19E
:1050E000140609F1040709F11005304639462A462D
:1050F000FBF7C4FE05F084FA9FED468A9FED460A51
:10510000DFED460ADFED461A9FED462A09F1480019
:10511000B0EE481A069001F0A3F840F2483AC2F205
:10512000000A4FF07E500021CAE90F010020CAE9B1
:10513000111105F041FD06F0BDFC40F2D02BC2F28A
:10514000000BCBF8100042F2AC10C2F200001021AC
:10515000C161FEF7B3FE08B1FCF752FA002440F635
:10516000B738B0EE489AB0EE48AA00BF304639468C
:105170002A46FBF783FE99ED050A99ED061A99ED8B
:10518000072A01203AEE00AA39EE019A38EE028A87
:1051900005F0D6FC444504F10104E7D39FED220A53
:1051A000CDE908578AEE001A89EE002A88EE000A37
:1051B00040F20805C2F20005281D0BF13401082257
:1051C0000A9689ED0E1A89ED0F2A89ED100A01F071
:1051D0004DFE012040F260189FED14BA9FED14CAF5
:1051E0009FED14DA9FED14FADFED148A40F22444A7
:1051F0009FED138A8BF80400C2F200080AF13C0705
:10520000FFEE00FAC2F200040BF116000026079030
:105210009AE100BF000000000000C844CDCC4C3E25
:1052200000A08C450080894500803B455D896EBFAC
:105230005AF8F63FD5A9183B00003443DA0F49402D
:105240000000344241F2873005F060FBD9ED054A99
:10525000D9ED065A95ED060A95ED076A99ED071AFC
:10526000D5ED080A25EE866A24EE800AD9ED011AEA
:10527000D9ED022AD5ED0F3A30EE060A21EE206A6A
:10528000D5ED100A99ED037A36EE000A22EEA06AF7
:1052900061EEA30AD5ED113A9AED093A30EE866A2D
:1052A00067EE230A30EE866A9AED144A9AED155A93
:1052B00033EE066A98ED003AD8ED010A9AED162A07
:1052C000D8ED023A65EE200A24EE033A33EE203A96
:1052D00062EE230ADAED0C3A30EE833A33EE833A8B
:1052E000D5ED0A0AD5ED093AD5ED0B6A65EEA00AAF
:1052F00064EEA33A73EEA00A61EE263A73EEA00ABA
:10530000D5ED133AD5ED126AD5ED147A62EEA33AD3
:1053100061EEA66A76EEA33A67EE276ADAED0A7ABC
:1053200076EEA33A77EEA36AD8ED043AD8ED037A85
:1053300098ED059A65EE233A64EE277A77EEA33A64
:1053400062EE097A9AED0D9A77EEA33AD5ED0D7AD1
:1053500079EE233A95ED0C9A65EEA75AD5ED0E7AC3
:1053600064EE894A74EEA54A21EE271A31EE241A1A
:10537000D5ED164AD5ED155A62EEA42AD5ED174A99
:1053800061EEA51A71EEA21A27EE247ADAED0B2A45
:1053900037EE217A32EE877AD8ED071AD8ED062A51
:1053A00025EE215A24EE224A34EE054A98ED085A99
:1053B0008BED156A22EE052A9AED0E5A32EE042A7A
:1053C00035EE024A9BED092A9BED065A8BED062A23
:1053D00025EE0B5A22EE0C2A32EE052A26EE0D5A45
:1053E00075EE021A9BED0A2A9BED075A8BED072AF0
:1053F00025EE0B5A22EE0C2A32EE052A26EE8D5AA5
:1054000035EE022A9BED0B5A9BED086A0BF1480022
:105410008BED085A26EE0B6A25EE0C5A80EC030A37
:105420000BF1600035EE065A27EE0D6A80EC033A68
:105430000BF1240076EE052AC0EC031A3846CBEDBA
:10544000166A8BED177A00F08BFBDAED0FAADAED16
:1054500010BADAED11CADAED12DA2BEEAC0A2AEE46
:10546000AD1A31EE000A2BEEAB1A6AEEAAEA3EEE56
:10547000811A31EE011A30EE000A71EE2F0A08F09F
:1054800041F8B0EE409A8BED1B0A2AEEAC0A2BEEE7
:10549000AD1A30EE410A30EE000A07F09DFFB0EE83
:1054A00040AA8BED1C0A2DEEAC0A2AEEAB1A31EEA7
:1054B000000A2DEEAD1A3EEE811A31EE011A30EEE1
:1054C000000A71EE2F0A08F01DF829EE0F1A81EE7E
:1054D000281A2AEE0F2A20EE0F3A82EE282A83EEAF
:1054E000283A8BED1D0A31EE0F0A10EE100A8AEDF4
:1054F000000A32EE0F9A33EE0FAA8AED019A8AED76
:1055000002AA08F0ADF941EC1E0B19EE100A08F0E2
:10551000A7F941EC190B1AEE100A08F0A1F941ECB9
:10552000100B204640215BA28DED00EB8DED029B20
:105530008DED040BFAF752FF81B22046FBF7DAFD3E
:105540000BA8012106F008F807F052FA0B9000BFF3
:1055500001204FF0FF3105F007FE0128F8D19BF83C
:1055600006009BF80610012222EA0000064441B919
:10557000B0B2B0F5FA7F82BF01208BF806004FF47D
:105580002F769BF8000040070AD49BF801004007E3
:105590002CD49BF8020040077FF558AE38E000BFDE
:1055A0009BF8000000F0FB01584600F8351B0A99F3
:1055B000FBF724FC99ED050A99ED061A99ED072AE7
:1055C00099ED0E3A99ED0F4A99ED105A30EE430AD3
:1055D00031EE441A32EE452A89ED050A89ED061AA4
:1055E00089ED072A9BF801004007D2D59BF80100FE
:1055F00009F1200200F0FB008BF8010009990BF182
:105600003E00FBF7B9FB9BF8020040077FF51EAE9A
:105610009BF8020000F0FB008BF80200DDE90701B7
:10562000FBF712FD9BF8090099ED040A012815D13A
:105630000698F0EE480A00F0B3FD99ED1E0AB5EEAB
:10564000400AF1EE10FA04DA9FED110A0020C9F8C1
:105650007800BDEEC00A10EE100AF5E5B4EE480A77
:10566000F1EE10FA7FF7EEAD9BF808000130C1B201
:10567000C9298BF80800FFF4E5AD01208BF809007B
:1056800044F20000C4F21C50C9F87000DAE500BF13
:1056900000000000252E33662C252E33662C252E87
:1056A00033660D0A0000000080B541F6643046F212
:1056B0000041C2F20000C4F200010023102280E881
:1056C0000E00C0E90333C0E905338383FCF7CEF84D
:1056D000002808BF80BDBDE88040FBF791BF0000F7
:1056E00080B541F68C3046F60001C2F20000C4F2EB
:1056F00000010023102280E80E00C0E90333C0E956
:1057000005338383FCF7B2F8002808BF80BDBDE8ED
:105710008040FBF775BF000080B582B0002001908B
:1057200043F63000C4F202000168002241F4800117
:1057300001600068052100F48000019001983A2082
:10574000FDF75AF83A20FDF745F83B2005210022E5
:10575000FDF752F83B2002B0BDE88040FDF73AB8B3
:1057600070B58EB0134808AC079012A000F1040E7B
:105770009EE80E50806984E80E500D9007A8002125
:1057800005F0ECF940F2F016C2F200061049306064
:105790000FA0051D00913ECD80690DF1040C8CE831
:1057A0003E0006906846002105F0D8F970600EB002
:1057B00070BD00BF32DA0008F5700008000000007C
:1057C0000000000080000000000000000000000059
:1057D0003EDA0008A95000080300000000000000A5
:1057E0000002000000000000000000002DE9F04F62
:1057F00087B0002743F630000697CDE90477CDE95E
:1058000002770197C4F20200016841F6000441F0FA
:10581000020101600168C4F2020401F00201019179
:10582000019901970168012241F0010101600168BD
:105830004FF0400A01F001010191019901970168BF
:10584000012541F008010160016801F008010191A2
:1058500001990197016841F004010160016801F0BC
:105860000401019101990197016841F080010160F3
:10587000016801F08001019101990197016841F0EF
:1058800020010160016801F0200101910199019757
:10589000016841F0400101600068402100F04000D3
:1058A000019001982046FCF701FCA4F5C056304653
:1058B00010210122FCF7FAFBA4F5A0584046012173
:1058C0000122FCF7F3FB4FF4881BCDE903B702AFCD
:1058D0004FF00209A4F580603946CDF80890FCF736
:1058E00015FB20463946CDE902A5CDE90455FCF764
:1058F0000DFB0920CDE9020B204639460495FCF743
:1059000005FB1020CDE9020530463946CDE90459A2
:10591000FCF7FCFA3020CDE9020BA4F580503946A3
:105920000495FCF7F3FA40463946CDE90255CDE936
:105930000459FCF7EBFA062005210022FCF75CFF76
:105940000620FCF747FF072005210022FCF754FF43
:105950000720FCF73FFF092005210022FCF74CFF40
:105960000920FCF737FF0A2005210022FCF744FF3D
:105970000A20FCF72FFF172005210022FCF73CFF2F
:105980001720FCF727FF07B0BDE8F08F80B541F680
:10599000744045F60041C2F20000C4F2000141F635
:1059A000802200234FF4804CC0F2060280E80E00F3
:1059B000C0E9033CC0E90533C0E90733FCF782FBCB
:1059C000002808BF80BDBDE88040FBF719BE00007D
:1059D000B0B542F2AC1043F20001C2F20000C4F2D2
:1059E00001014FF48272002380E80E0000F10C01E7
:1059F0004FF0020C4FF0010E4FF40074382581E88F
:105A000008500A21C0E90645C0E90833C0E90A3157
:105A1000FEF754FA002808BFB0BDBDE8B040FBF760
:105A2000EFBD000070B58EB044F2004542F2042094
:105A3000C4F201050021C2F20000A72241F287331F
:105A4000CDE90611CDE90411C0E90052C0E9021305
:105A500001618161FEF7C2FC002818BFFBF7D0FD91
:105A600042F20420C2F20000FEF712FF002818BF25
:105A7000FBF7C6FD42F204246020C2F2000401904C
:105A8000002601A920460022CDE902660596FEF710
:105A9000EFFD002818BFFBF7B3FD20680D96A84264
:105AA000CDE90B660A96099602D00EB070BD00BF14
:105AB000002043F630010890C4F202010A6842F067
:105AC00020020A60096801F020010891089940212C
:105AD00009910221CDE90A100C9003200D9005F5E3
