:020000040800F2
:10000000C0060020B5010008991300084912000835
:1000100095130008BD020008AD13000800000000A1
:10002000000000000000000000000000A113000814
:10003000C1020008000000009D130008A51300087D
:10004000CF010008CF010008CF010008CF01000850
:10005000CF010008CF010008CF010008CF01000840
:10006000CF010008CF010008CF010008CF01000830
:10007000CF010008CF010008CF010008CF01000820
:10008000CF010008CF010008CF010008CF01000810
:10009000CF010008CF010008CF010008CF01000800
:1000A000CF010008CF010008CF010008CF010008F0
:1000B000CF010008CF010008CF010008CF010008E0
:1000C000CF010008CF010008CF010008CF010008D0
:1000D000CF010008CF010008CF010008CF010008C0
:1000E000CF010008CF010008CF01000800F002F89E
:1000F00000F050F814A696E8000CB244B344DA4578
:1001000001D100F047F8BAE80F000FA696E83000DA
:10011000A5EB040504EB0607AAEB0704A7F101070A
:100120004FEA15154FEA3414A4F10104AC4201D38F
:1001300000F030F813F0010F18BFFB1A43F0010371
:1001400000F001F8DBE718474C1300006C130000C7
:10015000103A24BF78C878C1FAD8520724BF30C8F3
:1001600030C144BF04680C60704700007047000055
:100170000023002400250026103A28BF78C1FBD8B0
:10018000520728BF30C148BF0B6070471FB51FBD65
:1001900010B510BD00F058F81146FFF7F7FF01F059
:1001A00007F900F076F803B4FFF7F2FF03BC00F0A4
:1001B0007DF800000948804709480047FEE7FEE750
:1001C000FEE7FEE7FEE7FEE7FEE7FEE7FEE7FEE707
:1001D00004480549054A064B70470000A91300086A
:1001E000ED000008C0000020C0060020C002002072
:1001F000C00200204FF0000200B513469446964618
:10020000203922BFA0E80C50A0E80C50B1F1200129
:10021000BFF4F7AF090728BFA0E80C5048BF0CC0D7
:100220005DF804EB890028BF40F8042B08BF704735
:1002300048BF20F8022B11F0804F18BF00F8012BA7
:100240007047704770477047754600F02BF8AE4610
:1002500005006946534620F00700854618B020B5D2
:10026000FFF7B6FFBDE820404FF000064FF0000753
:100270004FF000084FF0000BAC46ACE8C009ACE80A
:10028000C009ACE8C009ACE8C00921F007018D46FF
:10029000704710B50446AFF300802046BDE810401B
:1002A000FFF781BF00487047100000200149182067
:1002B000ABBEFEE72600020070470000FEE700002C
:1002C00070470000EFF3108072B600BFFEE7000039
:1002D000B0B5044600F012F9054640F20400C2F23F
:1002E00000000078611C18BF044400BF00F006F94C
:1002F000401BA042FAD3B0BD2DE9F04F82B00E688A
:10030000002E00F0F78041F20042C4F20102042303
:1003100040F2004E904208BF03234FF6FF7CC4F228
:10032000010E009300240123C1F2100C4FF0000ACB
:100330004FF000094AE041F20002C4F20102009FBE
:10034000904208BF022704F00C030F229A402BEAC8
:10035000020207FA03F34FEA9A051A4346F82520EA
:100360004E6840F20C45F202DEF8082054BF22EA43
:10037000080242EA0802C4F20105CEF808202A6801
:10038000B30254BF22EA080242EA08022A60B30319
:10039000DEF8042054BF22EA080242EA0802F3030E
:1003A000CEF80420DEF800204FF0010354BF22EA0B
:1003B000080242EA0802CEF800200E680AF1010A9B
:1003C00036FA0AF204F1040400F0948003FA0AFBFE
:1003D00016EA0B08F1D04E68664511DC122E51D892
:1003E000DFE806F0340A4946505050505050505003
:1003F0005050505050424D00D1F80C9042E000BF98
:100400004FF6FF72C1F2210296420FDC0022C1F2C8
:10041000110296421AD00022C1F21202964215D061
:100420000022C1F22102964210D02BE00022C1F23C
:10043000220296420AD00022C1F23102964205D031
:100440000022C1F2320296421CD100BF8A6842B13A
:10045000012A14BFC0F814B0C0F810B04FF008095A
:1004600010E04FF004090DE0CA6802F1040909E048
:100470004FF0000906E0CA6802F1080902E0CA6804
:1004800002F10C0902462646B8F5807F24BF0432EB
:10049000203E17680F25B54027EA050509FA06F63C
:1004A00035431560CA79D2067FF587AF41F218034C
:1004B000C4F202031A68AEF57E7642F001021A60B9
:1004C0001A6802F001020192019A2AF0030256F81A
:1004D00002B040F60002C4F20102904208D040F699
:1004E0000042C4F2010290427FF425AF01272AE7BF
:1004F000002728E702B0BDE8F08F000040F2BC0002
:10050000C2F200000068704740F2040040F2BC01F3
:10051000C2F20000C2F2000100780A6810440860CC
:100520007047000080B542F20000C4F2020001688A
:1005300041F010010160032000F07EF80F2000F070
:1005400005F800F02BF8002080BD0000B0B540F2A7
:100550000402C2F2000240F200011278C2F200016D
:100560004FF47A730968B3FBF2F20446B1FBF2F17F
:10057000084600F0E7FA0F2C4FF001050CD858B9E7
:100580004FF0FF3021460022002500F029F840F20C
:100590000800C2F2000004602846B0BD82B041F2FB
:1005A0001800C4F202000168022241F0010101605A
:1005B000016801F0010101910199416841F0805108
:1005C0004160406800F08050009000980420C4F220
:1005D0000100016862F31A61016002B07047000017
:1005E00010B54EF60C5CCEF2000CDCF80030C3F314
:1005F000022E8EF00704042C28BF0424BEF103034E
:100600004FF0FF3E0EFA04F438BF0023A143994097
:100610000EFA03F39A43114300F1604200F00F0316
:10062000090102F56442043B6344002848BF03F11A
:100630000C02117010BD00004EF60C51CEF20001FC
:100640000A684FF6FF031A4060F30A2242F0806006
:1006500040F0FD7008607047002804BF012070471B
:100660002DE9F04381B042F20008C4F202080446CA
:10067000D8F800000D4600F0070081420CD9D8F8E8
:10068000000020F007002843C8F80000D8F8000058
:1006900000F00700A8426BD1206841F204098107ED
:1006A000C4F2020917D5410705D5D9F8001041F465
:1006B000E061C9F80010010705D5D9F8001041F430
:1006C0006051C9F80010D9F80010A26821F0F001BB
:1006D0001143C9F80010C00741D1D8F8000000F05C
:1006E000070085420CD2D8F8000020F0070028430C
:1006F000C8F80000D8F8000000F00700A84237D181
:100700002068410707D5D9F80010E26821F4E061BC
:100710001143C9F80010000708D5D9F80000216975
:1007200020F4605040EAC100C9F80000D9F8002068
:1007300002F00C00082841F20020C0F27A0049D1F2
:1007400041F28243C2F38341C0F60003595CD203F5
:1007500034D440F60010C0F23D0048433AE06068EF
:1007600059F8041C022807D0012824D1890305D494
:10077000012001B0BDE8F0838901F9D5D9F8001056
:1007800021F003010843C9F80000FFF7B7FE064651
:1007900041F28837D9F80000616800F00C00B0EB36
:1007A000810F9AD0FFF7AAFE801BB842F2D903202E
:1007B00001B0BDE8F0838907DAD5DFE7D9F800207A
:1007C00041F28043C2F34042C0F600039A5C4843C2
:1007D000B0FBF2F0D9F8001041F27042C1F30311FE
:1007E000C0F60002515C40F2000220FA01F140F232
:1007F0000800C2F200000068C2F200021160FFF7B8
:10080000A5FE002001B0BDE8F0830000002804BF71
:10081000012070472DE9F04182B00446007841F292
:100820000006C007C4F2020647D0706800F00C0052
:10083000042808D1306880033FD56068E8BB0120F8
:1008400002B0BDE8F081706800F00C00082802D109
:100850007068C003EED4656830682DB1B5F5A02F7F
:1008600009D0B5F5803F0AD020F480303060306880
:1008700020F4802005E040F480203060306840F4AF
:1008800080303060FFF73AFE002D054612D000BFE1
:100890003068800311D4FFF731FE401B6428F7D97C
:1008A00016E100BFFFF72AFE401B64284FF003004B
:1008B00000F2D88030688003F4D42078800719D5FE
:1008C000706810F00C0F07D0706800F00C0008285A
:1008D00027D17068C00324D43068800703D520690D
:1008E000012840F0A6803068616920F0F80040EAF5
:1008F000C1003060207800074ED5A06938B30020D1
:10090000C4F242200121C0F88014FFF7F7FD05462C
:10091000706A80072DD4FFF7F1FD401B0228F7D93C
:10092000D6E02069002840F20000C4F2422000F026
:10093000A88001210160FFF7E1FD054630688007CE
:10094000D1D4FFF7DBFD401B0228F7D9C0E000201F
:10095000C4F242200021C0F88014FFF7CFFD054605
:10096000706A800718D5FFF7C9FD401B0228F7D928
:10097000AEE040F20000C2F20000006844F6D3513D
:10098000C1F26201A0FB0101480A019000BF019879
:10099000411E00280191F9D12078400717D4E5695C
:1009A0008DB1706800F00C00082846D1012D40D0B0
:1009B0007068216A00F480328A423AD1616A00F498
:1009C0007010884235D1002002B0BDE8F081F06996
:1009D0005FEAC00808D4F06940F08050F061F06927
:1009E00000F080500090009847F20007C4F2000722
:1009F0003868C0050FD4386840F480703860FFF75D
:100A00007DFD05463868C00505D4FFF777FD401B1E
:100A10006428F7D95CE0E568306A1DB1052D41D046
:100A2000012D43D020F001003062306A20F0040034
:100A30003EE0012002B0BDE8F0810027C4F2422769
:100A400000203866FFF75AFD022D05460ED100BF83
:100A50003068800153D5FFF751FD401B02284FF04D
:100A60000300F5D902B0BDE8F08100BF3068800115
:100A7000A9D5FFF743FD401B02284FF00300F5D92D
:100A8000F0E700210160FFF739FD05463068800777
:100A90007FF530AFFFF732FD401B02284FF0030017
:100AA000F4D9DFE740F004003062306A40F0010022
:100AB0003062FFF723FD002D054641F2883712D042
:100AC000306A800712D4FFF719FD401BB842F7D9EE
:100AD000032002B0BDE8F081FFF710FD401BB842D3
:100AE0004FF00300BED8306A8007F5D4B8F1000F8C
:100AF0003FF555AFF06920F08050F0614FE7206A74
:100B0000B0F5803F05D17168A26821F4003111432E
:100B100071607168626A21F4741111430843706056
:100B200001203866FFF7EAFC044600BF3068800108
:100B30003FF549AFFFF7E2FC001B02284FF003002E
:100B4000F4D98FE7411E0020B0EB116F1CBF0120CC
:100B500070474EF21002CEF2000251604EF6235161
:100B6000CEF20001F0230B700721906011607047F6
:100B700090F83C20012A4FF0020234D010B5012336
:100B800080F83C3080F83D200268D2F804E0D2F8CA
:100B900008C00C682EF07003234340F2FF74C4F2C7
:100BA0000004A242536005DCB2F1804F0ED040F247
:100BB000004307E042F60043C4F201039A4205D025
:100BC00040F60003C4F200039A4204D149682CF0B5
:100BD0008003194391600121002280F83D1080F8C4
:100BE0003C20BDE81040104670470000002804BFBC
:100BF0000120704710B590F83D1031B9002180F800
:100C00003C10044600F066F82046022180F83D10B2
:100C1000016840F2FF740B68C4F2000442F6004C15
:100C2000A142C4F2010C05DCB1F1804F0AD040F2C0
:100C3000004203E0614505D040F60002C4F2000224
:100C4000914203D1826823F070031343A14205DC73
:100C5000B1F1804F0AD040F2004203E0614505D077
:100C600040F60002C4F20002914203D1026923F46B
:100C700040731343846923F08002D0F804E0C36812
:100C8000224361450A60CB62C1F828E002D1426983
:100C9000CCF8302001224A610B69DB0703D00B69D5
:100CA00023F001030B6180F8462080F83E2080F895
:100CB0003F2080F8402080F8412080F8422080F8D2
:100CC000432080F8442080F8452080F83D20002013
:100CD00010BD0000006840F20041C4F200018842EB
:100CE00018BF704781B041F21C00C4F202000168D5
:100CF00041F002010160006800F0020000900098DD
:100D000001B0704790F83C20012A4FF002026ED0EB
:100D100080B5012380F83C3080F83D20D0F800C039
:100D20004FF67772DCF8083023EA0202CCF808208C
:100D30000B684F2B28DC1F2B44DD202B45D0302B9C
:100D400043D0402B40F0AC80D1F804E0C968DCF817
:100D50002030DCF8202022F00102CCF82020DCF842
:100D6000182022F0F00242EA011123F00A0242EABE
:100D70000E02CCF81810CCF82020DCF8081041F056
:100D8000470121F0300127E06F2B32DDB3F5005F22
:100D900073D0B3F5805F21D0702B40F08180D1E912
:100DA00001E3C968DCF8082043EA0E0322F47F421D
:100DB00043EA01211143CCF80810DCF8081041F097
:100DC000770109E00BB1102B6AD1DCF8081021F093
:100DD0007001194341F00701CCF8081000220121ED
:100DE00080F83D10002180F83C10BDE8804010469E
:100DF0007047502B21D0602B52D1D1F804E0C96844
:100E0000DCF82030DCF8202022F01002CCF8202082
:100E1000DCF8182022F4704242EA013123F0A002EB
:100E200042EA0E12CCF81810CCF82020DCF808109A
:100E300041F0670121F01001CEE7D1F804E0C96864
:100E4000DCF82030DCF8202022F00102CCF8202051
:100E5000DCF8182022F0F00242EA011123F00A0225
:100E600042EA0E02CCF81810CCF82020DCF808106A
:100E700041F0570121F02001AEE7D1E901E3C96853
:100E8000DCF8082043EA0E0322F47F4243EA012102
:100E90001143CCF80810DCF8081041F480419BE7BE
:100EA00001229CE790F83C30012B04BF02207047E0
:100EB0004FEAB2020123032A80F83C3000F2EC80B2
:100EC0002DE9F041DFE802F002A63B76036842F626
:100ED00000451C6A1A6AC4F2010522F001021A6276
:100EE0001A46D3F804C052F818EF8E6824F00204B2
:100EF000AB4244EA060405D1CE6824F00C0426F087
:100F0000040634430E68AB4206D1D1E905582CF4EF
:100F100040772F4347EA080C2EF073073743C3F896
:100F200004C09F614F6809695F631C629F6947F055
:100F300008079F619F6927F004079F61A6E0036887
:100F400042F600451C6A1A6AC4F2010522F4807256
:100F50001A621A46D3F804C052F81CEF8E6824F4C3
:100F60000074AB4244EA062407D1CE6840F2FF4742
:100F7000360224F44064BE4334430E68AB4206D1CB
:100F8000D1E905572CF4405C3D434CEA051C2EF09A
:100F900073073743C3F804C0DF614F680969DF6333
:100FA0001C62DF6947F00807DF61DF6927F004078B
:100FB000DF616BE0036842F60047D3F820C01A6A8D
:100FC000C4F2010722F480521A621A465C6852F891
:100FD0001C5FD1F800E08E68BB4204D14F6924F455
:100FE000804444EA87142CF4005747EA063725F476
:100FF000E64646EA0E265C60DE614E6809691E64BC
:101000001F62DF6947F40067DF61DF6927F48067EB
:10101000DF613AE0036842F600451C6A1A6AC4F2CE
:10102000010522F010021A621A46D3F804C052F8E1
:1010300018EF8E6824F02004AB4244EA061407D16E
:10104000CE686FF0400724F0C00407EA0616344368
:101050000E68AB4206D1D1E905572CF4406C3D43F4
:101060004CEA850C2EF4E64747EA0627C3F804C08D
:101070009F614F6809699F631C629F6947F400671D
:101080009F619F6927F480679F6109021368194374
:1010900000231160BDE8F041002180F83C101846A3
:1010A00070470000002804BF0120704710B590F879
:1010B0003D1031B9002180F83C10044600F066F87C
:1010C0002046022180F83D10016840F2FF740B6851
:1010D000C4F2000442F6004CA142C4F2010C05DC4B
:1010E000B1F1804F0AD040F2004203E0614505D0E3
:1010F00040F60002C4F20002914203D1826823F05C
:1011000070031343A14205DCB1F1804F0AD040F2D5
:10111000004203E0614505D040F60002C4F200023F
:10112000914203D1026923F440731343846923F08D
:101130008002D0F804E0C368224361450A60CB62B4
:10114000C1F828E002D14269CCF8302001224A617E
:101150000B69DB0703D00B6923F001030B6180F8F7
:10116000462080F83E2080F83F2080F8402080F81C
:10117000412080F8422080F8432080F8442080F805
:10118000452080F83D20002010BD00007047000081
:101190004122082908BF4022042908BF3F22002914
:1011A00008BF3E22825C012A1CBF01207047022238
:1011B00041B1082909D0042914BF80F8412080F8E2
:1011C0003F2004E080F83E2001E080F840200068E5
:1011D00001F01F010122036A8A4023EA0201016231
:1011E000036A42F64441C4F201011A43A1F14403E7
:1011F0009842026203D10A6842F400420A6040F257
:10120000FF71C4F20001884205DCB0F1804F0ED0BE
:1012100040F2004107E042F60041C4F20101884279
:1012200005D040F60001C4F20001884206D1816871
:1012300001F00701062904BF00207047016841F052
:101240000101016000207047FEE7000083B041F219
:101250001800C4F20200016841F010010160016849
:1012600001F0100102910299016841F02001016032
:10127000016801F0200101910199016841F0040128
:101280000160006800F004000090009803B070470F
:10129000B0B594B040F2004540F27400C4F20005CD
:1012A0000021C2F2000040F2F312CDE90D11CDE9A8
:1012B0000B110991CDE90711CDE90511CDE9031114
:1012C000CDE90111C0E90051C0E90212016181615B
:1012D000FFF78CFC002818BFFEF7F4FF4FF4805096
:1012E0000B9040F27400C2F200000BA9FFF70AFD58
:1012F000002818BFFEF7E6FF40F27400C2F20000BB
:10130000FFF7D0FE002818BFFEF7DCFF40F27400A4
:101310000024C2F2000008A9CDE90844FFF728FC28
:10132000002818BFFEF7CEFF6020CDE9010403942A
:10133000059440F27404C2F2000401A92046002280
:10134000FFF7B0FD002818BFFEF7BCFF21680020A2
:10135000A942CDE912001190109001D014B0B0BD97
:1013600041F21800C4F20200016841F0040101607A
:10137000006810A900F004000F900F984020109012
:1013800002201190139005F58230FEF7B5FF14B0DE
:10139000B0BD0000FEE70000FEE70000704700005F
:1013A00070470000FFF7B0B870470000FEE700008C
:1013B00090B0FFF7B7F806AC20462821FEF71AFFD9
:1013C00001200A9010200B904FF4301000250226C7
:1013D0000F9020460595CDE90355CDE901550696B8
:1013E000CDE90D65FFF712FA18B1EFF3108072B670
:1013F000FEE70F20CDE901064FF48060CDE904053A
:1014000001A802210395FFF727F920B1EFF310801F
:1014100072B600BFFEE7FFF719FFFFF739FF40F292
:101420007404C2F2000420460021FFF7B1FE40F22E
:101430007005C2F2000500BF288881087C2913D8F6
:1014400021680130288048630120FEF741FF288889
:10145000B0F5FA7FF4D307E001382168288080B224
:1014600048630120FEF734FF28880028F4D1E3E721
:101470000000000000000000010203040607080944
:10148000010202030405060708090A0B0C0D0E0FE2
:1014900010100000B8140008000000201000000028
:1014A00050010008C814000810000020B006000019
:1014B000700100080000000000127A000100000026
:0814C000100000000000000014
:04000005080000ED02
:00000001FF
