:020000040800F2
:100000007047002055020008F92C00082528000838
:100010001D2A00084D040008D53200080000000029
:10002000000000000000000000000000E12F0008B8
:10003000C504000800000000712F000815300008FA
:100040006F0200086F0200086F0200086F020008CC
:100050006F0200086F0200086F0200086F020008BC
:100060006F0200086F0200086F0200086F020008AC
:100070006F0200086F0200086F0200086F0200089C
:100080006F0200086F0200086F0200086F0200088C
:10009000510400086F0200086F0200086F02000898
:1000A0006F0200086F0200086F0200086F0200086C
:1000B0006F0200086F020008213100086F0200087B
:1000C0006F0200086F0200086F0200086F0200084C
:1000D0006F0200086F0200086F0200086F0200083C
:1000E0006F0200086F0200086F0200086F0200082C
:1000F0006F0200086F0200086F0200086F0200081C
:100100006F0200086F0200086F0200086F0200080B
:100110006F0200086F0200086F0200086F020008FB
:100120006F0200086F0200086F0200086F020008EB
:100130006F0200086F0200086F0200086F020008DB
:100140006F0200086F0200086F0200086F020008CB
:100150006F0200086F0200086F0200086F020008BB
:100160006F0200086F0200086F0200086F020008AB
:100170006F0200086F0200086F0200080000000014
:100180006F0200086F02000800F002F800F052F859
:1001900014A696E8000CB244B344DA4501D100F04D
:1001A00049F8BAE80F000FA696E83000A5EB040561
:1001B00004EB0607AAEB0704A7F101074FEA1515A0
:1001C0004FEA3414A4F10104AC4201D300F032F838
:1001D00013F0010F18BFFB1A43F0010300F001F800
:1001E000DBE71847C4470000E4470000103A24BF8B
:1001F00078C878C1FAD8520724BF30C830C144BF8C
:1002000004680C6070470000704700000023002461
:1002100000250026103A28BF78C1FBD8520728BF16
:1002200030C148BF0B6070471FB504F079FB1FBD9C
:1002300010B510BD00F0D0F81146FFF7F5FF03F040
:10024000ABF800F0EEF803B4FFF7F2FF03BC00F0E8
:10025000F5F800000948804709480047FEE7FEE737
:10026000FEE7FEE7FEE7FEE7FEE7FEE7FEE7FEE766
:1002700004480549054A064B704700000D31000847
:100280008901000870410020704700207043002061
:100290007043002053EA020C00F069802DE9F04B16
:1002A0004FF00006002B1FBFB3FA83F503FA05F4E5
:1002B00024FA05F65E4012BF1643B2FA82F502FA3E
:1002C00005F4C5F120051EBF22FA05FC44EA0C0422
:1002D000203556EA044C4FEA144418BF641C4FF012
:1002E00000084FF00009904271EB030C39D300294C
:1002F00019BFB1FA81F701FA07F6B0FA80F700FAF0
:1003000007F6C7F120071EBF20FA07FC46EA0C06D5
:100310002037B6FBF4FCA7EB0507103F07F01F0BD7
:10032000CBF120062CFA06F60CFA0BFB44BFB346C1
:100330000026202FA4BF5E464FF0000B5BEA060CA0
:1003400008BF4FF0010B19EB0B0948EB0608ABFB9C
:10035000027C06FB02CC0BFB03CCC01B71EB0C0137
:10036000C1E70B46024641464846BDE8F08B13B54F
:10037000084318BF4FF0FF300146AFF30080BDE8DF
:100380001C4070474FF0000200B513469446964655
:10039000203922BFA0E80C50A0E80C50B1F1200198
:1003A000BFF4F7AF090728BFA0E80C5048BF0CC046
:1003B0005DF804EB890028BF40F8042B08BF7047A4
:1003C00048BF20F8022B11F0804F18BF00F8012B16
:1003D0007047704770477047754600F02BF8AE467F
:1003E00005006946534620F00700854618B020B541
:1003F000FFF73EFFBDE820404FF000064FF000073A
:100400004FF000084FF0000BAC46ACE8C009ACE878
:10041000C009ACE8C009ACE8C00921F007018D466D
:10042000704710B50446AFF300802046BDE8104089
:10043000FFF709BF00487047380000200149182025
:10044000ABBEFEE72600020070470000FFE7FEE7B4
:1004500080B540F2E800C2F2000000F0BFFB80BDB2
:1004600080B58AB00021069101200790009101918A
:100470000291039104910591089040F2E800C2F2C4
:100480000000694600F0CCF918B1FFE700F01CF855
:10049000FFE740F2E800C2F2000000F01FFF18B1D1
:1004A000FFE700F011F8FFE740F2E800C2F20000B9
:1004B000022100F0DFF818B1FFE700F005F8FFE7D0
:1004C0000AB080BD7047000072B6FFE7FEE700008B
:1004D00080B582B0019001980178407840EA01210E
:1004E00040F2B400C2F20000018001998A78C97814
:1004F00041EA0221418001990A79497941EA0221C0
:100500008180019989798171018800EE101AB8EE15
:10051000400A9FED361A20EE010A9FED351A20EEB3
:10052000010A80ED020A40F29C00C2F2000000784D
:1005300098B9FFE740F2B401C2F20001088840F226
:100540009E02C2F2000210800020C86040F29C01AE
:10055000C2F20001012008703DE040F2B400C2F296
:100560000000008840F29E01C2F200010988401A92
:1005700000900098B0F5805F05DDFFE70098A0F5DA
:10058000005000900AE0009810F5805F05DAFFE760
:10059000009800F500500090FFE7FFE79DED000A8E
:1005A000B8EEC00A9FED111A20EE010A9FED101A55
:1005B00020EE011A40F2B400C2F2000090ED030AEE
:1005C00030EE010A80ED030A008840F29E01C2F27B
:1005D00000010880FFE701F0D7F840F2B401C2F251
:1005E000000108610120087502B080BD0000B4431D
:1005F0000000003980B58AB0ADF8260000200290D6
:100600000190BDF9260042F21171884205DBFFE737
:1006100042F21070ADF82600FFE7BDF926004DF656
:10062000EF01CFF6FF71884205DCFFE74DF6F000E1
:10063000ADF82600FFE74FF4FF7003900020049010
:1006400005900690082107918DF820009DF827005D
:100650008DF80400BDF826008DF8050040F2E80092
:10066000C2F2000003A901AA6B4600F02DF80AB0FF
:1006700080BD000084B002900191029890F82000A3
:100680008DF803009DF80300012805D0FFE79DF8D1
:10069000030002280AD1FFE7019A0298016848691D
:1006A0001043486100208DF80F0008E00299486A65
:1006B00040F48020486201208DF80F00FFE79DF88C
:1006C0000F0004B07047000088B0069005910492B6
:1006D0000393069890F820008DF8070006980068AC
:1006E000806800900598806808B9FFE700E0FFE7A0
:1006F0009DF80700012806D0FFE79DF807000228B3
:1007000040F08080FFE79DF80300400700280CD4EC
:10071000FFE79DF803000007002806D4FFE79DF8D7
:100720000300C006002864D5FFE70098C0F301600D
:10073000029002990120884003990860059880681A
:1007400068B9FFE705980168C06840EA415006991A
:100750000968029A01EB0211C1F880010EE00599C7
:100760004A688868C96840EAC2000843069909686F
:10077000029A01EB0211C1F88001FFE705980069B8
:1007800006990968029A01EB0211C1F884010598E3
:10079000007D01280CD1FFE706980068029900EB64
:1007A0000111D1F8840140F48070C1F88401FFE7A1
:1007B0000498406806990968029A01EB0211C1F891
:1007C0008C010498006806990968029A01EB0211ED
:1007D000C1F8880106980068029900EB0111D1F870
:1007E000800140F00100C1F8800100208DF81F0059
:1007F00011E00699486A40F40010486201208DF823
:100800001F0008E00699486A40F4802048620120F1
:100810008DF81F00FFE79DF81F0008B0704700002B
:1008200086B004900391049890F820008DF803009E
:100830009DF80300012806D0FFE79DF80300022879
:1008400040F0B080FFE746F20040C4F200000190A3
:100850000199D1F8000240F00100C1F800020199AD
:10086000D1F8000220F47C50C1F800020398426ADB
:100870000199D1F8000240EA0220C1F80002039871
:10088000406900F01F01012088400290029A0199FE
:10089000D1F81C029043C1F81C020398C069F0B95A
:1008A000FFE7029A0199D1F80C029043C1F80C02BB
:1008B000039A9088D168526940EA0140019901EB9E
:1008C000C201C1F84002039A10889168526940EA57
:1008D0000140019901EBC201C1F84402FFE703980E
:1008E000C06901281ED1FFE7029A0199D1F80C02D4
:1008F0001043C1F80C02039A90881168526940EACB
:100900000140019901EBC201C1F84002039A9089AC
:100910009168526940EA0140019901EBC201C1F8B6
:100920004402FFE70398806940B9FFE7029A019902
:10093000D1F804029043C1F8040207E0029A019939
:10094000D1F804021043C1F80402FFE703980069DC
:1009500040B9FFE7029A0199D1F814029043C1F817
:10096000140207E0029A0199D1F814021043C1F869
:100970001402FFE70398006A012808D1FFE7029AF2
:100980000199D1F81C021043C1F81C02FFE701993C
:10099000D1F8000220F00100C1F8000200208DF81B
:1009A000170008E00499486A40F48020486201205A
:1009B0008DF81700FFE79DF8170006B0704700009C
:1009C00081B0009001B0704786B00490039102920C
:1009D0000193049890F820008DF803009DF803001F
:1009E000012806D0FFE79DF80300022840F0E880C8
:1009F000FFE7039880B9FFE704980068C0688007A4
:100A000048B9FFE70499486A40F4001048620120A1
:100A10008DF81700DDE00FE004980068006980079A
:100A200048B9FFE70499486A40F400104862012081
:100A30008DF81700CDE0FFE704980068039900EBFC
:100A40000110D0F8B00100F004000299886002980B
:100A5000806858B9FFE704980068039900EB01101B
:100A6000D0F8B001400D029908600AE004980068CF
:100A7000039900EB0110D0F8B001C008029948605A
:100A8000FFE704980068039900EB0110D0F8B0016B
:100A900000F002000299C86004980068039900EB16
:100AA0000110D0F8B40100F00F00082804D3FFE7CC
:100AB0000299082008610BE004980068039900EB94
:100AC0000110D0F8B40100F00F0002990861FFE7AF
:100AD00004980068039900EB0110D0F8B40180B2CB
:100AE000000A0299886104980068039900EB0110DC
:100AF000D0F8B401000C0299486104980068039989
:100B000000EB0110D0F8B801019908700498006852
:100B1000039900EB0110D0F8B801000A0199487060
:100B200004980068039900EB0110D0F8B801000C9C
:100B30000199887004980068039900EB0110D0F8BF
:100B4000B801000E0199C87004980068039900EB81
:100B50000110D0F8BC01019908710498006803994C
:100B600000EB0110D0F8BC01000A0199487104980B
:100B70000068039900EB0110D0F8BC01000C01994A
:100B8000887104980068039900EB0110D0F8BC014B
:100B9000000E0199C871039838B9FFE704980168FD
:100BA000C86840F02000C86006E004980168086941
:100BB00040F020000861FFE700208DF8170008E0F2
:100BC0000499486A40F48020486201208DF817009B
:100BD000FFE79DF8170006B07047000080B58AB0A7
:100BE00009900020089009980068406907900998CA
:100BF0000068406806900998006880680590099828
:100C00000068C0680490099800680069039009981A
:100C10000068806902909DF81C00C007002800F061
:100C20009480FFE79DF81400C00758B3FFE70998C8
:100C30000168012088609DF814008007002804D511
:100C4000FFE7099800F094FB1BE09DF814004007B3
:100C5000002805D5FFE7089840F4006008900FE0F1
:100C60009DF814000007002805D5FFE7089840F418
:100C70008050089003E0099800F076FBFFE7FFE75B
:100C8000FFE7FFE79DF81500C00760B3FFE709988D
:100C900001684FF4807088609DF815008007002877
:100CA00004D5FFE7099800F06BFB1BE09DF81500E9
:100CB0004007002805D5FFE7089840F40050089049
:100CC0000FE09DF815000007002805D5FFE70898FC
:100CD00040F48040089003E0099800F04DFBFFE7E6
:100CE000FFE7FFE7FFE79DF81600C00760B3FFE7E7
:100CF000099801684FF4803088609DF816008007DD
:100D0000002804D5FFE7099800F042FB1BE09DF89E
:100D100016004007002805D5FFE7089840F400407A
:100D200008900FE09DF816000007002805D5FFE7A2
:100D3000089840F48030089003E0099800F024FB04
:100D4000FFE7FFE7FFE7FFE7FFE79DF81C0000076D
:100D5000002810D5FFE79DF81000C006002809D52F
:100D6000FFE7089840F40070089009980168102087
:100D7000C860FFE7FFE79DF81C00400700280FD57B
:100D8000FFE79DF810000007002808D5FFE7099845
:100D900001680820C860099800F05CFAFFE7FFE7E7
:100DA0009DF81C00800700280BD5FFE70998006814
:100DB000C068800720B1FFE7099800F04FFAFFE70D
:100DC000FFE79DF81C004006002810D5FFE79DF8BE
:100DD0000C00C006002809D5FFE7089840F48060A1
:100DE00008900998016810200861FFE7FFE79DF867
:100DF0001C00800600280FD5FFE79DF80C000007B7
:100E0000002808D5FFE709980168082008610998BB
:100E100000F058FAFFE7FFE79DF81C00C006002825
:100E20000BD5FFE7099800680069800720B1FFE74C
:100E3000099800F04BFAFFE7FFE79DF81E008007D6
:100E400000280FD5FFE79DF81800C006002808D538
:100E5000FFE70998016810204860099800F03AFA05
:100E6000FFE7FFE79DF81E00C00778B1FFE79DF898
:100E700018000007002808D5FFE709980168082036
:100E80004860099800F088FAFFE7FFE79DF81D0029
:100E90000006002840F18D80FFE79DF8180040070C
:100EA000002840F18180FFE79DF81D00C00750B188
:100EB000FFE79DF80800C00728B1FFE7089840F059
:100EC00001000890FFE79DF81D00800700280BD562
:100ED000FFE79DF808008007002805D5FFE7089880
:100EE00040F002000890FFE79DF81D004007002831
:100EF0000BD5FFE79DF808004007002805D5FFE760
:100F0000089840F004000890FFE79DF81D000007D6
:100F1000002848D5FFE79DF8080010F0700F42D078
:100F2000FFE7029800F0700001460191102814D0EC
:100F3000FFE70198202815D0FFE70198302816D048
:100F4000FFE70198402817D0FFE70198502818D0F4
:100F5000FFE70198602819D01DE0089840F00800CC
:100F6000089019E0089840F01000089014E00898E4
:100F700040F0200008900FE0089840F040000890F2
:100F80000AE0089840F08000089005E0089840F4D6
:100F90008070089000E0FFE709980168886920F0F8
:100FA00070008861FFE7FFE7099801680420486046
:100FB000FFE7089848B1FFE7089A0999486A104383
:100FC00048620998FFF7FCFCFFE70AB080BD00000B
:100FD00080B584B00290029820B9FFE701208DF817
:100FE0000F00E0E0029890F8200020B9FFE7029897
:100FF00000F0DEF8FFE702980168086840F00100A1
:10100000086000F0C1FB0190FFE7029800684068AB
:10101000C007A8B9FFE700F0B7FB0199401A0B28F9
:101020000DD3FFE70299486A40F400304862029904
:10103000052081F8200001208DF80F00B3E0E4E7DF
:1010400002980168086820F00200086000F09CFB2C
:101050000190FFE70298006840688007002815D5D6
:10106000FFE700F091FB0199401A0B280DD3FFE731
:101070000299486A40F4003048620299052081F8DC
:10108000200001208DF80F008DE0E3E70298007E3C
:10109000012807D1FFE702980168086840F0800046
:1010A000086006E002980168086820F08000086087
:1010B000FFE70298407E012807D1FFE70298016808
:1010C000086840F04000086006E00298016808687F
:1010D00020F040000860FFE70298807E012807D1D9
:1010E000FFE702980168086840F02000086006E009
:1010F00002980168086820F020000860FFE7029865
:10110000C07E012807D1FFE702980168086820F037
:101110001000086006E002980168086840F01000BE
:101120000860FFE70298007F012807D1FFE70298D7
:101130000168086840F00800086006E0029801684D
:10114000086820F008000860FFE70298407F012847
:1011500007D1FFE702980168086840F004000860C2
:1011600006E002980168086820F004000860FFE7C4
:10117000029B19685A689868D3F80CC040EA0C00C2
:10118000D3F810C040EA0C005B691843013A1043E1
:10119000C861029900204862029A012182F8201059
:1011A0008DF80F00FFE79DF80F0004B080BD000030
:1011B00080B58AB0099000200890079006900590AD
:1011C00004900998006846F20041C4F20001884288
:1011D0003DD1FFE7FFE70020039043F64000C4F253
:1011E0000200016841F000710160006800F00070C9
:1011F00003900398FFE7FFE70020029043F63000DA
:10120000C4F20200016841F008010160006800F0CA
:10121000080002900298FFE7032004900221059144
:1012200000210091069107900920089040F60040A7
:10123000C4F2020004A900F0B3F8009A142001904F
:10124000052100F07FFB019800F072FBFFE70AB078
:1012500080BD000081B0009001B0704780B58AB0B9
:1012600009900998006846F20041C4F200018842E2
:1012700001D0FFE723E00998002102AA6B46FFF79F
:10128000A3FB08B1FFE71AE040F2AC01C2F2000193
:10129000086801300860049888B9FFE7029840F2B6
:1012A000052188420BD1FFE740F2B001C2F20001F4
:1012B0000868013008606846FFF70AF9FFE70AB0DE
:1012C00080BD000081B0009001B0704781B00090F7
:1012D00001B0704781B0009001B0704780B584B014
:1012E0000290029890F8200001282FD1FFE7029980
:1012F000022081F8200002980168086820F00100AF
:10130000086000F041FA0190FFE702980068406829
:10131000C007A8B1FFE700F037FA0199401A0B287F
:101320000DD3FFE70299486A40F400304862029901
:10133000052081F8200001208DF80F000FE0E4E780
:101340000299002048628DF80F0008E00299486A6F
:1013500040F40020486201208DF80F00FFE79DF85F
:101360000F0004B080BD000081B0009001B0704754
:1013700081B0009001B0704781B0009001B070471B
:1013800081B0009001B0704781B0009001B070470B
:1013900081B0009001B0704781B0009001B07047FB
:1013A0008EB00D900C9100200A90099008900B903F
:1013B000FFE70B980F2800F2CC81FFE70B99012083
:1013C00088400A900C9800680A990840099009988A
:1013D0000A99884240F0B881FFE70C98406800F015
:1013E0000300012807D0FFE70C98406800F00300D5
:1013F00002282FD1FFE70D98806808900B984100D4
:10140000032000FA01F10898884308900C98C068FE
:101410000B99490000FA01F10898084308900898D0
:101420000D9988600D98406808900B99012000FA8A
:1014300001F10898884308900C984068C0F30010A8
:101440000B9900FA01F108980843089008980D9943
:101450004860FFE70C98406800F00300032818D0AC
:10146000FFE70D98C06808900B984100032000FA30
:1014700001F10898884308900C9880680B994900FE
:1014800000FA01F108980843089008980D99C8607F
:10149000FFE70C98406800F00300022826D1FFE720
:1014A0000D980B996FF0030202EA51010844006A9B
:1014B00008900B9800F0070081000F2000FA01F15E
:1014C0000898884308900C9800690B9901F007016F
:1014D000890000FA01F108980843089008980D99CE
:1014E0000B9B02EA530211440862FFE70D98006863
:1014F00008900B984100032000FA01F108988843F6
:1015000008900C98406800F003000B99490000FA1D
:1015100001F108980843089008980D9908600C9804
:1015200080798007002800F00E81FFE7FFE70020A8
:10153000079043F64400C4F20200016841F4804180
:101540000160006800F4804007900798FFE70B985F
:1015500020F0030043F60801C4F20101405808904E
:101560000B9800F0030081000F2000FA01F10898A9
:10157000884308900D980021C4F20201884203D1EB
:10158000FFE7002006905EE00D9840F20041C4F2B3
:101590000201884203D1FFE70120059050E00D9839
:1015A00040F60001C4F20201884203D1FFE70220A5
:1015B000049042E00D9840F60041C4F202018842D6
:1015C00003D1FFE70320039034E00D9841F20001BE
:1015D000C4F20201884203D1FFE70420029026E012
:1015E0000D9841F20041C4F20201884203D1FFE7A5
:1015F0000520019018E00D9841F60001C4F20201A7
:10160000884203D1FFE7062000900AE00D9941F6D9
:101610000042C4F202020820914208BF0720009055
:10162000FFE700980190FFE701980290FFE702981A
:101630000390FFE703980490FFE704980590FFE705
:1016400005980690FFE70698C0B20B9901F00301D8
:10165000890000FA01F108980843089008980B994E
:1016600021F0030143F60802C4F20102885043F658
:101670000840C4F20100006808900999089888435E
:1016800008900C988079C006002805D5FFE70999D5
:10169000089808430890FFE7089843F60841C4F209
:1016A0000101086043F60C40C4F201000068089094
:1016B00009990898884308900C988079800600283A
:1016C00005D5FFE70999089808430890FFE70898AF
:1016D00043F60C41C4F20101086043F60440C4F231
:1016E00001000068089009990898884308900C98B0
:1016F00080798007002805D5FFE7099908980843F5
:101700000890FFE7089843F60441C4F2010108601D
:1017100043F60040C4F20100006808900999089857
:10172000884308900C988079C00728B1FFE7099991
:10173000089808430890FFE7089843F60041C4F270
:1017400001010860FFE7FFE7FFE70B9801300B900E
:101750002FE60EB07047000082B00190ADF8021085
:101760008DF801209DF8010028B1FFE7BDF80200C7
:101770000199886105E0BDF80200000401998861C3
:10178000FFE702B07047000043F66460C2F2000059
:101790000068704740F22C00C2F20000027843F665
:1017A0006461C2F2000108681044086070470000DC
:1017B00080B543F60041C4F20201086840F40070AD
:1017C0000860086840F480600860086840F4807031
:1017D0000860032000F0D0F80F2000F005F800F0BA
:1017E0007BF8002080BD000080B58CB00B900020FD
:1017F00004900390FFE70020009043F64000C4F2FD
:101800000200016841F004010160006800F004007A
:1018100000900098FFE706A802A900F0E7F90998F0
:101820000490049820B9FFE700F010FA059004E056
:1018300000F00CFA40000590FFE705984DF6836133
:10184000C4F21B31A0FB01014FF0FF3000EB9140CF
:10185000039040F21010C2F2000040F60001C4F202
:101860000001016040F2E731C1600399416000214D
:1018700001618160816100F0D7FD8DF807009DF85E
:10188000070028BBFFE740F21010C2F2000000F092
:101890001DFE8DF807009DF80700C0B9FFE71E2068
:1018A00000F046F80B980F280CD8FFE70B991E2084
:1018B000002200F047F80B9840F23001C2F200011C
:1018C000086003E001208DF80700FFE7FFE7FFE76E
:1018D0009DF807000CB080BD80B582B0FFE7002006
:1018E000019043F64400C4F20200016841F48041D3
:1018F0000160006800F4804001900198FFE7FFE775
:101900000020009043F64000C4F20200016841F05C
:1019100080510160006800F0805000900098FFE75F
:101920006FF001000F21002200F00CF802B080BD22
:1019300080B582B08DF807009DF9070001F0CCFC5E
:1019400002B080BD80B586B08DF817000491039277
:101950000020029001F0D8FC02909DF91700019040
:1019600002980499039A01F0C9F90146019801F01F
:10197000D3FC06B080BD000080B582B00190019814
:1019800001F0ECFC02B080BD80B584B00290019102
:10199000029820B9FFE701208DF80F0021E101989E
:1019A00043F60041C4F20201096801F007018842D0
:1019B00012D9FFE7019943F60040C4F2020001701A
:1019C000006800F007000199884204D0FFE7012079
:1019D0008DF80F0005E1FFE70298007880070028E6
:1019E0002AD5FFE7029800784007002809D5FFE7CD
:1019F00043F60801C4F20201086840F4E0500860B0
:101A0000FFE7029800780007002809D5FFE743F6B2
:101A10000801C4F20201086840F460400860FFE772
:101A200043F60801C4F20201086820F0F000029AAF
:101A3000926810430860FFE702980078C00700280A
:101A40006ED0FFE702984068012811D1FFE743F606
:101A50000000C4F20200006800F400310020B0EB86
:101A6000514F04D1FFE701208DF80F00B9E02CE0C1
:101A700002984068022805D0FFE7029840680328D2
:101A800011D1FFE743F60000C4F20200006800F045
:101A900000710020B0EB516F04D1FFE701208DF8F9
:101AA0000F009EE010E043F60000C4F20200006860
:101AB00000F002010020B0EB510F04D1FFE701203C
:101AC0008DF80F008DE0FFE7FFE743F60801C4F251
:101AD0000201086820F00300029A5268104308606F
:101AE000FFF752FE0090FFE743F60800C4F2020041
:101AF000006800F00C0002994968B0EB810F0ED02D
:101B0000FFE7FFF741FE0099401A41F28931884210
:101B100004D3FFE703208DF80F0062E0E4E7FFE75E
:101B2000019843F60041C4F20201096801F007017F
:101B3000884212D2FFE7019943F60040C4F2020046
:101B40000170006800F007000199884204D0FFE7A7
:101B500001208DF80F0044E0FFE70298007840076D
:101B600000280CD5FFE743F60801C4F2020108681B
:101B700020F4E050029AD26810430860FFE7029810
:101B80000078000700280DD5FFE743F60801C4F2EE
:101B90000201086820F46040029A126940EAC2001B
:101BA0000860FFE700F064F843F60801C4F20201A0
:101BB0000968C9B20A0944F67411C0F60001895CCB
:101BC000C84040F20001C2F20001086040F230005B
:101BD000C2F200000068FFF707FE00208DF80F003A
:101BE000FFE79DF80F0004B080BD000082B00190B7
:101BF000009101990F20086043F60800C4F202002A
:101C0000016801F00301019A5160016801F0F001DF
:101C1000019A9160016801F4E051019AD160006875
:101C200000F46040C0080199086143F60040C4F226
:101C30000200006800F007000099086002B07047D9
:101C400040F20000C2F200000068704780B5FFF764
:101C5000F7FF43F60801C4F202010968C1F38222CA
:101C600044F68411C0F60001895CC84080BD0000C4
:101C700080B586B00020059004900390029043F652
:101C80000800C4F20200006800F00C000146019157
:101C900040B1FFE7019804280AD0FFE7019808281F
:101CA0000CD04FE042F20040C0F2F40002904FE04E
:101CB00047F64000C0F27D10029049E043F6040070
:101CC000C4F20200016801F03F0105910068400282
:101CD000002813D5FFE743F60400C4F202000068B1
:101CE000C0F3881047F64001C0F27D11A0FB01014E
:101CF000059A0023FEF7CEFA049012E043F60400A2
:101D0000C4F202000068C0F3881042F20041C0F241
:101D1000F401A0FB0101059A0023FEF7BBFA049031
:101D2000FFE743F60400C4F20200006800F440310B
:101D3000022000EBD130039004980399B0FBF1F03E
:101D4000029005E042F20040C0F2F4000290FFE78A
:101D5000029806B080BD000080B586B0049004985B
:101D600020B9FFE701208DF8170050E304980078B0
:101D7000C007002800F0A580FFE743F60800C4F282
:101D80000200006800F00C00042813D0FFE743F6BF
:101D90000800C4F20200006800F00C0008281ED100
:101DA000FFE743F60400C4F2020000684002002886
:101DB00015D5FFE743F60000C4F20200006800F406
:101DC00000310020B0EB514F08D0FFE70498406885
:101DD00020B9FFE701208DF8170018E370E0FFE756
:101DE00004984068B0F5803F09D1FFE743F6000151
:101DF000C4F20201086840F48030086020E00498D2
:101E00004068B0F5A02F0DD1FFE743F60001C4F202
:101E10000201086840F480200860086840F48030BF
:101E200008600CE043F60001C4F20201086820F4E7
:101E300080300860086820F480200860FFE7FFE732
:101E4000FFE704984068E8B1FFE7FFF79DFC0390C7
:101E5000FFE743F60000C4F20200006800F400311E
:101E60000020B0EB514F0CD1FFE7FFF78DFC039939
:101E7000401A652804D3FFE703208DF81700C6E257
:101E8000E7E71CE0FFF780FC0390FFE743F6000064
:101E9000C4F20200006800F400310020B0EB514FA2
:101EA0000CD0FFE7FFF770FC0399401A652804D3B4
:101EB000FFE703208DF81700A9E2E7E7FFE7FFE758
:101EC000FFE7049800788007002840F19680FFE73C
:101ED00043F60800C4F20200006810F00C0F13D0A3
:101EE000FFE743F60800C4F20200006800F00C00AF
:101EF00008282CD1FFE743F60400C4F20200006872
:101F00004002002823D4FFE743F60000C4F2020099
:101F1000006800F002010020B0EB510F09D0FFE78C
:101F20000498C068012804D0FFE701208DF817004D
:101F30006DE243F60001C4F20201086820F0F800E7
:101F4000049A126940EAC2000860FFE754E004986E
:101F5000C06870B3FFE70021C4F247210120086088
:101F6000FFF712FC0390FFE743F60000C4F2020003
:101F7000006800F002010020B0EB510F0CD1FFE728
:101F8000FFF702FC0399401A032804D3FFE703205C
:101F90008DF817003BE2E7E743F60001C4F20201C7
:101FA000086820F0F800049A126940EAC20008604C
:101FB00021E00021C4F2472100200860FFF7E4FB84
:101FC0000390FFE743F60000C4F20200006800F04F
:101FD00002010020B0EB510F0CD0FFE7FFF7D4FB5C
:101FE0000399401A032804D3FFE703208DF8170054
:101FF0000DE2E7E7FFE7FFE7FFE704980078000757
:1020000000284BD5FFE70498406918B3FFE740F676
:102010008061C4F2472101200860FFF7B5FB0390FF
:10202000FFE743F67400C4F20200006800F002010A
:102030000020B0EB510F0CD1FFE7FFF7A5FB039990
:10204000401A032804D3FFE703208DF81700DEE1D0
:10205000E7E722E040F68061C4F2472100200860F3
:10206000FFF792FB0390FFE743F67400C4F202000F
:10207000006800F002010020B0EB510F0CD0FFE728
:10208000FFF782FB0399401A032804D3FFE70320DC
:102090008DF81700BBE1E7E7FFE7FFE7049800785A
:1020A0004007002840F1CE80FFE700208DF80700B0
:1020B00043F64000C4F202000068C000002815D4B6
:1020C000FFE7FFE70020009043F64000C4F2020063
:1020D000016841F080510160006800F0805000907C
:1020E0000098FFE701208DF80700FFE747F20000A6
:1020F000C4F200000068C005002822D4FFE747F2C0
:102100000001C4F20001086840F480700860FFF725
:102110003BFB0390FFE747F20000C4F200000068B9
:10212000C00500280CD4FFE7FFF72EFB0399401AE7
:10213000032804D3FFE703208DF8170067E1EAE7DF
:10214000FFE7FFE704988068012809D1FFE743F61D
:102150007001C4F20201086840F0010008601FE04D
:102160000498806805280DD1FFE743F67001C4F29A
:102170000201086840F004000860086840F00100AF
:1021800008600CE043F67001C4F20201086820F018
:1021900001000860086820F004000860FFE7FFE71E
:1021A000FFE704988068F8B1FFE7FFF7EDFA0390C6
:1021B000FFE743F67000C4F20200006800F002017D
:1021C0000020B0EB510F0ED1FFE7FFF7DDFA0399C6
:1021D000401A41F28931884204D3FFE703208DF889
:1021E000170014E1E5E71EE0FFF7CEFA0390FFE7E2
:1021F00043F67000C4F20200006800F00201002003
:10220000B0EB510F0ED0FFE7FFF7BEFA0399401A6B
:1022100041F28931884204D3FFE703208DF817008B
:10222000F5E0E5E7FFE79DF80700012809D1FFE7A2
:1022300043F64001C4F20201086820F080500860B3
:10224000FFE7FFE704988069002800F0DC80FFE7E3
:1022500043F60800C4F20200006800F00C000828F1
:1022600000F08580FFE70498806902285CD1FFE7D1
:102270006021C4F2472100200860FFF785FA03902F
:10228000FFE743F60000C4F20200006800F00071AE
:102290000020B0EB516F0CD0FFE7FFF775FA039900
:1022A000401A032804D3FFE703208DF81700AEE09F
:1022B000E7E70499C869D1F820C04B6A8A6A40EA06
:1022C0000C0040EA8310D2034FF6FF739A43A2F545
:1022D00080321043C96A40EA016043F60401C4F247
:1022E000020108606021C4F2472101200860FFF765
:1022F0004BFA0390FFE743F60000C4F202000068C7
:1023000000F000710020B0EB516F0CD1FFE7FFF738
:102310003BFA0399401A032804D3FFE703208DF802
:10232000170074E0E7E721E06021C4F247210020B4
:102330000860FFF729FA0390FFE743F60000C4F2B4
:102340000200006800F000710020B0EB516F0CD06B
:10235000FFE7FFF719FA0399401A032804D3FFE7B0
:1023600003208DF8170052E0E7E7FFE74AE0049802
:102370008069012804D1FFE701208DF8170046E0AD
:1023800043F60400C4F202000068029004988069D9
:10239000012831D0FFE7029800F480000499C96950
:1023A000884229D1FFE7029800F03F000499096AAA
:1023B000884221D1FFE7029847F6C071084004998E
:1023C000496AB0EB811F17D1FFE7029800F4403053
:1023D0000499896AC9034FF6FF729143A1F58031D0
:1023E000884209D1FFE7029800F070600499C96A39
:1023F000B0EB016F04D0FFE701208DF8170006E075
:10240000FFE7FFE7FFE700208DF81700FFE79DF8E3
:10241000170006B080BD000081B0009001B0704789
:1024200081B0009001B0704780B582B000900098F4
:1024300020B9FFE701208DF807003FE0009890F8F1
:102440003D0040B9FFE70099002081F83C0000986A
:1024500000F038F8FFE70099022081F83D0000996C
:1024600051F8040B00F064FE0099012081F8460049
:10247000FFE70099012081F83E00009981F83F00B4
:10248000009981F84000009981F84100FFE7FFE7DB
:102490000099012081F84200009981F843000099D9
:1024A00081F84400009981F84500FFE70099012078
:1024B00081F83D0000208DF80700FFE79DF8070038
:1024C00002B080BD81B0009001B0704783B0019030
:1024D000019890F83D00012804D0FFE701208DF815
:1024E0000B006AE00199022081F83D000198016823
:1024F000C86840F00100C860019800680021C4F27B
:10250000010188423CD0FFE701980068B0F1804F9C
:1025100036D0FFE70198006840F20041C4F20001A4
:1025200088422DD0FFE70198006840F60001C4F210
:102530000001884224D0FFE70198006840F600417E
:10254000C4F2000188421BD0FFE70198006840F206
:102550000041C4F20101884212D0FFE701980068EF
:1025600044F20001C4F20101884209D0FFE701985A
:10257000006841F60001C4F20001884212D1FFE771
:1025800001980068806800F0070000900098062815
:1025900007D0FFE701980168086840F00100086073
:1025A000FFE706E001980168086840F00100086054
:1025B000FFE700208DF80B00FFE79DF80B0003B04C
:1025C0007047000081B0009001B0704780B584B0C2
:1025D000039003980068C06802900398006800693F
:1025E00001909DF804008007002824D5FFE79DF89E
:1025F0000800800700281DD5FFE7039801686FF0E9
:102600000200086103990120087703980068806937
:10261000800720B1FFE70398FFF7D4FF06E0039897
:1026200000F0E2F8039800F0E3F8FFE703990020D8
:102630000877FFE7FFE79DF804004007002825D54D
:10264000FFE79DF80800400700281ED5FFE7039824
:1026500001686FF00400086103990220087703986D
:102660000068806910F4407F04D0FFE70398FFF70B
:10267000A9FF06E0039800F0B7F8039800F0B8F857
:10268000FFE7039900200877FFE7FFE79DF80400C4
:102690000007002824D5FFE79DF808000007002860
:1026A0001DD5FFE7039801686FF0080008610399E2
:1026B0000420087703980068C069800720B1FFE70D
:1026C0000398FFF77FFF06E0039800F08DF803986A
:1026D00000F08EF8FFE7039900200877FFE7FFE797
:1026E0009DF80400C006002825D5FFE79DF80800E6
:1026F000C00600281ED5FFE7039801686FF01000A0
:10270000086103990820087703980068C06910F4ED
:10271000407F04D0FFE70398FFF754FF06E00398DB
:1027200000F062F8039800F063F8FFE703990020D7
:102730000877FFE7FFE79DF80400C00778B1FFE7DF
:102740009DF80800C00748B1FFE7039801686FF0E3
:1027500001000861039800F04FF8FFE7FFE79DF8DC
:1027600004000006002810D5FFE79DF808000006C9
:10277000002809D5FFE7039801686FF08000086121
:102780000398FFF749FEFFE7FFE79DF804004006C6
:10279000002810D5FFE79DF808004006002809D55D
:1027A000FFE7039801686FF040000861039800F0AC
:1027B00035F8FFE7FFE79DF804008006002810D5F4
:1027C000FFE79DF808008006002809D5FFE7039879
:1027D00001686FF0200008610398FFF721FEFFE712
:1027E000FFE704B080BD000081B0009001B07047E9
:1027F00081B0009001B0704780B582B0019001981F
:10280000006840F60001C4F20001884203D1FFE7EE
:10281000FEF7C0FFFFE702B080BD000081B000906E
:1028200001B07047FFE7FEE784B08DED020ACDED01
:10283000010A8DED001A9DED020A9DED011AB4EE1C
:10284000410AF1EE10FA03DAFFE7019803900FE076
:102850009DED020A9DED001AB4EE410AF1EE10FA68
:1028600003DDFFE70098039002E002980390FFE782
:102870009DED030A04B0704780B582B040F2E800D5
:10288000C2F20000019046F20041C4F20001016072
:102890000721416000218160C1604FF480320261F4
:1028A0004FF4001242610176417681760122C276B0
:1028B00001774177FEF78CFB18B1FFE7FDF704FEC7
:1028C000FFE702B080BD0000B0B590B044F65810EC
:1028D000C0F60000016842688368D0F80CC0D0F8E8
:1028E00010E044690E94CDF834E0CDF830C00B937D
:1028F0000A92099180690F9009A80021019100F0C6
:102900008DFD019940F2A002C2F20002106044F66F
:102910003C10C0F6000002684368D0F808C0D0F848
:102920000CE00469456907950694CDF814E0CDF8EC
:1029300010C0039302928069089002A800F06EFD17
:1029400040F29801C2F20001086010B0B0BD000072
:1029500080B58CB000200B900A90099008900790E9
:10296000FFE70020069043F63000C4F20200016841
:1029700041F001010160006800F001000690069836
:10298000FFE7FFE70020059043F63000C4F20200A5
:10299000016841F008010160006800F0080005903E
:1029A0000598FFE7FFE70020049043F63000C4F2EB
:1029B0000200016841F004010160006800F00400B9
:1029C00004900498FFE7FFE70020039043F63000EF
:1029D000C4F20200016841F080010160006800F06B
:1029E000800003900398FFE741F60040C4F2020024
:1029F00002904FF48061009100220192FEF7ACFE3C
:102A0000009A0199029807920122089209910A916D
:102A100007A9FEF7C5FC0CB080BD0000FFE7FEE78C
:102A200080B586B0059040F21400C2F2000090ED2F
:102A3000000A40F21000C2F20000D0ED000A40F29D
:102A40000C00C2F2000090ED001A40F2A800C2F2A1
:102A50000000D0ED001A40F21800C2F2000090ED24
:102A6000003A40F20400C2F20000D0ED003A40F219
:102A70000800C2F2000090ED004A40F2F410C2F2E9
:102A800000009FED9A2A8DED022ADFED992A00F0D1
:102A900029FA9DED022A40F22400C2F2000090EDD6
:102AA000000A40F22000C2F20000D0ED000A40F21D
:102AB000D800C2F2000090ED001A40F21C00C2F2F1
:102AC0000000D0ED002A40F22800C2F2000090ED94
:102AD000003A40F22820C2F200009FED864AF0EE54
:102AE000441AF0EE443A00F0FDF9FFE740F214001A
:102AF000C2F20000006840F2F411C2F20001086066
:102B000040F21000C2F200000068486040F20C0081
:102B1000C2F200000068886040F2A800C2F2000023
:102B20000068C86040F20400C2F200000068C8619A
:102B300040F20800C2F200000068086240F218008B
:102B4000C2F200000068886140F22400C2F2000076
:102B5000006840F22821C2F20001086040F2200023
:102B6000C2F200000068486040F2D800C2F20000E3
:102B70000068886040F21C00C2F2000000684861F2
:102B800040F22800C2F200000068886140F2B40000
:102B9000C2F20000007D58B1FFE7FEF7F5FD40F2FC
:102BA000B401C2F200010969401A65281BD3FFE78E
:102BB00040F2B401C2F200010020087540F2D001D9
:102BC000C2F20001087040F2F410C2F2000000F0FE
:102BD000BFF940F22820C2F2000000F0B9F901204C
:102BE00000F002FC82E740F2D001C2F200010120B5
:102BF000087040F25C20C2F200000078E8B9FFE7FC
:102C000040F2B400C2F20000C06840F2DC01C2F23F
:102C10000001086040F25C21C2F20001012008704E
:102C200040F2F410C2F2000000F092F940F22820C5
:102C3000C2F2000000F08CF9FFE740F2B401C2F2EA
:102C40000001CA6840F2CC00C2F200000260B1F993
:102C5000021000EE101AB8EEC00A40F2D401C2F21F
:102C60000001019181ED000A40F2DC01C2F2000195
:102C700091ED000A90ED001A30EE410A40F2A402F4
:102C8000C2F2000282ED000A91ED000AD0ED000AC6
:102C900040F2F410C2F2000000F066F801988DEDE9
:102CA000040A049940F2E402C2F2000211609DEDB0
:102CB000040AD0ED000A40F22820C2F2000000F021
:102CC00053F88DED030A039840F2E001C2F20001CF
:102CD00008609DED030ABDEEC00A10EE100AFDF774
:102CE00089FC012000F080FB00E700BF6F12833AEF
:102CF0000000C84200000000FFE7FEE788B0079030
:102D000006910592079800F0070004900498C0F11E
:102D10000700052803D3FFE70420019004E004988E
:102D2000C0F107000190FFE7019803900498043078
:102D3000062803D8FFE70020009003E0049803383A
:102D40000090FFE70098029006980399012202FA8A
:102D500001F101390840029B984005999A40013AD7
:102D60001140084308B0704780B58AB008908DEDD7
:102D7000070ACDED060A9DED070A9DED061A30EE15
:102D8000410A8DED050A9DED050AB0EEC00A0898CE
:102D900090ED071AB4EE410AF1EE10FA0DDAFFE7F2
:102DA0000899002048620599089A91620799089A43
:102DB000D1620899086309908FE0089890ED000AA5
:102DC0009DED051A20EE010A8DED030A089890ED9D
:102DD000080AB5EE400AF1EE10FA0DDDFFE79DEDB1
:102DE000050AB0EEC00A089890ED081AB4EE410A40
:102DF000F1EE10FA1ADCFFE79DED050A089890ED58
:102E0000042A90ED091A20EE020A30EE010A80ED44
:102E1000090A089890ED051A90ED090AF1EE410AA9
:102E2000FFF702FD089880ED090AFFE7089890ED8A
:102E3000010A90ED091A20EE010A8DED020A0898A8
:102E40009DED052A90ED020A90ED041A90ED0A3AE4
:102E500032EE432A20EE020A80EE010A8DED010ACD
:102E60009DED070A089890ED041A90ED0B2A30EEBC
:102E7000420A80EE010A8DED040A089890ED030ADB
:102E80009DED041A20EE010A8DED000A9DED030A66
:102E90009DED021A30EE010A9DED011A30EE010A95
:102EA0009DED001A30EE010A089880ED0C0A089892
:102EB00090ED061A90ED0C0AF1EE410AFFF7B4FC12
:102EC000089880ED0C0A0598089988620798089977
:102ED000C8620898006B0990FFE79DED090A0AB0E7
:102EE00080BD000080B58AB009908DED080ACDED57
:102EF000070A8DED061ACDED051A8DED042ACDEDEC
:102F0000032A8DED023ACDED013A8DED004A089885
:102F10000999086007980999486006980999886096
:102F200005980999C8600498099908610398099956
:102F3000486102980999886101980999C8610098C7
:102F400009990862099800F003F80AB080BD0000F2
:102F500081B0009000990020486200998862009931
:102F6000C8620099086301B07047000000000000CB
:102F7000EFF30980BFF36F8F154B1A681EF0100F27
:102F800008BF20ED108A20E9F04F10602DE90900FC
:102F90004FF0500080F31188BFF34F8FBFF36F8F56
:102FA00001F062F94FF0000080F31188BDE80900DC
:102FB00019680868B0E8F04F1EF0100F08BFB0ECB9
:102FC000108A80F30988BFF36F8F704700BF00BF7E
:102FD0005801002000000000000000000000000078
:102FE000074B19680868B0E8F04F80F30988BFF311
:102FF0006F8F4FF0000080F31188704700BF00BF53
:103000005801002080B582B00190FFE7012000F058
:10301000EBF9FBE780B582B04FF0500080F31188E8
:10302000BFF36F8FBFF34F8F009001F0E1FA40B113
:10303000FFE74EF60451CEF200014FF080500860D9
:10304000FFE700200190019880F3118802B080BD55
:1030500080B594B008A83021FDF794F900200790BE
:103060000690059004900390FFE70020029043F63D
:103070004000C4F20200016841F080510160006824
:1030800000F0805002900298FFE7FFE700200190D7
:1030900047F20000C4F20000016841F48041016081
:1030A000006800F4804001900198FFE7022008903A
:1030B00001210B9110210C910E9000210F910821FC
:1030C0001091A821119112900420139008A8FEF7E6
:1030D00043FE18B1FFE7FDF7F7F9FFE70F20039074
:1030E00002200490002005904FF4A05006904FF469
:1030F0008050079003A80521FEF746FC18B1FFE7B2
:10310000FDF7E2F9FFE714B080BD00004EF68851EC
:10311000CEF20001086840F47000086070470000BB
:1031200080B540F21010C2F20000FFF74FFA80BDE8
:1031300083B00290019102980068009002980021EB
:10314000C4F20101884225D0FFE70298B0F1804F18
:1031500020D0FFE7029840F20041C4F2000188420B
:1031600018D0FFE7029840F60001C4F2000188423F
:1031700010D0FFE7029840F60041C4F200018842F7
:1031800008D0FFE7029840F20041C4F201018842F2
:103190000AD1FFE7009820F0700000900198416884
:1031A000009808430090FFE702980021C4F2010153
:1031B000884255D0FFE70298B0F1804F50D0FFE72A
:1031C000029840F20041C4F20001884248D0FFE773
:1031D000029840F60001C4F20001884240D0FFE7A7
:1031E000029840F60041C4F20001884238D0FFE75F
:1031F000029840F20041C4F20101884230D0FFE75A
:10320000029844F20001C4F20101884228D0FFE78D
:10321000029844F20041C4F20101884220D0FFE745
:10322000029844F60001C4F20101884218D0FFE779
:10323000029841F60001C4F20001884210D0FFE775
:10324000029841F60041C4F20001884208D0FFE72D
:10325000029842F20001C4F2000188420AD1FFE75D
:10326000009820F4407000900198C16800980843CD
:103270000090FFE7009820F0800001994969084319
:103280000090019880680299C862019800680299CC
:10329000886202980021C4F20101884208D0FFE749
:1032A000029840F20041C4F20101884205D1FFE7D3
:1032B0000198006902990863FFE70299086840F0E5
:1032C0000400086002990120486100980299086092
:1032D00003B07047FFE7FEE781B08DF803009DF96A
:1032E000030000280ED4FFE79DF9031001F01F0230
:1032F000012090404A094EF20011CEF2000141F83F
:103300002200FFE701B070474EF60C50CEF20000ED
:103310000068C0F30220704782B08DF8070000916A
:103320009DF9070000280AD4FFE7009800019DF9E5
:1033300007104EF20042CEF2000288540BE00098D3
:1033400000019DF8071001F00F014EF61452CEF265
:1033500000028854FFE702B07047000083B002907B
:10336000029800F0070000904EF60C51CEF20001DA
:103370000868019001984FF6FF02104001900198F3
:10338000009A40EA02200022C0F2FA521043019053
:103390000198086003B0704780B582B000200190AA
:1033A000FEF706FAFFF754FEFFF7D2FAFFF764FACA
:1033B000FDF756F8FFF788FA00F02AF8FFE7FEE776
:1033C00082B0ADF8060000200090BDF90600842808
:1033D00007D0FFE7BDF906000099084403300090CC
:1033E000FFE7009802B0704780B584B0039003985F
:1033F0000290029818B1FFE70298019002E00120C4
:103400000190FFE7019800F087FE002004B080BD26
:1034100080B500F0B9FE002080BD0000B0B590B0CE
:103420000E900D910E98406938B3FFE70E988069B1
:1034300018B3FFE70E980168089141680B91016984
:1034400009910D990A91B0F90800FFF7B9FF0899A1
:10345000099A0A9B84460B98DDF838E0DEF81440A0
:10346000DEF81850EE46CEF80850CEF80440CEF8FC
:1034700000C001F055F80C9020E00E98016804910E
:1034800041680791018A05910D990691B0F90800EC
:10349000FFF796FF0499059A069B84460798EE4627
:1034A0000CACCEF80440CEF800C000F0E9FF0128D3
:1034B00003D0FFE700200F9003E0FFE70C980F9088
:1034C000FFE70F9810B0B0BD80B584B003900291B3
:1034D00044F26410C2F200000068009040F25810FC
:1034E000C2F200000068043000F082FC88B9FFE7F7
:1034F00040F25810C2F200000068C16A012000FAD0
:1035000001F243F67861C2F2000108689043086056
:1035100000E0FFE70398013080B9FFE7029868B147
:10352000FFE740F25810C2F200000068011D44F2AB
:103530003C10C2F2000000F0EBFC3DE00098039963
:1035400008440190019840F25811C2F20001096844
:1035500048600198009988420ED2FFE740F264105B
:10356000C2F20000006840F25811C2F2000109687E
:10357000043100F097FC1EE040F25C10C2F2000043
:10358000006840F25811C2F200010968043100F0ED
:1035900089FC019844F20811C2F2000109688842CE
:1035A00007D2FFE7019844F20811C2F20001086057
:1035B00000E0FFE7FFE7FFE704B080BD80B582B021
:1035C000019000F0CDFC43F66861C2F2000108688A
:1035D0000130086040F25810C2F20000006898B94B
:1035E000FFE7019840F25811C2F20001086043F66B
:1035F0006860C2F200000068012803D1FFE700F014
:10360000C7F900E0FFE71CE044F23010C2F200000E
:103610000068A0B9FFE740F25810C2F2000000684D
:10362000C06A0199C96A884207D8FFE7019840F249
:103630005811C2F20001086000E0FFE700E0FFE778
:10364000FFE743F67461C2F20001086801300860C8
:103650000198C16A012000FA01F243F67861C2F2D2
:1036600000010868104308600199C86A00EB8002F5
:1036700040F26810C2F2000000EB8200043100F05A
:1036800047FC00F099FC44F23010C2F200000068E0
:10369000C8B1FFE740F25810C2F200000068C06AEB
:1036A0000199C96A88420CD2FFE74EF60451CEF266
:1036B00000014FF080500860BFF34F8FBFF36F8F52
:1036C00000E0FFE700E0FFE702B080BD80B582B018
:1036D000FFE743F66C60C2F20000006808B3FFE742
:1036E00000F03EFC44F25010C2F20000C068C06816
:1036F00001900198043000F07BFB43F66861C2F250
:10370000000108680138086043F66C61C2F20001EC
:1037100008680138086000F04FFC019800F004F8D8
:10372000D7E702B080BD000080B582B0009000985D
:1037300090F8510040B9FFE70098006B00F062FC80
:10374000009800F05FFC1CE0009890F85100012800
:1037500004D1FFE7009800F055FC11E0009890F8C4
:10376000510002280BD0FFE74FF0500080F3118882
:10377000BFF36F8FBFF34F8F0190FFE7FEE7FFE7C7
:10378000FFE702B080BD000084B04FF4705000909D
:1037900040F25D20C2F2000001909DF80400400755
:1037A00088B1FFE7019807300190019820F00700E9
:1037B0000190019A40F25D21C2F200010098891A3D
:1037C00008440090FFE701980290029944F23410F7
:1037D000C2F200000160002141600298009A10448A
:1037E0000190019808380190019820F0070001909D
:1037F000019A40F26010C2F200000260026851605B
:1038000002681160029903910199039A891A516023
:103810000068039908600398406844F20411C2F2FA
:10382000000108600398406843F6A861C2F20001F5
:10383000086043F67C61C2F200014FF0004008606E
:1038400004B0704780B582B00190FFE7FFF73EFFFC
:1038500040F26810C2F20000006802280CD3FFE7B3
:103860004EF60451CEF200014FF080500860BFF3D5
:103870004F8FBFF36F8F00E0FFE7E7E780B588B0B9
:10388000DDF834C0DDF830C0DDF82CC0DDF828C02C
:1038900006900591049203930C98006B049900EB39
:1038A000810004380290029820F0070002909DF8F1
:1038B0000800400758B1FFE74FF0500080F311882F
:1038C000BFF36F8FBFF34F8F0790FFE7FEE70598B9
:1038D000F8B1FFE700200190FFE701980F2813D807
:1038E000FFE70598019A805C0C99114481F8340037
:1038F00005980199405C08B9FFE705E0FFE7FFE79D
:10390000019801300190E8E70C99002081F843000C
:1039100004E00C99002081F83400FFE70A9807289A
:1039200003D3FFE706200A9000E0FFE70A980C990E
:10393000C8620A980C9948640C9900200090886429
:103940000C98043000F0A6FA0C98183000F0A2FA97
:1039500000980C9909610A99C1F107010C9A9161CB
:103960000C9949620C99C8640C9981F8500002982E
:103970000699039A00F00CFA0C9908600B9820B194
:10398000FFE70C980B99086000E0FFE708B080BDE6
:1039900080B584B000200390FFE70398062810D874
:1039A000FFE7039800EB800140F26810C2F20000CC
:1039B00000EB810000F056FAFFE703980130039016
:1039C000EBE743F68060C2F20000019000F04AFA93
:1039D00043F69460C2F20000029000F043FA44F211
:1039E0001C10C2F2000000F03DFA44F25010C2F286
:1039F000000000F037FA44F23C10C2F2000000F080
:103A000031FA0199029840F25C12C2F20002116090
:103A100040F26411C2F20001086004B080BD0000F1
:103A200083B0029044F23410C2F200000190FFE72C
:103A3000019800680299884205D2FFE7FFE70198E4
:103A400000680190F4E70198009000980199496896
:103A500008440299884209D1FFE702984268019917
:103A60004868104448600198029000E0FFE702981F
:103A700000900098029949680844019909688842B1
:103A800020D1FFE70198006840F26011C2F2000106
:103A9000096888420DD0FFE70198006842680299E2
:103AA00048681044486001980068006802990860FE
:103AB00007E040F26010C2F200000068029908605E
:103AC000FFE704E00198006802990860FFE70198A9
:103AD0000299884204D0FFE702980199086000E04B
:103AE000FFE703B07047000008480068006880F3F3
:103AF00008884FF0000080F3148862B661B6BFF307
:103B00004F8FBFF36F8F00DF00BF000008ED00E0B4
:103B100081B040F25C10C2F200000068006840B959
:103B2000FFE744F20811C2F200014FF0FF300860D5
:103B30000FE040F25C10C2F200000068C068C0688C
:103B400000900098406844F20811C2F20001086039
:103B5000FFE701B07047000083B00020009040F202
:103B60003400C2F200000068013058B1FFE74FF0A6
:103B7000500080F31188BFF36F8FBFF34F8F029017
:103B8000FFE7FEE74FF0500080F31188BFF36F8F1F
:103B9000BFF34F8F0190FFE7009808B9FFE7FBE7FD
:103BA00003B0704780B58AB006900020029000F004
:103BB00053FB40F26010C2F20000006818B9FFE742
:103BC000FFF7E2FD00E0FFE7069843F67C61C2F2F2
:103BD00000010968084240F0C580FFE7069800B37D
:103BE000FFE70698083006909DF818004007B0B12E
:103BF000FFE7069820F00700083006909DF81800AF
:103C0000400758B1FFE74FF0500080F31188BFF331
:103C10006F8FBFF34F8F0990FFE7FEE700E0FFE7EC
:103C200000E0FFE70698002800F09A80FFE706987A
:103C300043F6A861C2F200010968884200F2908050
:103C4000FFE744F23410C2F20000049000680590CF
:103C5000FFE705984168069A00209142019007D23B
:103C6000FFE705980068002818BF01200190FFE7D2
:103C70000198C00730B1FFE70598049005980068E7
:103C80000590E6E7059840F26011C2F2000109686C
:103C9000884263D0FFE704980068083002900598D6
:103CA000006804990860059840680699401A112830
:103CB00021D3FFE705980699084403909DF80C006E
:103CC000400758B1FFE74FF0500080F31188BFF371
:103CD0006F8FBFF34F8F0890FFE7FEE705984068AE
:103CE0000699401A03994860069805994860039818
:103CF000FFF796FE00E0FFE70598426843F6A860EC
:103D0000C2F200000168891A0160006844F20411DF
:103D1000C2F20001096888420BD2FFE743F6A860AF
:103D2000C2F20000006844F20411C2F2000108600F
:103D300000E0FFE743F67C60C2F2000002680599EC
:103D400048681043486005990020086044F210114B
:103D5000C2F2000108680130086000E0FFE700E0FF
:103D6000FFE700E0FFE700F01FFD9DF808004007B7
:103D700058B1FFE74FF0500080F31188BFF36F8F09
:103D8000BFF34F8F0790FFE7FEE702980AB080BDB0
:103D900083B0029001910092029804380290029937
:103DA0004FF080700860029804380290019820F06B
:103DB000010002990860029804380290029943F6C3
:103DC0005930C0F60000086002981438029000983C
:103DD0000299086002980438029002996FF002007C
:103DE0000860029820380290029803B070470000E3
:103DF00082B0019001980069009001984168806844
:103E0000886001994868896848600098406801990D
:103E1000884205D1FFE7019880680099486000E07A
:103E2000FFE70199002008610099086801380860DF
:103E30000098006802B0704783B002900191009230
:103E4000029944F2B000C2F200000860019943F602
:103E5000AC60C2F20000086000998020086003B0E6
:103E60007047000081B00090009901F1080048609F
:103E700000994FF0FF308860009901F10800C86098
:103E8000009901F10800086100990020086001B064
:103E90007047000081B0009000990020086101B0D7
:103EA0007047000084B0039002910298006800906F
:103EB0000098013020B9FFE703980069019010E0F5
:103EC000039808300190FFE7019840680068009966
:103ED000884205D8FFE7FFE7019840680190F3E7C3
:103EE000FFE701984068029948600298416888603D
:103EF0000198029988600298019948600398029994
:103F00000861039908680130086004B07047000038
:103F100083B0029001910298406800900098019946
:103F200048600098806801998860019800998968C4
:103F30004860019800998860029801990861029987
:103F400008680130086003B070470000DFF80C001B
:103F5000016841F4700101607047000088ED00E0E5
:103F600082B04FF0500080F31188BFF36F8FBFF322
:103F70004F8F019040F23400C2F20000016801311D
:103F800001600068012814D1FFE74EF60450CEF21C
:103F900000000068000658B1FFE74FF0500080F3C2
:103FA0001188BFF36F8FBFF34F8F0090FFE7FEE7DD
:103FB000FFE702B07047000082B040F23400C2F266
:103FC0000000006858B9FFE74FF0500080F31188F7
:103FD000BFF36F8FBFF34F8F0090FFE7FEE740F214
:103FE0003400C2F20000016801390160006830B994
:103FF000FFE700200190019880F31188FFE702B0ED
:104000007047000080B586B0039003980290039833
:1040100000285CD0FFE702980838029002980190CF
:104020000198406843F67C61C2F2000109680842C9
:104030000BD1FFE74FF0500080F31188BFF36F8F73
:10404000BFF34F8F0590FFE7FEE70198006858B176
:10405000FFE74FF0500080F31188BFF36F8FBFF37D
:104060004F8F0490FFE7FEE70198406843F67C61BC
:10407000C2F200010968084227D0FFE701980068F2
:1040800008BBFFE743F67C60C2F2000002680199BA
:1040900048689043486000F0DFF80198426843F6B2
:1040A000A861C2F200010868104408600198FFF797
:1040B000B7FC44F21411C2F2000108680130086034
:1040C00000F072FB00E0FFE700E0FFE7FFE706B06B
:1040D00080BD00004EF21001CEF200010020086009
:1040E0004EF21802CEF20002106040F20000C2F25E
:1040F0000000006844F6D352C1F26202A0FB020243
:104100004FF0FF3000EB92104EF21402CEF200029C
:10411000106007200860704780B584B002900020CE
:1041200001900298E0B1FFE743F67060C2F2000030
:10413000006858B1FFE74FF0500080F31188BFF3DB
:104140006F8FBFF34F8F0390FFE7FEE700F084F817
:1041500002980021FFF7B8F900F026FB019000E07B
:10416000FFE7019860B9FFE74EF60451CEF2000177
:104170004FF080500860BFF34F8FBFF36F8F00E0A8
:10418000FFE704B080BD000080B58AB00020039036
:104190000690059006A805A904AAFFF74DFE039B0B
:1041A000049A0599DDF818C06846C0F808C0416057
:1041B000036043F64500C0F6000044F6A111C0F6C6
:1041C000000100F0ADF9014644F2AC00C2F200007B
:1041D0000160006818B1FFE70120079002E00020AD
:1041E0000790FFE70798012823D1FFE74FF0500021
:1041F00080F31188BFF36F8FBFF34F8F099044F2A4
:104200000811C2F200014FF0FF30086044F2301193
:10421000C2F200010120086044F26411C2F2000100
:104220000020086000F080F808B1FFE700E0FFE739
:104230000FE00798013058B9FFE74FF0500080F3C6
:104240001188BFF36F8FBFF34F8F0890FFE7FEE732
:10425000FFE70AB080BD000043F67061C2F20001C2
:10426000086801300860704785B043F67060C2F29C
:104270000000006838B1FFE744F26811C2F20001A3
:10428000012008604DE044F26811C2F200010020F4
:10429000086043F67860C2F2000000680490049859
:1042A000B0FA80F08DF80F009DF80F00C0F11F00EC
:1042B0000190019800EB800140F26810C2F200000A
:1042C00050F8210058B9FFE74FF0500080F31188F3
:1042D000BFF36F8FBFF34F8F0290FFE7FEE70198A8
:1042E00000EB800140F26810C2F2000000EB810098
:1042F0000090009948684068486000994868083113
:10430000884205D1FFE70099486840684860FFE7A8
:1043100000984068C06840F25811C2F2000108607D
:10432000FFE705B07047000080B588B04EF600503A
:10433000CEF2000000684CF27121C4F20F118842E5
:104340000BD1FFE74FF0500080F31188BFF36F8F60
:10435000BFF34F8F0790FFE7FEE74EF60050CEF217
:10436000000000684CF27021C4F20F1188420BD19A
:10437000FFE74FF0500080F31188BFF36F8FBFF35A
:104380004F8F0690FFE7FEE74EF20040CEF20000AE
:10439000039001780491FF21017000788DF80B00E3
:1043A0009DF80B0000F0500043F65D61C2F2000181
:1043B000087043F66061C2F2000107200860FFE761
:1043C0009DF80B00000600280DD5FFE743F660615D
:1043D000C2F200010868013808609DF80B00400037
:1043E0008DF80B00ECE743F66060C2F20000006855
:1043F00003280BD0FFE74FF0500080F31188BFF384
:104400006F8FBFF34F8F0590FFE7FEE743F66061C4
:10441000C2F20001086800020860086800F4E06069
:10442000086004984EF20041CEF2000108704EF68A
:104430002051CEF20001086840F47000086008685E
:1044400040F070400860FFF745FE40F23401C2F2D0
:104450000001002001900860FFF778FD4EF63471EE
:10446000CEF20001086840F040400860FFF73CFBD6
:10447000FFF7FAFEFFF770FB019808B080BD00005F
:1044800070B58CB0DDF844C0DDF840C00B900A91E7
:10449000ADF826200893BDF826008000FFF782FBC8
:1044A0000590059880B1FFE75420FFF77BFB07904C
:1044B000079820B1FFE705980799086303E005987E
:1044C000FFF7A0FDFFE702E000200790FFE7079855
:1044D000F0B1FFE70798002680F851600B980A9921
:1044E000BDF82620089BDDF840C0119C079DEE46D4
:1044F000CEF80C60CEF80850CEF80440CEF800C0DC
:10450000FFF7BCF90798FFF759F80120069003E080
:104510004FF0FF300690FFE706980CB070BD00002A
:10452000B0B58EB0DDF850C0DDF84CC0DDF848C045
:104530000A90099108920793139858B9FFE74FF032
:10454000500080F31188BFF36F8FBFF34F8F0D9032
:10455000FFE7FEE7149858B9FFE74FF0500080F3EB
:104560001188BFF36F8FBFF34F8F0C90FFE7FEE70B
:1045700054200490049854280BD0FFE74FF05000CB
:1045800080F31188BFF36F8FBFF34F8F0B90FFE75E
:10459000FEE70498149820B3FFE7139808B3FFE7E9
:1045A000149806901398069908630699022081F8DA
:1045B00051000A980999089A079BDDF848C0069CA3
:1045C000EE460025CEF80C50CEF8084005ACCEF8EB
:1045D0000440CEF800C0FFF751F90698FEF7EEFF51
:1045E00002E000200590FFE705980EB0B0BD000086
:1045F00080B586B00020029043F67060C2F20000E1
:104600000068002840F0C580FFE744F26411C2F260
:10461000000108680130019001980860019858BBBA
:10462000FFE740F25C10C2F200000068006858B179
:10463000FFE74FF0500080F31188BFF36F8FBFF397
:104640004F8F0590FFE7FEE740F25C12C2F20002D6
:104650001068009040F26411C2F200010868106016
:104660000098086044F20C11C2F2000108680130A1
:104670000860FFF74DFA00E0FFE7019844F20811E7
:10468000C2F200010968884262D3FFE7FFE740F207
:104690005C10C2F200000068006840B9FFE744F215
:1046A0000811C2F200014FF0FF3008604FE040F205
:1046B0005C10C2F200000068C068C06804900498F2
:1046C0004068039001980399884207D2FFE7039856
:1046D00044F20811C2F20001086038E0FFE70498D4
:1046E0000430FFF785FB0498806A28B1FFE704983F
:1046F0001830FFF77DFB00E0FFE70498C16A012056
:1047000000FA01F243F67861C2F200010868104332
:1047100008600499C86A00EB800240F26810C2F297
:10472000000000EB82000431FFF7F2FB0498C06A3E
:1047300040F25811C2F200010968C96A884203D3E5
:10474000FFE70120029000E0FFE7FFE79FE7FFE7B8
:1047500040F25810C2F200000068C06A00EB80010D
:1047600040F26810C2F2000050F82100022803D382
:10477000FFE70120029000E0FFE744F26810C2F278
:104780000000006818B1FFE70120029000E0FFE799
:1047900007E044F21811C2F2000108680130086015
:1047A000FFE7029806B080BD80B584B0002002907B
:1047B000019043F67060C2F20000006858B9FFE74C
:1047C0004FF0500080F31188BFF36F8FBFF34F8F0E
:1047D0000390FFE7FEE7FFF7C3FB43F67060C2F20A
:1047E00000000168013901600068002840F09280F3
:1047F000FFE743F66860C2F200000068002800F09E
:104800008880FFE7FFE744F21C10C2F20000006856
:10481000E0B3FFE744F21C10C2F20000C068C068B9
:10482000029002981830FFF7E3FA02980430FFF77D
:10483000DFFA0298C16A012000FA01F243F67861BA
:10484000C2F200010868104308600299C86A00EBD0
:10485000800240F26810C2F2000000EB82000431D6
:10486000FFF756FB0298C06A40F25811C2F20001ED
:104870000968C96A884207D3FFE744F26811C2F2A7
:1048800000010120086000E0FFE7BCE7029818B1D2
:10489000FFE7FFF73DF9FFE744F21810C2F200000E
:1048A000006800900098E0B1FFE7FFE7FFF7A0FE87
:1048B00038B1FFE744F26811C2F20001012008603C
:1048C00000E0FFE7009801380090FFE7009800281B
:1048D000ECD1FFE744F21811C2F200010020086099
:1048E00000E0FFE744F26810C2F20000006870B117
:1048F000FFE7012001904EF60451CEF200014FF087
:1049000080500860BFF34F8FBFF36F8F00E0FFE769
:10491000FFE700E0FFE7FFF74FFB019804B080BD21
:10492000F1EE100A4FF6FF71C0F2C03120EA01002B
:1049300040F04070E1EE100A704700008C4900081A
:10494000212A000802000000000000000002000010
:104950000000000000000000954900080530000834
:1049600000000000000000008000000000000000C7
:10497000000000000000000000000000010203042D
:104980000607080900000000010203044374726C6A
:104990005461736B0064656661756C745461736B0C
:1049A0000049444C45000000C849000800000020B0
:1049B00038000000EC010008004A00083800002020
:1049C000384700000C0200080024F400CDCC4C3D18
:1049D0000000A040CDCCCC3DCDCC4C3E0000904161
:1049E0000000A04300409C459A99193F0000604197
:1049F00000401C460100000010000000AAAAAAAA5C
:040000050800018965
:00000001FF
