:020000040800F2
:1000000070470020550200083D1C000871190008C7
:10001000DD1A00084D04000841200008000000001F
:10002000000000000000000000000000E11D0008CA
:10003000BD04000800000000711D00080D1E00082E
:100040006F0200086F0200086F0200086F020008CC
:100050006F0200086F0200086F0200086F020008BC
:100060006F0200086F0200086F0200086F020008AC
:100070006F0200086F0200086F0200086F0200089C
:100080006F0200086F0200086F0200086F0200088C
:10009000510400086F0200086F0200086F02000898
:1000A0006F0200086F0200086F0200086F0200086C
:1000B0006F0200086F020008F91E00086F020008B6
:1000C0006F0200086F0200086F0200086F0200084C
:1000D0006F0200086F0200086F0200086F0200083C
:1000E0006F0200086F0200086F0200086F0200082C
:1000F0006F0200086F0200086F0200086F0200081C
:100100006F0200086F0200086F0200086F0200080B
:100110006F0200086F0200086F0200086F020008FB
:100120006F0200086F0200086F0200086F020008EB
:100130006F0200086F0200086F0200086F020008DB
:100140006F0200086F0200086F0200086F020008CB
:100150006F0200086F0200086F0200086F020008BB
:100160006F0200086F0200086F0200086F020008AB
:100170006F0200086F0200086F0200080000000014
:100180006F0200086F02000800F002F800F052F859
:1001900014A696E8000CB244B344DA4501D100F04D
:1001A00049F8BAE80F000FA696E83000A5EB040561
:1001B00004EB0607AAEB0704A7F101074FEA1515A0
:1001C0004FEA3414A4F10104AC4201D300F032F838
:1001D00013F0010F18BFFB1A43F0010300F001F800
:1001E000DBE71847EC2C00000C2D0000103A24BF70
:1001F00078C878C1FAD8520724BF30C830C144BF8C
:1002000004680C6070470000704700000023002461
:1002100000250026103A28BF78C1FBD8520728BF16
:1002200030C148BF0B6070471FB502F02CFE1FBDE8
:1002300010B510BD00F0D0F81146FFF7F5FF01F042
:1002400001FF00F0EEF803B4FFF7F2FF03BC00F08B
:10025000F5F800000948804709480047FEE7FEE737
:10026000FEE7FEE7FEE7FEE7FEE7FEE7FEE7FEE766
:1002700004480549054A064B70470000E51E000882
:100280008901000870410020704700207043002061
:100290007043002053EA020C00F069802DE9F04B16
:1002A0004FF00006002B1FBFB3FA83F503FA05F4E5
:1002B00024FA05F65E4012BF1643B2FA82F502FA3E
:1002C00005F4C5F120051EBF22FA05FC44EA0C0422
:1002D000203556EA044C4FEA144418BF641C4FF012
:1002E00000084FF00009904271EB030C39D300294C
:1002F00019BFB1FA81F701FA07F6B0FA80F700FAF0
:1003000007F6C7F120071EBF20FA07FC46EA0C06D5
:100310002037B6FBF4FCA7EB0507103F07F01F0BD7
:10032000CBF120062CFA06F60CFA0BFB44BFB346C1
:100330000026202FA4BF5E464FF0000B5BEA060CA0
:1003400008BF4FF0010B19EB0B0948EB0608ABFB9C
:10035000027C06FB02CC0BFB03CCC01B71EB0C0137
:10036000C1E70B46024641464846BDE8F08B13B54F
:10037000084318BF4FF0FF300146AFF30080BDE8DF
:100380001C4070474FF0000200B513469446964655
:10039000203922BFA0E80C50A0E80C50B1F1200198
:1003A000BFF4F7AF090728BFA0E80C5048BF0CC046
:1003B0005DF804EB890028BF40F8042B08BF7047A4
:1003C00048BF20F8022B11F0804F18BF00F8012B16
:1003D0007047704770477047754600F02BF8AE467F
:1003E00005006946534620F00700854618B020B541
:1003F000FFF73EFFBDE820404FF000064FF000073A
:100400004FF000084FF0000BAC46ACE8C009ACE878
:10041000C009ACE8C009ACE8C00921F007018D466D
:10042000704710B50446AFF300802046BDE8104089
:10043000FFF709BF00487047380000200149182025
:10044000ABBEFEE72600020070470000FEE700009A
:1004500040F2E810C2F2000000F0D6B980B58AB0D0
:10046000002006900121CDE90000CDE90200CDE990
:10047000040040F2E810CDE90711C2F2000069461D
:1004800000F0B8F8002818BF00F01AF840F2E810A1
:10049000C2F2000000F028FC002818BF00F010F89D
:1004A00040F2E810C2F20000022100F039F8002802
:1004B00018BF00F005F80AB080BD000070470000CA
:1004C00072B600BFFEE7000080B58AB0002142F29C
:1004D0001072CDE902119042B8BF02464DF6F0000D
:1004E000CFF6FF708242D8BF024640F2FF10CDE93E
:1004F000040108200890100A8DF8080040F2E81066
:10050000CDE906118DF824108DF80920C2F2000003
:1005100004A902AA01AB00F01BF80AB080BD0000DC
:1005200090F82020013A012A08D8006800F114024E
:100530000020136819431160704700BF00F12402C6
:1005400001204FF4802113681943116070470000A7
:1005500010B590F820E0D0F800C0AEF1010EBEF169
:10056000010FDCF808E011D81EF0E05F18D0CEF3E0
:1005700001640120A04018608B68DBB1D1F804E071
:10058000C86840EACE0040EA030E17E000F12403F9
:1005900001204FF480211A681143196010BD00BF7B
:1005A00000F1240301204FF400111A68114319606F
:1005B00010BD00BF0868CB6843EA405E0CF5C07010
:1005C00000EB0413240140F804E00C69184640F8DD
:1005D000044F097D012903D1016841F48071016054
:1005E00050680121D8601068986000201A68114393
:1005F000196010BD90F82020013A012A30D8B0B51A
:1006000046F20060C4F20000026842F0010202609B
:10061000026822F47C520260D1F814E0CC694A6A84
:100620000368012C43EA022202600EF01F024FF021
:10063000010303FA02F2C3696FEA020C23EA020320
:10064000C36113D02CBBC36803EA0C03C360CB683F
:100650008C8844EA034300EBCE0423640B4611E08C
:10066000416A41F48021416201207047C36813430D
:10067000C3600B688C8844EA034300EBCE04236418
:1006800001F10C038C681B8843EA044300EBCE04A1
:10069000636443688D6943EA0204D1F810E0096A93
:1006A000002D08BF03EA0C0444604369BEF1000F4B
:1006B00043EA020408BF03EA0C040129446102D1A1
:1006C000C1691143C161016821F00101016000208D
:1006D000B0BD000070470000B0B590F82040013C6C
:1006E000012C7DD8D0F800C000290CBFDCF80C40EC
:1006F000DCF81040A4077DD00CF5D8754FEA011C3A
:1007000055F80C4014F00404946055F80CE005EB27
:10071000011C19BF4FEADE0555604FEA5E551560B2
:10072000DCF80050E64605F00205D5605EF8044F9F
:1007300024075ABFDEF8004004F00F0408241461B7
:10074000DEF800400029C4F307249461DEF800506D
:100750004FEA15455561DCF808201A70026802EB73
:100760000112D2F8B8214FEA12225A70026802EB45
:100770000112D2F8B8214FEA12429A70026802EBD5
:100780000112D2F8B8214FEA1262DA70026802EB65
:100790000112D2F8BC211A71026802EB0112D2F8E0
:1007A000BC214FEA12225A71026802EB0112D2F800
:1007B000BC214FEA12429A71026802EB0112D2F890
:1007C000BC214FEA1262DA7100680CBF00F10C0123
:1007D00000F11001002020220B681A430A60B0BD0E
:1007E00000F1240101204FF480220B681A430A60B3
:1007F000B0BD00BF00F1240101204FF400120B68CE
:100800001A430A60B0BD00002DE9F04F81B00446E4
:1008100000684669D0F804908768D0F80CB0D0F82A
:1008200010A0D0F81880F10704D1002530071DD49E
:1008300024E000BFF90710D00121BA07816009D474
:10084000780700F1AF80380700F1B680204600F04D
:1008500079FA02E0204600F077FA0025F80500F169
:100860008780F80300F1B180300707D51BF0100036
:1008700004D0206845F400751021C160700708D5C8
:100880001BF0080005D020680821C160204600F058
:10089000A7F9B00706D52068C068800702D02046B7
:1008A00000F0A0F9700607D51AF0100004D02068F7
:1008B00045F4806510210161B00608D51AF00800E2
:1008C00005D0206808210161204600F007FAF006F3
:1008D00006D520680069800702D0204600F000FAA3
:1008E000B00308D519F0100005D020681021416030
:1008F000204600F0F7F9F00308D519F0080005D0FC
:10090000206808214160204600F028FA300440F1B8
:100910009B805FEA497040F1948006F4807008EA99
:10092000102028435FEA8871014648BF41F0020168
:10093000B20558BF01465FEA48700D4648BF45F012
:100940000405700558BF0D46300540F17A8018F057
:10095000700000F076801038000905286CD8DFE8B8
:1009600000F003655D61596945F0080564E000BF6A
:1009700020684FF48071BA0581600BD4780515D4D6
:1009800038051DD4204600F0E1F9F8037FF56CAF7F
:100990001BE000BF204600F0DBF9F8037FF564AFF1
:1009A00013E000BF4FF4006558E700BF05F50055A0
:1009B000F8037FF559AF08E04FF480554EE700BFCC
:1009C00005F58045F8037FF54FAF20684FF480317F
:1009D000BA0381600AD4780310D4380314D42046B3
:1009E00000F0B8F930073FF541AF47E7204600F087
:1009F000B3F930073FF53AAF40E700BF05F50045D2
:100A000030073FF533AF39E705F5803530073FF55F
:100A10002DAF33E745F080050EE000BF45F020051F
:100A20000AE000BF45F0400506E000BF45F01005B4
:100A300002E000BF45F480752068816921F07001F3
:100A4000816120680421416055B1606A40EA050176
:100A50002046616201B0BDE8F04FFFF73BBE00BF2A
:100A600001B0BDE8F08F0000002804BF01207047EE
:100A7000B0B5044690F8200010B9204600F06EF89A
:100A80002068016841F00101016000F03FFA05466D
:100A900020684168C90705D100F038FA401B0B28CF
:100AA000F6D310E0016821F00201016000F02EFA97
:100AB000054600BF2068416889070DD500F026FA79
:100AC000401B0B28F6D3606A052140F400306062B9
:100AD000012084F82010B0BD217E0268012922F097
:100AE000800208BF80320260617E0268012922F024
:100AF000400208BF40320260A17E0268012922F054
:100B0000200208BF20320260E17E0268012922F043
:100B1000100218BF10320260217F0268012922F002
:100B2000080208BF08320260617F0268012922F0D2
:100B3000040208BF04320260D4E901C2D4E90335DB
:100B400061691A432A431143ACF101021143C161A7
:100B500000200121606284F82010B0BD80B586B00D
:100B600046F200410068C4F200010022884205926A
:100B7000CDE903220292019202D006B080BD00BFEF
:100B800043F630000092C4F20200036943F00073A0
:100B90000361036903F000730093009B00920368F4
:100BA00043F0080303600068022300F0080000908F
:100BB00000980320019004900920059001F5D4309D
:100BC00001A9CDE9023200F0CBF814200521002262
:100BD00000F05AFA142000F045FA06B080BD00007B
:100BE00070470000016846F20042C4F200029142E0
:100BF00018BF704710B58AB003AA01AB0021FFF7F8
:100C00006BFD18B10AB0BDE81040704740F24014C7
:100C1000C2F2000460680130606005980028F1D1DC
:100C2000039840F205218842ECD1A0689FED291A73
:100C30000130A060BDF8040000BA000CA081BDF82E
:100C4000060000BA000CE081BDF8080000BA000CF4
:100C500020829DF80A00A074A08900EE100AB8EE68
:100C6000402A9FED1D0A22EE012A22EE002A84ED81
:100C7000052A2178A089E9B16188401A014610F55A
:100C8000805FB8BF01F50051B0F5805FC8BFA0F527
:100C9000005102EE101AB8EEC22A22EE011A94EDAB
:100CA000062A21EE000A32EE000A84ED060AA08927
:100CB00004E000BF0021A16101212170608000F0EB
:100CC00025F9E061012084F820000AB0BDE8104059
:100CD000704700BF0000B4430000003970470000B7
:100CE0007047000070470000B0B5044690F820003F
:100CF00001281DD1022084F820002068016821F01D
:100D00000101016000F002F9054600BF206840685B
:100D1000C00713D000F0FAF8401B0B28F6D3606A26
:100D200040F400306062052084F820000120B0BD4E
:100D3000606A40F4002060620120B0BD0020606263
:100D4000B0BD000070470000704700007047000011
:100D500070470000704700007047000070470000B7
:100D60002DE9F04F83B000F1200200F13E4741F63B
:100D70000045009207F1FF77C4F2020508224FEA0E
:100D8000B726A84208BF072200254FF000084FF001
:100D90000009072E38BF4FEAB72201920AE000BFD0
:100DA00009F1010908F10208B9F1100F05F1040574
:100DB00000F0A2800F68012202FA09FE17EA0E0A6B
:100DC000EED0D1F804C003220CF003077E1E02FA15
:100DD00008F4012E6FEA040B12D88468CE6804EA86
:100DE0000B0406FA08F634438460446824EA0E06CD
:100DF000CCF3001404FA09F42643466004E000BF73
:100E0000032F01D103271EE0C6688C6806EA0B0693
:100E100004FA08F42643022FC66014D16FF00302CF
:100E2000009E02EA590756F807C005F01C040F227D
:100E30000B69A2402CEA0202A3401A43F251D1F8F6
:100E400004C00CF00307026807FA08F302EA0B0279
:100E50001A431CF4403F0260A2D0002243F6440330
:100E60000292C4F202031A6843F6004442F480423C
:100E70001A601A68C4F2010402F480420292029AD3
:100E800029F003024FF6084C2244CFF6FF7C52F8BB
:100E90000C3005F00C070F26BE40B343019E06FA46
:100EA00007F73B4342F80C30A2684B6842EA0A0756
:100EB00043F60C4CDE0258BF22EA0A07A760C4F2D0
:100EC000010CDCF800209E0242EA0A0758BF22EA21
:100ED0000A07CCF8007062689E0342EA0A0758BF0E
:100EE00022EA0A0767602268DB0342EA0A0758BF62
:100EF00022EA0A07276053E703B0BDE8F08F00003D
:100F0000002A08BF090481617047000043F6187089
:100F1000C2F200000068704740F2000043F618710A
:100F2000C2F20000C2F2000100780A6810440860B2
:100F30007047000080B543F60040C4F2020001682B
:100F400041F400710160016841F480610160016851
:100F500041F480710160032000F0C2F80F2000F01E
:100F600005F800F05DF8002080BD000070B586B087
:100F7000002543F640010195C4F202010A680446C7
:100F800042F004020A60096801A801F0040101911D
:100F90000199694600F066F9049E002E18BF0126EB
:100FA00000F080F94DF68361B040C4F21B31A0FB24
:100FB00001014FF0FF3000EB914140F2102040F66C
:100FC0000002C2F20000C4F2000240F2E733C0E9BE
:100FD0000021C0E902530561856100F089FB08B179
:100FE00006B070BD40F21020C2F2000000F0B0FB6D
:100FF0000028F5D11E2000F035F80F2C0CD81E204B
:101000002146002200F040F840F204010020C2F224
:1010100000010C6006B070BD012006B070BD00007C
:1010200082B0002043F640010190C4F202014A68F8
:1010300042F480424A604A6802F480420192019A76
:1010400000900868002240F08050086008680F2176
:1010500000F08050009000986FF0010002B000F0A6
:1010600013B80000002848BF704700F01F0101229C
:1010700002FA01F11C2202EAD0004EF20012CEF276
:10108000000281507047000010B54EF60C5CCEF2A5
:10109000000CDCF80030C3F3022E8EF00704042CA1
:1010A00028BF0424BEF103034FF0FF3E0EFA04F400
:1010B00038BF0023A14399400EFA03F39A4311432A
:1010C00000F00F0200F160430901043A03F56443A4
:1010D0006244002848BF02F10C03197010BD0000E3
:1010E0004EF60C51CEF200010A684FF6FF031A408B
:1010F00060F30A2242F0806040F0FD7008607047A3
:10110000002804BF012070472DE9F04143F608088C
:10111000C4F202080446D8F8F8030D4600F00700B0
:10112000814207D988F8F853D8F8F80300F007008F
:10113000A84277D12068810717D5410705D5D8F88F
:10114000001041F4E051C8F80010010705D5D8F8A7
:10115000001041F46041C8F80010D8F80010A268EF
:1011600021F0F0011143C8F80010C00740D1D8F8B1
:10117000F80300F00700854207D288F8F853D8F842
:10118000F80300F00700A8424CD12068410707D5BA
:10119000D8F80010E26821F4E0511143C8F80010BB
:1011A000000708D5D8F80000216920F4604040EA23
:1011B000C100C8F8000000F089F8D8F8001042F625
:1011C000A062C1F30311C0F60002515C40F22C0290
:1011D00020FA01F140F20400C2F200000068C2F2FD
:1011E00000021160FFF7C2FE0020BDE8F08100BFE1
:1011F0006068811E022907D258F8081C89015CBF6B
:101200000120BDE8F08111E0012807D158F8081C41
:1012100089035CBF0120BDE8F08107E058F8081C95
:10122000890703D40120BDE8F08100BFD8F8001081
:1012300021F003010843C8F80000FFF767FE0646E7
:1012400041F28837D8F80000616800F00C00B0EB7C
:10125000810F8CD0FFF75AFE801BB842F2D90320D1
:10126000BDE8F0810F22026043F60802C4F20202D8
:10127000136803F003034360136803F0F003836013
:10128000136803F4E053C360D2F800C04FF4E05396
:1012900003EADC030361D2F8F80300F007000860FA
:1012A0007047000040F22C0043F60801C2F2000033
:1012B000C4F202010068096842F6B062C1F38221FB
:1012C000C0F60002515CC8407047000010B543F6FC
:1012D0000404C4F202046168C1F3810142F20040D7
:1012E000C0F2F400DFE801F002040A0210BD00BF02
:1012F00047F64000C0F27D1010BD00BF2068216895
:101300002368490247F64001C0F27D1100F03F0218
:10131000C3F388105CBF42F20041C0F2F401A1FBAC
:1013200000010023FEF7B6FF21680222C1F301414C
:1013300002EB4101B0FBF1F010BD0000002804BF3A
:10134000012070472DE9F04182B00446007843F651
:101350000006C007C4F202060CD0B06800F00C0012
:10136000042840F081803068800303D5606800283D
:1013700000F06881207880071BD5B06810F00C0F52
:1013800009D0B06800F00C00082840F08780706831
:10139000400200F183803068800703D5E0680128AF
:1013A00040F050813068216920F0F80040EAC10027
:1013B00030602078000713D4207840072AD4A5692C
:1013C000002D00F03A81B06800F00C00082840F0D1
:1013D000A580012D40F00E81012002B0BDE8F08112
:1013E0006069002800F082800020C4F247200121BB
:1013F000C0F8801EFFF78AFD054600BF706F8007AA
:10140000DAD4FFF783FD401B0228F7D9032002B08E
:10141000BDE8F081306C5FEAC0080AD4002001907A
:10142000306C40F080503064306C00F0805001909F
:10143000019847F20007C4F200073868C00547D496
:10144000386840F480703860FFF760FD054600BFE3
:101450003868C0053CD4FFF759FD401B0228F7D976
:10146000032002B0BDE8F081B06800F00C0008284D
:1014700003D1706840023FF576AF61683068B1F51E
:10148000803F07D0B1F5A02F40F09A8040F4802033
:101490003060306840F4803030609AE0E0680028C6
:1014A00040F20000C4F247205CD001210160FFF748
:1014B0002DFD0546306880073FF574AFFFF726FD28
:1014C000401B0228F6D9032002B0BDE8F08100BF1E
:1014D000A168306F012905D0052955D140F00400DD
:1014E0003067306F40F00100306756E00020C4F2F2
:1014F00047200021C0F8801EFFF708FD054600BF09
:10150000706F80077FF558AFFFF700FD401B022882
:10151000F6D9032002B0BDE8F08100BF0027C4F275
:10152000472700203866FFF7F1FC022D05460DD154
:101530003068800140F18A80FFF7E8FC401B0228F8
:101540004FF00300F4D902B0BDE8F08130688001AB
:1015500073D5FFF7DBFC401B02284FF00300F5D9E1
:10156000F1E700BF00210160FFF7D0FC054600BF96
:10157000306880077FF51DAFFFF7C8FC401B0228CD
:101580004FF00300F4D9DEE720F001003067306F40
:10159000002920F0040030677AD0FFF7B7FC054639
:1015A00041F28837306F800700F18480FFF7AEFC8E
:1015B000401BB842F6D9032002B0BDE8F08100BF5D
:1015C00020F4803030603068002920F480203060C2
:1015D0007AD0FFF79BFC0546306880033FF5CAAE22
:1015E000FFF794FC401B6428F6D9032002B0BDE845
:1015F000F08100BF7068E16900F480028A4221D165
:10160000216A00F03F028A421CD147F6C071626A2B
:101610000140B1EB821F15D1A16A4FF6FF73C903D8
:10162000994300F44032A1F580318A420AD1E16A3F
:1016300000F07060B0EB016F04D1002002B0BDE893
:10164000F08100BF012002B0BDE8F08104F11C056B
:101650002FCD084340EA8210D9034FF6FF72914321
:10166000A1F5803140EA05600843706001203866CA
:10167000FFF74CFC044600BF30688001DDD4FFF763
:1016800045FC001B02284FF00300F5D95BE700BFC3
:10169000FFF73CFC054641F2883700BF306F8007FA
:1016A00008D5FFF733FC401BB8424FF00300F5D9D3
:1016B00049E700BFB8F1000F3FF581AE306C20F074
:1016C000805030647BE600BFFFF720FC054600BF7A
:1016D000306880037FF54EAEFFF718FC401B64288E
:1016E0004FF00300F4D92EE7704700007047000068
:1016F000002804BF0120704710B5044690F83D0053
:1017000028B9002084F83C00204600F01FF8022091
:1017100084F83D002068211D00F0F4FB012084F8CE
:10172000460084F83E0084F83F0084F8400084F8C6
:10173000410084F8420084F8430084F8440084F8AF
:10174000450084F83D00002010BD000070470000F7
:1017500090F83D1001291CBF01207047022180F83C
:101760003D10006841F2FF72C168C4F2000290426D
:1017700041F00101C1600DDC40F2FF71C4F20001D3
:10178000884215DCB0F1804F2AD040F20041C4F20B
:10179000000123E040F2FF31C4F20101884213DC72
:1017A00041F60001C4F20001884219D0002113E083
:1017B00040F60001C4F20001884211D040F6004119
:1017C000C4F200010AE000BF44F20001C4F20101CA
:1017D000884205D040F20041C4F20101884206D19E
:1017E000816801F00701062904BF002070470168E5
:1017F00041F00101016000207047000070470000C7
:1018000070B504460068C5680669B10716D515F0BD
:10181000020113D06FF0020101610121217780697B
:10182000800703D02046FFF7E9FF05E0204600F0DF
:101830008FF8204600F08EF800202077700719D529
:1018400015F0040016D020686FF004010161022138
:101850002177806910F4407F04D02046FFF7CEFF47
:1018600006E000BF204600F073F8204600F072F852
:1018700000202077300717D515F0080014D0206815
:101880006FF00801016104212177C069800703D04E
:101890002046FFF7B3FF05E0204600F059F8204648
:1018A00000F058F800202077F00619D515F0100048
:1018B00016D020686FF01001016108212177C069FE
:1018C00010F4407F04D02046FFF798FF06E000BFE9
:1018D000204600F03DF8204600F03CF8002020773C
:1018E000F00718BF15F0010002D1300609D412E04C
:1018F00020686FF001010161204600F02DF83006EC
:1019000009D515F0800006D020686FF080010161D4
:101910002046FFF7E9FE700609D515F0400006D015
:1019200020686FF040010161204600F01FF8B0060A
:1019300058BF70BD15F0200008D021686FF020025C
:1019400020460A61BDE87040FFF7D0BE70BD0000C0
:101950007047000070470000006840F60001C4F2C4
:101960000001884218BF7047FFF7D6BA70470000E1
:10197000FEE7000010B540F2E81046F20041C2F266
:101980000000C4F20001072200234FF0807480E8B9
:101990000E0000F10C014FF4803C4FF4001E81E872
:1019A000085084618383FFF75FF8002808BF10BDEB
:1019B000BDE81040FEF784BD70B58EB0134808AC8A
:1019C000079012A000F1040E9EE80E50806984E892
:1019D0000E500D9007A8002100F052FB40F298062F
:1019E000C2F20006104930600FA0051D00913ECDE7
:1019F00080690DF1040C8CE83E00069068460021D9
:101A000000F03EFB70600EB070BD00BFC12E00083C
:101A1000051E00080000000000000000800000001B
:101A20000000000000000000B82E0008E11A0008C5
:101A300002000000000000000002000000000000A2
:101A40000000000070B586B0002543F63000059513
:101A5000CDE90355CDE901550095C4F202000168B6
:101A600041F6004441F0010101600168C4F2020442
:101A700001F001010091009900950168002241F0F8
:101A80000801016001684FF4806601F008010091CF
:101A900000990095016841F004010160016801F0BE
:101AA0000401009100990095016841F080010160F6
:101AB00000684FF4806100F080000090009820469C
:101AC000FFF71EFA0120CDE9020501A92046019683
:101AD0000495FFF745F906B070BD0000FEE7000071
:101AE00040F2080640F26417C2F20006C2F2000794
:101AF0009FED4F8A96ED000AD6ED010A97ED011A87
:101B0000D7ED021A96ED063AD6ED023A96ED034A63
:101B100007F12808DFED472A4046B0EE482A00F0DA
:101B200013F940F2E425DFED441A96ED040AD6EDF0
:101B3000050A97ED031AD6ED082A96ED073AC2F288
:101B400000052846B0EE482AF0EE613AB0EE614A50
:101B500000F0FAF840F24C14C2F200044FF0000911
:101B60004FF0010A0DE000BF384684F8149000F8E9
:101B7000289B00F0F1F8284600F0EEF8012000F074
:101B800071FA306807F1280C71687A68BB688CE8D4
:101B90000F00B068F168B269B964C7E91020306914
:101BA0007169FA6885E80700306AF169C5E90501DD
:101BB000207D0028D8D0FFF7A9F92169401A6528AF
:101BC000D2D287F800A0787848B9E06838614046FA
:101BD00087F801A000F0C0F8284600F0BDF8E068E2
:101BE0007861B4F9020000EE100AB8EEC00A87ED81
:101BF000060A97ED040A97ED051A404630EE410AB1
:101C000087ED070A97ED040AD7ED050A00F018F8EA
:101C100087ED080AD7ED060A284600F011F887ED8F
:101C2000090ABDEEC00A10EE100AFEF74DFCA5E74A
:101C30006F12833A0000C84200000000FEE7000077
:101C400030EE601A90ED072AB0EEC13AB4EE423A97
:101C5000F1EE10FA0ADA80ED0B0A9FED3A0A002144
:101C6000416280ED0A1A0163704700BF90ED084A97
:101C700090ED002AB5EE404AF1EE10FA21EE022A6C
:101C80000ADDB4EE443AF1EE10FA05DD90ED043AC7
:101C900090ED094A1CE000BF90ED043A90ED094A2E
:101CA00090ED055A21EE036A36EE044AB1EE456A1C
:101CB000B4EE454AF1EE10FAB4EE464AC8BFB0EEB3
:101CC000454AF1EE10FAB8BFB0EE464A80ED094A37
:101CD00090ED0A6A90ED025A90ED0B7A31EE466A69
:101CE00030EE477A25EE065A87EE037A85EE033A00
:101CF00090ED015A90ED036A25EE044A32EE042A73
:101D0000D0ED060A26EE075A32EE032A32EE052AF5
:101D1000B1EE603AB4EE602AF1EE10FAB4EE432A66
:101D2000C8BFB0EE602AF1EE10FAB8BFB0EE432A99
:101D300080ED0B0AB0EE420A80ED0A1A80ED0C2A03
:101D4000704700BF00000000002180EC090AC0E9D4
:101D50000911C0E90B1170470021C0E90911C0E960
:101D60000B117047000000000000000000000000A0
:101D7000EFF30980BFF36F8F154B1A681EF0100F39
:101D800008BF20ED108A20E9F04F10602DE909000E
:101D90004FF0500080F31188BFF34F8FBFF36F8F68
:101DA00000F010FE4FF0000080F31188BDE809003C
:101DB00019680868B0E8F04F1EF0100F08BFB0ECCB
:101DC000108A80F30988BFF36F8F704700BF00BF90
:101DD000A000002000000000000000000000000043
:101DE000074B19680868B0E8F04F80F30988BFF323
:101DF0006F8F4FF0000080F31188704700BF00BF65
:101E0000A0000020012000F02DF9FBE780B54FF085
:101E1000500080F31188BFF36F8FBFF34F8F00F036
:101E200039FF30B14EF60450CEF200004FF0805131
:101E30000160002080F3118880BD000070B592B071
:101E400006AC20463021FEF79DFA002543F64000FF
:101E50000595CDE90355CDE901550095C4F2020081
:101E60000168022641F080510160006800F0805056
:101E70000090009847F200000095C4F2000001684D
:101E800041F480410160006800F4804000900098B7
:101E90000120099010200A9008200E90A820CDE97A
:101EA0000F060420119020460696CDE90C65FFF739
:101EB00045FA18B172B600BFFEE700BF0F20CDE9AA
:101EC00001064FF4A05004904FF48050059001A8F3
:101ED00005210395FFF714F910B172B6FEE700BFB4
:101EE00012B070BD4EF68850CEF20000016841F489
:101EF000700101607047000040F21020C2F2000043
:101F0000FFF77EBCB0B540F6FF3E0568C4F2000E98
:101F100040F2004C7045C4F2010C25DCB0F1804F5A
:101F20002FD040F20043C4F20003984229D040F67B
:101F30000003C4F20003984223D041F6FF73C4F2B9
:101F40000003984228DC70453ADCB0F1804F5BD04A
:101F500040F20043C4F20003984255D040F600031B
:101F6000C4F200034EE000BF40F60043C4F2000399
:101F7000984206D0604504D00023C4F20103984281
:101F8000DBD14B6825F0700243EA020541F6FF738E
:101F9000C4F200039842D6DD43F6FF73C4F2010396
:101FA00098421FDC42F20003C4F2000398422BD097
:101FB0000023C4F20103984226D0604524D028E0D3
:101FC00040F60043C4F2000398421DD041F60003DE
:101FD000C4F20003984217D041F60043C4F2000354
:101FE00010E000BF44F20003C4F2010398420BD09A
:101FF00044F60003C4F20103984205D044F20043C2
:10200000C4F20103984204D1CB6825F4407243EA3C
:1020100002050A688C684B69C46240F4806482627D
:10202000644504BF09690163026825F0800142F03C
:10203000040219430260012242610160B0BD000048
:10204000FEE70000FEF776FFFFF7F8FEFFF7FAFC69
:10205000FFF790FCFEF702FAFFF7AEFC00F00AF87B
:10206000FEE7000080B5012898BF012000F0ECFBDE
:10207000002080BD80B500F037FC002080BD00004E
:10208000B0B584B043698E4693B1846984B1058943
:10209000D0E9001C026928B2843D18BFC51CCDE9F7
:1020A000005360467346029400F0B8FD04B0B0BD22
:1020B0000589D0E90013028A28B2843D18BFC51CE7
:1020C00003AC18467346CDE9005400F077FD039940
:1020D000012818BF0021084604B0B0BD2DE9F04129
:1020E000044600F0EBFA40F2A006C2F200063069A6
:1020F00040F25825013030613068C2F2000548B125
:102100007069002840D13068E16AC06A884298BF8F
:10211000346039E034603069012835D1284600F058
:1021200073FA05F1140000F06FFA05F1280000F0D1
:102130006BFA05F13C0000F067FA05F1500000F081
:1021400063FA05F1640000F05FFA05F1780000F031
:102150005BFA40F2C018C2F20008404600F054FAA0
:1021600008F11407384600F04FFA06F1640000F059
:102170004BFA06F13C0000F047FA06F1500000F07F
:1021800043FAC6F8308077637068B1680122013184
:10219000B160E16A8A401043706001EB810005EB99
:1021A0008000211D00F072FA00F0ACFA706988B16D
:1021B0003068E16AC06A884228BFBDE8F0814EF607
:1021C0000450CEF200004FF080510160BFF34F8FFA
:1021D000BFF36F8FBDE8F08140F2A00540F25826B2
:1021E0004EF60458C2F20005C2F20006CEF2000814
:1021F0004FF0805703E000BF204600F09BFAE868EC
:10220000D0B100F05BFAA86CC468201D00F0DCF9C6
:10221000286901382861E8680138E86000F072FA3E
:1022200094F851000228EAD00128E5D070B9206B5B
:1022300000F080FAE0E700BF30680228DFD3C8F87A
:102240000070BFF34F8FBFF36F8FD8E74FF0500090
:1022500080F31188BFF36F8FBFF34F8FFEE700004D
:102260002DE9F047DDE909878246386B089C00EBD1
:10227000820004389946002920F0070644D00878E7
:1022800087F83400D8B3487887F83500B8B3887831
:1022900087F8360098B3C87887F8370078B308799C
:1022A00087F8380058B3487987F8390038B3887907
:1022B00087F83A0018B3C87987F83B00F8B1087A74
:1022C00087F83C00D8B1487A87F83D00B8B1887AE1
:1022D00087F83E0098B1C87A87F83F0078B1087B4C
:1022E00087F8400058B1487B87F8410038B1887BB7
:1022F00087F8420000281CBFC87B87F843000020F5
:1023000087F8430003E000BF002087F83400002571
:10231000381D062C28BF0624FC62C7E9114500F0D1
:102320007FF907F1180000F07BF984F00700B8612D
:10233000304651464A463F617F62FD6487F85050FF
:1023400000F030F9B8F1000F386018BFC8F800701D
:10235000BDE8F08708480068006880F308884FF0FF
:10236000000080F3148862B661B6BFF34F8FBFF3ED
:102370006F8F00DF00BF000008ED00E081B000209B
:10238000009040F23000C2F2000000684FF05001AF
:1023900081F31188BFF36F8FBFF34F8F013007D0E8
:1023A000FEE700BF009830B9009820B9009810B936
:1023B00000980028F6D001B07047000070B50446C0
:1023C00000F0F8FA40F2181CC2F2000CDCF804200D
:1023D00012B19CF8000020E040F21830C2F2000078
:1023E000420700F5705200F1070122F0070218BF02
:1023F00021F007000021A2F10803CCE90601CCF886
:10240000043042E90211DCF80420191AC0E9002165
:102410000120CCE902118CF800000025002C4FF0BF
:10242000000148BF01215AD0084058D124F00700CC
:1024300000F11003600708BF04F10803DCF808008E
:10244000591E81424BD2604650F818EFDEF8045016
:102450009D422CD2DEF80010C1B174464D689D42F9
:1024600018D20E68B6B175689D4217D23068A8B10F
:1024700045689D4216D20468A4B165689D4215D294
:102480002168A6460029E9D111E000BF0CF118002F
:102490000DE000BF8E46204609E000BFB646084664
:1024A00005E000BF8646304601E000BFA6469645DF
:1024B00014D00268DEF80040E91A112904604FD3F5
:1024C0000EEB0305680719D04FF0500080F3118818
:1024D000BFF36F8FBFF34F8FFEE700BF002500F003
:1024E0005DFC68075CD04FF0500080F31188BFF3AB
:1024F0006F8FBFF34F8F00BFFEE700BF0CF11800D6
:102500006960CEF8043000BF0168A9420AD20868A9
:10251000A8420BD20168A94204D208680B46A8421F
:10252000F2D304E00346084601E000BF0B465C68B6
:1025300069681E19AE4202D121441D4659606C18CB
:10254000844201D0044607E0DCF80440A04203D0F6
:10255000D0E9004008446860AB422C6018BF1D60A1
:10256000DEF80400DCE9021302F10805091A9942B9
:10257000CCF8081038BFCCF80C109CF800100029DB
:102580004FF0000118BF40F00040CEE90010DCF829
:1025900010000130CCF8100000F000FC6807A2D158
:1025A000284670BD034642F27D3021F00101C0F69D
:1025B00000004FF0807C03E903106FF00201A3F1EB
:1025C000440043E9091270470169D0E90132D1F8AA
:1025D00004C09A608445536008BF4A6000220261CB
:1025E00008680138086008687047000044F21C134E
:1025F000C2F20003036043F61C70C2F200000860E0
:1026000080201060704700004FF0FF31024642F812
:10261000081F00214260C0E90322016070470000EA
:10262000002101617047000010B5D1F800C01CF115
:10263000010213D000F1080462681368634511D8E1
:1026400053681C68644511D85A68146864450FD8EB
:1026500054682368A6466345EED90BE00269D2F8B8
:1026600004E007E09646224604E000BF9E4601E0F3
:1026700096461A46C1F804E0CEF808108A60516008
:10268000086101680131016010BD0000D0F800C090
:10269000436808619A68C1E90132516099600CF1A0
:1026A0000101016070470000DFF80C00016841F48F
:1026B000700101607047000088ED00E04FF05000AD
:1026C00080F31188BFF36F8FBFF34F8F40F230005C
:1026D000C2F2000001684A1C026009B1704700BFE5
:1026E0004EF60450CEF200000068000608BF7047A6
:1026F0004FF0500080F31188BFF36F8FBFF34F8FFF
:10270000FEE7000040F23000C2F20000016839B17B
:102710000139016018BF7047002080F311887047AD
:102720004FF0500080F31188BFF36F8FBFF34F8FCE
:10273000FEE7000070B5002808BF70BD40F2181415
:10274000C2F20004217850F8042C002918BF4FF081
:10275000004111420ED0A0F108052B68A3B14FF043
:10276000500080F31188BFF36F8FBFF34F8F00BF0E
:10277000FEE700BF4FF0500080F31188BFF36F8F6A
:10278000BFF34F8FFEE700BF22EA010140F8041CAF
:10279000064600F00FF956F8040CA1680144A16048
:1027A00004F118010B68AB420AD21968A94213D28E
:1027B0000B68AB4204D219681A46A942F2D301E071
:1027C0000A4619465368D618AE420AD02B188B42D7
:1027D0000DD00B4612E000BF1A465368D618AE4221
:1027E000F4D11844154650602B188B42F1D1636820
:1027F000994203D0D1E9003108446860AA422B60B5
:1028000018BF1560606901306061BDE8704000F07C
:10281000C5BA00004EF21000CEF2000000210160A7
:10282000816040F22C01C2F20001096844F6D352E3
:10283000C1F26202A1FB02124FF0FF3101EB9211D3
:10284000416007210160704770B500283FD040F219
:10285000A004C2F20004A16951B14FF0500080F30E
:102860001188BFF36F8FBFF34F8F00BFFEE700BF2C
:102870000546A0690130A061666A20680430FFF750
:10288000A3FE48B12068AD19456012D3606B216882
:102890000431FFF7C9FE15E020680121C06A6268B3
:1028A00001FA00F022EA000060602068AD1945607E
:1028B000ECD2206B21680431FFF7B6FE206A854216
:1028C00038BF256200F06AFA002818BF70BD4EF6C6
:1028D0000450CEF200004FF080510160BFF34F8FE3
:1028E000BFF36F8F70BD0000B0B588B00020CDE998
:1028F000050006A805A904AAFFF778FE0598B8B355
:10290000069C002C3ED05421049A07910799542923
:1029100042D107992063022084F8510007A80025BE
:10292000CDE9005042F2D910C0F600001FA10023EB
:102930000294FFF795FC2046FFF7D0FB079940F281
:10294000A000C2F20000C16179B14FF0500181F3E3
:102950001188BFF36F8FBFF34F8F4FF0FF310162CC
:1029600001214161456200F065F808B0B0BD00BFCB
:102970004FF0500080F31188BFF36F8FBFF34F8F7C
:10298000FEE700BF4FF0500080F31188BFF36F8F58
:10299000BFF34F8FFEE700BF4FF0500080F3118868
:1029A000BFF36F8FBFF34F8FFEE700BF49444C4525
:1029B0000000000040F2A000C2F200008169013175
:1029C0008161704740F2A000C2F2000081690029D5
:1029D0001EBF012181627047002181624168B1FA06
:1029E00081F1C9B2C1F11F0140F2582201EB81010E
:1029F000C2F2000252F8213063B102EB8102516849
:102A000002F108034968994251600DD0C96801601C
:102A1000704700BF4FF0500080F31188BFF36F8FF5
:102A2000BFF34F8FFEE700BF49685160C96801607E
:102A300070470000B0B584B04EF2004CCEF2000CEE
:102A40004CF27021C4F20F11DCF800294B1C9A42A1
:102A50000AD14FF0500080F31188BFF36F8FBFF39E
:102A60004F8F00BFFEE700BFDCF800298A4209D182
:102A70004FF0500080F31188BFF36F8FBFF34F8F7B
:102A8000FEE700BF9CF800100291FF218CF80010B7
:102A90009CF800108DF807109DF8071001F0500207
:102AA00040F23811C2F200010A7007224A609DF913
:102AB0000720B2F1FF3F6BDC032200BFD31C4B6049
:102AC0009DF8070040008DF807009DF90700B0F160
:102AD000FF3F24DC931C4B609DF8070040008DF8FD
:102AE00007009DF90700B0F1FF3F18DC531C4B6055
:102AF0009DF8070040008DF807009DF90700B0F130
:102B0000FF3F0CDC4A609DF80700043A40008DF856
:102B100007009DF90700B0F1FF3FCFDD131D032B28
:102B200036D14FF44070486002988CF80000DCF811
:102B3000200940F47000CCF82009DCF8200940F0AE
:102B40007040CCF82009FFF765FE40F23004C2F275
:102B5000000400252560FFF7A7FD4EF63470CEF285
:102B60000000016841F040410160FFF7F3FBFFF70F
:102B700029FF039520684FF0500181F31188BFF3BE
:102B80006F8FBFF34F8F013012D000BFFEE700BF41
:102B90004FF0500080F31188BFF36F8FBFF34F8F5A
:102BA000FEE700BF039830B9039820B9039810B925
:102BB00003980028F6D0002004B0B0BD2DE9F04104
:102BC00084B007469000984615460E46FFF7F6FB80
:102BD000F8B104465420FFF7F1FBB8B1DDE90A2152
:102BE0000023046380F85130CDE9002104463846C3
:102BF00031462A4643460294FFF732FB2046FFF750
:102C00006DFA012004B0BDE8F08100BF2046FFF757
:102C100091FD4FF0FF3004B0BDE8F08170B586B093
:102C20000B9CCCB10C9E0EB354250495049D542DE1
:102C300026D1049DDDF828C0022586F8515005AD47
:102C40003463CDE900C50296FFF70AFB3046FFF773
:102C500045FA059806B070BD4FF0500080F311881A
:102C6000BFF36F8FBFF34F8FFEE700BF4FF05000F1
:102C700080F31188BFF36F8FBFF34F8FFEE700BF64
:102C80004FF0500080F31188BFF36F8FBFF34F8F69
:102C9000FEE700002DE9F04740F2A006C2F2000670
:102CA000B06928B1F06A0130F0620020BDE8F08719
:102CB000706A10F1010AC6F824A020D3306B0068B6
:102CC00050B14FF0500080F31188BFF36F8FBFF306
:102CD0004F8F00BFFEE700BF306B716B31637063D5
:102CE000B06B0130B063306B006828B1306BC068E6
:102CF000C068406802E000BF4FF0FF303062306AC9
:102D000040F258288245C2F2000801D2002434E083
:102D1000306B0024006868B34FF0010916E000BF73
:102D2000F86A716809FA00F2114300EB80007160E3
:102D300008EB80002946FFF7A9FCF86A3168C96AE8
:102D4000326B8842106828BF4C4698B1306BC0681F
:102D5000C7683D4655F8040F82450DD32846FFF756
:102D600033FCB86A0028DBD007F11800FFF72CFC11
:102D7000D6E700BF4FF0FF3030623068C06A00EB2A
:102D8000800058F82000012888BF0124B06A00287C
:102D900018BF01242046BDE8F08700002DE9F0416E
:102DA00040F2A005C2F20005A86968B1FFF786FCF1
:102DB000A8690138A861A86980B10024FFF7A2FCC6
:102DC0002046BDE8F08100BF4FF0500080F311882D
:102DD000BFF36F8FBFF34F8FFEE700BF2869002856
:102DE000EBD0686E78B340F258280126C2F2000892
:102DF000286FC76807F11800FFF7E6FB3C1D204667
:102E0000FFF7E2FBF86A696806FA00F2114300EB8B
:102E10008000696008EB80002146FFF737FCF86A04
:102E20002968C96A884228BFAE62686E0028DFD16F
:102E3000286B006820B1286BC068C068406801E05A
:102E40004FF0FF302862EC6A4CB10126FFF722FFF9
:102E5000002818BFAE62013CF8D10020E862A86AE1
:102E60000028AAD04EF60450CEF200004FF0805158
:102E70000160BFF34F8F0124BFF36F8FFFF742FC58
:102E80002046BDE8F081F1EE100A4FF6FF71C0F266
:102E9000C03120EA010040F04070E1EE100A7047B6
:102EA00000000000000000000102030406070809FA
:102EB00000000000010203044374726C5461736BE0
:102EC0000064656661756C745461736B000000008A
:102ED000F02E00080000002038000000EC0100087F
:102EE000282F000838000020384700000C02000896
:102EF000010000001000000000000041CDCC4C3E5D
:102F0000CDCC4C3D0000A0400000C0409A99193F34
:102F10000000A04300401C4600409C450024F400F3
:082F2000AAAAAAAA0000000001
:040000050800018965
:00000001FF
